:020000040000FA
:06000000020C3A02028D21
:03002B0002095077
:030033000202AF17
:030053000201C1E6
:03007B000207F584
:1000830002022101FF01010503010F10FEFFCE163D
:10009300CE16CE16CE167E157815CE16D92D0000A7
:1000A30000004B2C00000000FF000000FF000100D7
:1000B30000BA1800000000000074190000000000DE
:1000C300009C180000000000000000000000000079
:1000D300000000FFFF0101005906000000E803D201
:1000E30006E80364006400B801020200080000058A
:1000F30002070401051E02051E020A0A0103B80BCA
:1001030002803E0102E8030A050001FFFF0114001B
:1001130020FD000206FFFF00035F005F0030005870
:1001230000000000000000000000000000000000CC
:1001330000000000000000000000000000000000BC
:1001430000140669066906690669067106FF0D5EF5
:10015300C05EE102015482014E820D760E00000062
:10016300FFEC28F228F828FE2800000429000028C4
:10017300290A29102916291C292229FEFF8E2994D0
:100183002900009A29000000000000000000000080
:100193000000000000B8290000000000000000007B
:1001A30000A629AC29B229000000000B04010500B8
:1001B3000202E2810712810B5EC040080200C0E028
:1001C30074F11205B5A2AFE433FED2AFE5A7FFE5A4
:1001D300A1F5085FF50974105509600612219C7595
:1001E300A1EF7408550960081221A275A1F78024B4
:1001F300E508A2E092F0EFA2E082F0501790619838
:10020300E0F89007E0E0C398A2D265D0335002E84B
:10021300F075A1FEEEA2E092AF7F02020671C0E08C
:1002230074F21205B5A2AFE433FED2AF9061A4E03D
:10023300F8759B00E59158540860087591F71221F1
:10024300F68023E59158541060087591EF1221FC54
:100253008014E591A2E092F0E8A2E082F05007E07A
:10026300C2E0F01223409061A3E0F8E5E95854049A
:10027300600E12231675E9FB906193E0A2E640F24B
:10028300EEA2E092AF7F01020671C0E074F21205A4
:10029300B5A2AFE433FED2AF9061A5E0F8E5BF5855
:1002A3005404600675BFFB12235880D4C0E074F178
:1002B3001205B5E59DA2E650FA906206E0FAA2E2C5
:1002C3005035A82CE890620BF0F508852D097404CD
:1002D3007808120C59E508906207F0852C08852DE3
:1002E3000974097808120C59E508543E906209F024
:1002F300906201E0D2E0F07829EA46F6906202E0EB
:10030300F50875090074047808120B9D7829E5082F
:1003130046F608E50946F6906204E0F5087509001B
:1003230074097808120B9D782AE50946F6EAA2E0DB
:100333005003752B0174065A6003752B00E58BA2DD
:10034300E55006758BDF752B0012249C758B00C25C
:10035300E87F02020671C3E498F8E499F912039A5C
:100363008026C3E49AFAE49BFBE920E7E912039AA7
:10037300E498F8E499F922C3E498F8E499F91203AC
:100383009AE498F8E499F9C3E49AFAE49BFB22EB24
:1003930020E7CFE920E7E0B90010BB0008E88AF0C6
:1003A30084F8AAF022E4FBC8FA22EB70227B10C87F
:1003B30033C8C933C9335007C39AC3DBF280069AE3
:1003C30050012ADBEAC833F4C8C933F4C9FA2275E9
:1003D300F008E4C833C8C933C933C99AC99B500468
:1003E300C92AC93BD5F0ECFBC833F4C8E4C9FA22E7
:1003F300080808EAC0E0EBC0E086F0E7A4FA1809B1
:1004030086F0E7A42AFA180986F0E7A42AFA18095D
:1004130086F0E7A42AFA1986F0E7A4FBE5F02AFAA6
:10042300190886F0E7A42BFBE5F03AFA190886F0E1
:10043300E7A42BFBE5F03AFA18180986F0E7A4C500
:10044300F02BFBE43AFA1908E7C5F0C6A426F6E553
:10045300F03BFBE43AFA1886F0E7A4F6E5F0082649
:10046300F6E43B08F6E43A08F6D0E0FBD0E0FA22E3
:10047300E4CFC0E0E4CEC0E0E4CDC0E0E4CCC0E033
:1004830075F020C3E633F608E633F608E633F608DC
:10049300E633F6181818EC33FCED33FDEE33FEEFBC
:1004A30033FFC3EC9709ED9709EE9709EF971919F5
:1004B30019400FFFEC97FC09ED97FD09EE97FE1924
:1004C3001906D5F0BEECF709EDF709EEF709EFF7DA
:1004D300191919D0E0FCD0E0FDD0E0FED0E0FF22F6
:1004E3002518C582C0E0E51934FFC583C0E0E518CF
:1004F300C3958224F810AF08858319858218800874
:10050300858319858218D2AFCEF0A3E520F0A378B6
:1005130008E608F0A3DEFAEFF0A3E58124FAF8E693
:1005230008F0A3E608F0A3E608F0A30808E608F03D
:10053300A3E608F0A315811581D0E0FED0E0F815FD
:100543008115811581E8C0E0EEC0E022120C9CB950
:10055300000302059FE47921780DB800028004F7B7
:1005630009D8FCE490040178A9790C8002F0A3D89F
:10057300FCD9FA900FA9AA82AB83900086783C79C4
:10058300028015E493A3AC82AD838A828B83F0A3AC
:10059300AA82AB838C828D83D8E9D9E77582B8753B
:1005A30083BF74061209EF7582B675832B7400122C
:1005B30009EFC0D02518C582C0E0E51934FFC58313
:1005C300C0E0E518C3958224F310AF08858319852D
:1005D30082188008858319858218D2AFC8F0A3E9F1
:1005E300F0A3EAF0A3EBF0A37908E709F0A3D8FAA4
:1005F300ECF0A3EDF0A3EEF0A3EFF0A3D0E0F0A3B3
:10060300D0E0F0A3D0E0F0A3E520F0A3E5F0F0A361
:100613002212010002020000205104A81609000161
:1006230002030109024300020100801909040000CA
:100633000102020100052400100104240202052422
:10064300060001052401000107058203400040095B
:10065300040100020A0000000705840240000007AD
:100663000504024000002F06000052060000851911
:1006730083851882E0C0E0A3E0F9A3E0FAA3E0FBDE
:10068300A37808E0F608A3DFFAE0FCA3E0FDA3E00B
:10069300FEA3E0FFA3E0C0E0A3E0C0E0A3E0F5D049
:1006A300A3E0F520A3E0A3F5F010AF088583198537
:1006B30082188008858319858218D2AFD082D083AF
:1006C300D0E0F8D0E032E4730175F0108E218F2270
:1006D300858226858325851882851983E0CEA3E04C
:1006E300CF852682852583EBC9EAC8EDCBECCAC347
:1006F300E833C8E933C9EA33CAEB33CBC3EA9EF51F
:1007030024EB9FF523B35004AB23AA24EC33CCEDA5
:1007130033CDD5F0DAAE21AF2222D083D082ECC024
:10072300E0EDC0E0E493A3FCE493A3FDED4C600D86
:10073300120838EC24FFFCED34FFFD80EFE493A3B3
:10074300FCE493A3FDED4C600D1208D9EC24FFFCEF
:10075300ED34FFFD80EFD0E0FDD0E0FCE493A3C0D7
:10076300E0E493C0E022D083D082E9C0E0E493A325
:10077300C386F0C5F095F0F908E493A386F0C5F0BD
:1007830095F0700BE493A3C3994005E9048002A399
:10079300E475F002A42582F582E5F03583F583D074
:1007A300E0F9E493A3C0E0E493C0E02285198385D4
:1007B3001882E0A3FEE0A3F5207808E0A3F608DFA3
:1007C300FAE0A3FFE0A3C0E0E0A3C0E0E0A3C0E041
:1007D300E0A3C0E0E0A3C0E010AF088582188583E2
:1007E300198008858218858319D2AFD083D08202FD
:1007F30009F5C0E074F21205B5A2AFE433FED2AF3F
:10080300E58AA2E250079007A3E0D2E0F0E58AA2CE
:10081300E350079007A3E0D2E1F0758A00C2EB7AB8
:10082300107B0090079FE0F9121AACEEA2E092AFA2
:100833007F01020671C0E0C3E493960874019396A6
:1008430018400FE4936670080874019366187000EB
:100853007019A3A3C3E49396087401939618A3A3F2
:10086300400DD0E0D0E0D0E0020759A3A3A3A3A397
:10087300A3D0E0227404800874038004740280000F
:10088300CCC0E0EDC0E0E518C39CCCAD1950011D10
:1008930010AF068C188D1980068C188D19D2AF12E3
:1008A3000971D0E0FDD0E0FC2274028000CCC0E0EE
:1008B300EDC0E0E518C39CCCAD1950011D10AF0687
:1008C3008C188D1980068C188D19D2AF12092ED071
:1008D300E0FDD0E0FC22C0E0C0F088F0E493667055
:1008E300080874019366187000A8F0A3A3700BD0D6
:1008F300F0D0E0D0E0D0E0020759A3A3D0F0D0E0DD
:1009030022D083D082CCC0E0E493A360061209B165
:100913001470FAE493A36006120AD41470FAD0E0B8
:10092300FCE493A3C0E0E493C0E022CAC0E0E493F4
:10093300A3C582CCC582C583CDC583F0A3C582CCB4
:10094300C582C583CDC583DAE5D0E0CA22C0E0C045
:10095300D0E8C0E0E9C0E0E5A8D2AFC2C7A2E7A2F1
:10096300E792AFD0E0F9D0E0F8D0D0D0E032CAC0FF
:10097300E0E0A3C582CCC582C583CDC583F0A3C502
:1009830082CCC582C583CDC583DAE6D0E0CA2270A6
:1009930009080808226016181818C6C333C608C603
:1009A30033C608C633C608C633C6D5E0EA22C0E05C
:1009B300E493A3D39C5010E493A3C39C400AD0E0D8
:1009C300D0E0D0E0020921A3A3A3D0E022C008C352
:1009D300E096F50808A3E096420808A3E0964208CB
:1009E30008A3E09645087001D3D00822C09FF59F65
:1009F300E473D09F22D083D082C09FE493C0E0747D
:100A03000193C0E0740293F59F227404800A740377
:100A13008006740280027401C0E0F404120A28D034
:100A2300E0120C77222518F58210AF08F518400262
:100A330015198008F51840021519D2AF85198322BC
:100A4300BB0102E722C082C08389828A83BB000381
:100A5300E08002E493D083D08222C0D0251810AF67
:100A630008F518500205198008F51850020519D227
:100A7300AFD0D0226016080808C6C313C618C61321
:100A8300C618C613C618C613C6D5E0EA22C3E0C605
:100A930096F608A3E0C696F608A3E0C696F608A362
:100AA300E0C696F622251810AF08F518400215196E
:100AB3008008F51840021519D2AF22BB000EC08280
:100AC300C0838A838982F0D083D08222BB0101F75D
:100AD30022C0E0E493A36C7009D0E0D0E0D0E00240
:100AE3000921A3A3D0E022C3E09608A3E09608A3BC
:100AF300E09608A3E096A2D265D03322E766701091
:100B03000809E766700A0809E76670040809E766DA
:100B130022E066701008A3E066700A08A3E066701E
:100B23000408A3E06622C3E493960874019396082D
:100B330074029396087403939622C3E096F008A375
:100B4300E096F008A3E096F008A3E096F022E026F2
:100B5300F608A3E036F608A3E036F608A3E036F677
:100B630022E026F008A3E036F008A3E036F008A35D
:100B7300E036F022E657F60809E657F60809E65785
:100B8300F60809E657F622E056F008A3E056F00807
:100B9300A3E056F008A3E056F022700422600D187B
:100BA300C6C333C608C633C6D5E0F41822E627F613
:100BB3000809E637F60809E637F60809E637F622A4
:100BC300E647F60809E647F60809E647F60809E6A0
:100BD30047F622E056F608A3E056F608A3E056F6D9
:100BE30008A3E056F622E4C396F608E496F608E472
:100BF30096F608E496F622C6F4C608C6F4C608C6F6
:100C0300F4C608C6F4C622600D08C6A2E713C618C8
:100C1300C613C6D5E0F322C3E7960809E796080989
:100C2300E7960809E79622C3E09608A3E09608A38F
:100C3300E09608A3E0962275D000758140751801EF
:100C43007519040002054FE0F608A3E0F608A3E0D7
:100C5300F608A3E0F622600C08C6C313C618C61331
:100C6300C6D5E0F422E6F008A3E6F008A3E6F00810
:100C7300A3E6F022CAC0E0E6F0A308DAFAD0E0FA6D
:100C830022E0FAA3E0FBA3E0FCA3E0FD22EAF0A349
:100C9300EBF0A3ECF0A3EDF022E5C754F84401F523
:100CA300C77901222518F582E43519F58322C2AFED
:100CB30075D69F020000221209F81AAC021209F835
:100CC30016AD021209F86CAD021209F8AAAD0212B0
:100CD30009F8D4AD021209F852AE021209F8ABAE0C
:100CE300021209F80CAF021209F87BB1021209F8DB
:100CF30045B3021209F809B4021209F853B50212F6
:100D030009F836B8021209F82FBB021209F83EBBE4
:100D1300021209F8CFBB021209F88CBC021209F8BF
:100D2300D4BC021209F81DBD021209F85ABD021201
:100D330009F8BEBD021209F82ABE021209F846BE1E
:100D4300021209F87ABE021209F8C5BE021209F8A6
:100D5300C2BF021209F879C0021209F808C30212CD
:100D630009F84DC4021209F8FAC4021209F88AC537
:100D7300021209F8AEC5021209F860C6021209F898
:100D83002DC7021209F8F6C8021209F834C9021273
:100D930009F8ABC9021209F80ACB021209F8B7CB5A
:100DA300021209F8F8CB021209F810CC021209F862
:100DB300C2CC021209F888CF021209F81CD1021220
:100DC30009F840D1021209F85ED1021209F847D29C
:100DD300021209F804D6021209F822D6021209F8FF
:100DE300CA30001209F8DC30001209F8343100125D
:100DF30009F89A31001209F82432001209F8E7328F
:100E0300001209F82F33001209F85B33001209F8B6
:100E13009B33001209F80234001209F877340012E8
:100E230009F89034001209F8B634001209F8D534E1
:100E3300001209F81335001209F86835001209F891
:100E43008F35001209F8EC35001209F8B336001299
:100E530009F84C37001209F8CF37001209F8973810
:100E6300001209F8E038001209F8FC38001209F8FA
:100E73002E39001209F8DC3A001209F8A83B0012D7
:100E830009F8CD3B001209F8FA3B001209F8253C9A
:100E9300001209F8343C001209F83F3C001209F82B
:100EA300EA3C001209F8513D001209F8D43D001242
:100EB30009F8DC3D001209F8643E001209F8CC3E43
:100EC300001209F80B3F001209F84C41001209F80F
:100ED3003342001209F86642001209F8284300124F
:100EE30009F8E443001209F81644001209F87C4497
:100EF300001209F88D44001209F80045001209F8A0
:100F03009845001209F8F145001209F8CF4600127E
:100F130009F8F446001209F81247001209F82547A8
:100F2300001209F87D47001209F8BE47001209F8BC
:100F3300CB47001209F8D447001209F8DF49001221
:100F430009F8334B001209F8434B001209F87C4CA3
:100F5300001209F8E34C001209F8254D001209F8B4
:100F6300614D001209F8894E001209F8FD50001274
:100F730009F81151001209F81B51001209F8255103
:100F8300001209F82F51001209F84851001209F80C
:100F93005251001209F85C51001209F8665100120F
:100FA30009F88E51001209F8DC51001209F8E751D3
:100FB300001209F80B52001209F82F52001209F817
:100FC3009F52001209F8EB52001209F8075300125E
:100FD30009F86D53001209F8B453001209F80054CC
:100FE300001209F86B54001209F81B55001209F896
:100FF300EE56001209F85C57001209F899580012CE
:1010030009F8BF58001209F8325A001209F8D55DE1
:10101300001209F8CF5F001209F8AF61001209F856
:101023004862001209F87C64001209F81F65001277
:1010330009F87165001209F8F565001209F80D66E3
:10104300001209F84A68001209F88F69001209F8BA
:10105300EE69001209F8876A001209F8596C001248
:1010630009F89B6D001209F8BA6D001209F80F6EAA
:10107300001209F8106F001209F8386F001209F80E
:101083009B6F001209F89370001209F80F71001298
:1010930009F83972001209F8A472001209F8E27310
:1010A300001209F84476001209F87576001209F85F
:1010B3002079001209F87279001209F8307A0012C7
:1010C30009F8EC7A001209F8507B001209F8117C38
:1010D300001209F8B37C001209F8187D001209F810
:1010E300577D001209F8887D001209F8F27E00127C
:1010F30009F85C82011209F89482011209F86D85DE
:10110300011209F8B985011209F8A386011209F839
:101113000787011209F86788011209F8468B011243
:1011230009F8898C011209F88397011209F81898B4
:10113300011209F8159B011209F81A9C011209F80A
:101143007D9C011209F8C89D011209F848A00112FB
:1011530009F845A2011209F8D2A2011209F8AEA3B7
:10116300011209F846A4011209F850A4011209F862
:101173007EA4011209F833A5011209F811A6011280
:1011830009F8E8A6011209F8FEA6011209F85FA7FB
:10119300011209F888A7011209F8B5A7011209F885
:1011A300E6A9011209F8C5AA011209F809AB01124F
:1011B30009F874AB011209F833AC011209F865ACF4
:1011C300011209F8ACAC011209F8DFAC011209F8FD
:1011D30034AD011209F889AD011209F88EAD01127F
:1011E30009F8E2AD011209F82AAE011209F82EAF8F
:1011F300011209F893AF011209F8EFAF011209F8D0
:1012030060B0011209F830B3011209F832B40112C7
:1012130009F89FB5011209F88EB8011209F835B91A
:10122300011209F883BB011209F826BC011209F85F
:1012330064BC011209F846BE011209F859BE011235
:1012430009F862BE011209F86BBE011209F880BEEB
:10125300011209F89FBE011209F879C0011209F8B9
:10126300CEC0011209F8D8C0011209F8E2C0011278
:1012730009F833C1011209F887C1011209F8A3C2A1
:10128300011209F8FAC2011209F85CC4011209F843
:10129300ADC4011209F858C5011209F876C6011246
:1012A30009F821C7011209F83CC8011209F863C9FA
:1012B300011209F866CA011209F87DCA011209F878
:1012C300BACA011209F8C4CA011209F8CECA011236
:1012D30009F8D9CA011209F8F7CA011209F839CB7A
:1012E300011209F896CB011209F8BBCB011209F8D8
:1012F300D5CB011209F854CC011209F891CC011293
:1013030009F8C6CD011209F818CE011209F832CF37
:10131300011209F859CF011209F8EDCF011209F8AA
:1013230068D0011209F8B8D1011209F8EBD2011201
:1013330009F89DD3011209F868D4011209F80DD5F3
:10134300011209F877D5011209F82CD6011209F810
:1013530080D6011209F8DED6011209F8A9D70112C5
:1013630009F8CCD7011209F88BD8011209F8AFD8C4
:10137300011209F8D1D8011209F832D9011209F87A
:1013830072DB011209F85CDC011209F807DD0112B6
:1013930009F82CDF011209F87ADF011209F8BDDF21
:1013A300011209F815E0011209F873E0011209F8B6
:1013B300A0E0011209F8C4E0011209F8F7E00112F4
:1013C30009F821E1011209F868E1011209F8BDE108
:1013D300011209F819E2011209F816E3011209F8DA
:1013E3007AE4011209F8B8E4011209F8E1E4011200
:1013F30009F870E5011209F8BAE5011209F8DEE50A
:10140300011209F82EE6011209F849E6011209F85A
:1014130000E7011209F839E7011209F891E701120F
:1014230009F8E7E7011209F8EBEA011209F81EEBE4
:10143300011209F8DCEB011209F8E4EC011209F8D6
:101443006DED011209F8C3BC051209F8FBBC0512C6
:1014530009F81CBD051209F85EBD051209F8C0BDE7
:10146300051209F8CABD051209F8DABD051209F813
:1014730011BE051209F84DBE051209F80FC2051277
:1014830009F8D0C3051209F8F2C5051209F8B1C667
:10149300051209F87EC7051209F85680031209F8E8
:1014A3009980031209F85981031209F8788203120B
:1014B30009F89F83031209F85A85031209F8CD85A9
:1014C300031209F89886031209F8A987031209F889
:1014D3001088031209F84C88031209F8AB88031229
:1014E30009F8E488031209F83989031209F8C28953
:1014F300031209F8678A031209F8388B031209F8F3
:10150300128C031209F89C8C031209F8C28C031283
:1015130009F8EF8C031209F8298D031209F8298EB3
:10152300031209F8398E031209F8898E031209F898
:10153300968E031209F8AB8E031209F8B48E0312C8
:1015430009F80E8F031209F8708F031209F8BA8F86
:10155300031209F8D58F031209F8FC8F031209F857
:101563001990031209F82590031209F8CE9103127A
:1015730009F8E791031209F86D92031209F88092B2
:10158300031209F89292031209F83E93031209F821
:10159300A994031209F86096031209F8E696031258
:1015A30009F8E896031209F85097031209F86E97A1
:1015B300031209F80498031209F84198031209F871
:1015C3004498031209F86F98031209F8CC98031290
:1015D30009F8F098031209F80E99031209F85C99B7
:1015E300031209F8B59A031209F80D9B031209F8BF
:1015F3005A9B031209F8E19B031209F8099C031291
:1016030009F83F9C031209F84E9C031209F8AC9C9D
:10161300031209F81D9D031209F85A9D031209F8D4
:10162300959D031209F8C09D031209F8DA9D031270
:1016330009F8F49D031209F8C89E031209F8D29E13
:10164300031209F80E9F031209F81E9F031209F8EB
:101653007E9F031209F8929F031209F89CA00312BC
:1016630009F8AFA0031209F8C4A0031209F869A18D
:10167300031209F8E5A1031209F888A2031209F875
:1016830094A2031209F8DAA3031209F8F6A30312CA
:1016930009F84EA4031209F88AA4031209F8A4A4B2
:1016A300031209F806A5031209F8A5A5031209F800
:1016B300F0A5031209F83CA8031209F8E3A80312E2
:1016C30009F87FA9031209F8A5AB031209F8BDAB0A
:1016D300031209F8C0AB031209F8CCAB031209F8E3
:1016E300E0AB031209F8E8AB031209F828AC0312C4
:1016F30009F821AD031209F8A4AD031209F826AEC7
:10170300031209F8A0AE031209F872AF031209F825
:1017130094AF031209F830B0031209F83CB0031276
:1017230009F867B0031209F86AB0031209F8D9B0CF
:10173300031209F83CB2031209F853B3031209F870
:10174300DEB3031209F81BB5031209F8EDB5031252
:1017530009F81EB6031209F84AB6031209F853B67C
:10176300031209F882B6031209F832B7031209F813
:10177300ECB7031209F860B8031209F8FCB80312B6
:1017830009F884B9031209F8BAB9031209F8FFB9C1
:10179300031209F82CC8051209F87FC8051209F8C5
:1017A300BCC8051209F80CC9051209F890C905123D
:1017B30009F8A2CB051209F88ECD051209F80BD151
:1017C300051209F83BD1051209F859D1051209F898
:1017D300C3D1051209F8F3D1051209F826D205126F
:1017E30009F85DD2051209F8BDD2051209F809D32B
:1017F300051209F885D3051209F8ACD3051209F8C7
:10180300E0D3051209F840D5051209F85CD5051295
:1018130009F8A1D5051209F828D6051209F871D6D9
:10182300051209F802D7051209F8E8D7051209F8D5
:101833003BD8051209F8A0D8051209F821D90512D9
:1018430009F877D9051209F8C0D9051209F85DDA44
:10185300051209F854DB051209F8A2DB051209F891
:10186300F0DB051209F812DC051209F8ADDC0512EC
:1018730009F846DD051209F83FCA061209F85DCAE0
:10188300061209F8C2CA061209F86ACB061209F849
:101893007FCB061209F80BFF051209F8AAFE011205
:1018A30009F8D2FE011209F8C9FF011209F80BC7A2
:1018B300061209F850C8061209F895DD051209F851
:1018C30044DE051209F864DE051209F884DE051208
:1018D30009F898DE051209F802DF051209F832DF6C
:1018E300051209F8B6E0051209F85FE1051209F8D7
:1018F3004AE2051209F899E2051209F8DCE2051239
:1019030009F869E3051209F8B3E3051209F8D4E30A
:10191300051209F83DE4051209F872E4051209F805
:10192300E4E4051209F87EE6051209F84FE705120B
:1019330009F891E7051209F8EBE7051209F88DC3D9
:10194300061209F8AEC3061209F8F0C4061209F824
:101953001AC5061209F8BAB8061209F834B90612FC
:1019630009F83FB9061209F860B9061209F8BCA9CB
:10197300051209F8E2A9051209F8B4AA051209F833
:10198300DFAA051209F81CAB051209F841AB0512D1
:1019930009F862AB051209F896AB051209F8CEAB4C
:1019A300051209F8E6AC051209F832AD051209F87B
:1019B30052AD051209F8BDAD051209F857AE05126F
:1019C30009F87EAE051209F8FBAE051209F891B0CD
:1019D300051209F813B1051209F80DB2051209F839
:1019E30015B3051209F8E2B3051209F80BB4051291
:1019F30009F86BB4051209F831B5051209F85FB59A
:101A0300051209F8EDB6051209F861B7051209F8D0
:101A130094B7051209F8DCB7051209F8F5B70512F2
:101A230009F8B2B8051209F88FB9051209F843BAD3
:101A3300051209F8D8BA051209F88ABB051209F884
:101A430011BC051209F8B88E061209F8048F0612A4
:101A530009F8728F061209F8938F061209F8AA8FF4
:101A6300061209F84A90061209F85390061209F86B
:101A7300A090061209F8C990061209F8D39006122D
:101A830009F83F91061209F8D191061209F80D924F
:101A9300061209F84892061209F8A492061209F8E8
:101AA300DA92061209F85993061209F8A39306125B
:101AB30009F8E493061209F81B94061209F82D9409
:101AC300061209F83F94061209F85E94061209F803
:101AD3006794061209F82F95061209F86F950612F6
:101AE30009F89895061209F8E2FA031209F825FC99
:101AF300031209F84BFC031209F85CFC031209F802
:101B03007BFE031209F89AFE031209F865BB06125D
:101B130009F89BBB061209F8E6BB061209F831BDAA
:101B2300061209F80080051209F83481051209F834
:101B33007081051209F82883051209F862830512DA
:101B430009F8DB85051209F81B86051209F8AF872A
:101B5300051209F84F88051209F8B188051209F82A
:101B63003E89051209F87689051209F8B689051226
:101B730009F8478B051209F8EF8C051209F888A5B7
:101B8300021209F87A8F051209F8A68F051209F8CF
:101B9300AF8F051209F80A90051209F8A0900512F3
:101BA30009F8FD93051209F88294051209F8DFFF7D
:101BB300031209F8F5FF031209F890D4061209F885
:101BC300849A061209F8999A061209F84C9B061290
:101BD30009F88C9B061209F8A59B061209F8E09BED
:101BE300061209F873AA021209F85F9C061209F893
:101BF300A19C061209F8AC9E061209F8A1D206129E
:101C030009F8D7D2061209F8F3D2061209F835D328
:101C1300061209F845D3061209F80080041209F8E0
:101C23005B80041209F8FF80041209F81182041280
:101C330009F8F382041209F8CB83041209F8E0834C
:101C4300041209F82D84041209F88384041209F894
:101C5300E084041209F8F384041209F8428504129B
:101C630009F8BB85041209F8D385041209F888889A
:101C7300041209F82789041209F85E89041209F885
:101C8300A789041209F8958B041209F8F48B04123E
:101C930009F86A8C041209F8528D041209F88B8D25
:101CA300041209F8AA8D041209F8F58D041209F833
:101CB3000B8E041209F8188E041209F8518E0412BF
:101CC30009F8638E041209F8538F041209F85E8F22
:101CD300041209F8B68F041209F81990041209F8CE
:101CE3006790041209F87691041209F8DC93041240
:101CF30009F80D94041209F8A194041209F82B951C
:101D0300041209F8F395041209F82D96041209F840
:101D13009B96041209F84B97041209F8759704125D
:101D230009F87F97041209F88997041209F8A5970F
:101D3300041209F80298041209F83B98041209F8EE
:101D43005798041209F88398041209F8A298041208
:101D530009F8DD98041209F8F898041209F8429971
:101D6300041209F85599041209F87099041209F834
:101D7300A099041209F8BD99041209F8069A0412ED
:101D830009F83C9A041209F83F9B041209F840D55C
:101D9300061209F858D5061209F80080061209F848
:101DA3004F80061209F80E82061209F8E78306121D
:101DB30009F82B84061209F83685061209F880867D
:101DC300061209F8A286061209F8EC86061209F82B
:101DD3006E87061209F879E8041209F89CE80412E0
:101DE30009F883E9041209F8CCE9041209F823EA93
:101DF300041209F884EA041209F8D5EA041209F86E
:101E030046EB041209F8D3EB041209F84CEC041264
:101E130009F88DEC041209F8A1F0041209F829F36A
:101E2300041209F862F3041209F8A9F3041209F879
:101E330055F5041209F858F5041209F83FF604128F
:101E430009F87FF7041209F8C8F9041209F856FAD9
:101E5300041209F868FB041209F8BFFB041209F81D
:101E63004CFC041209F804FD041209F86CFE041278
:101E730009F8DFFE041209F8DF94051209F88C95BE
:101E8300051209F81196051209F82096051209F8AA
:101E9300A996051209F80097051209F8FC9705128F
:101EA30009F82598051209F8C698051209F8199931
:101EB300051209F88499051209F8E399051209F83E
:101EC300C39C051209F87A9D051209F8D59D0512E0
:101ED30009F8969F051209F846A0051209F8EAA029
:101EE300051209F84BA1051209F8C6A1051209F854
:101EF30006A3051209F8FCA3051209F823A5051288
:101F030009F832A6051209F8D6A6051209F842A760
:101F1300051209F84AA8051209F8C4DD031209F8E5
:101F230033DE031209F881DE031209F8C9DE031256
:101F330009F81FDF031209F879DF031209F8BADF82
:101F4300031209F845E0031209F89AE0031209F8AD
:101F530019E2031209F88FE2031209F8BEE3031230
:101F630009F8EAE3031209F8FAE4031209F80BE5A6
:101F7300031209F821E5031209F8ACE5031209F885
:101F8300CFE5031209F89CE6031209F8BEE6031233
:101F930009F8D5E6031209F8FBE6031209F81DE771
:101FA300031209F80DE8031209F86FE8031209F8A0
:101FB3001AEA031209F878EA031209F88FEA0312FE
:101FC30009F8E3EB031209F888EC031209F8CEECE5
:101FD300031209F812ED031209F87CED031209F854
:101FE3003CEE031209F81CF0031209F830F1031256
:101FF30009F893F2031209F80AF4031209F8A6F593
:10200300031209F8B4F5031209F8CDF6031209F81F
:102013007AF7031209F8CDF7031209F8E2F703126E
:1020230009F8C7F8031209F8C8F9031209F82DFAD9
:10203300031209F862AD061209F89DAD061209F8FC
:102043005CAE061209F8C2AE061209F833AF0612E7
:1020530009F8B8AF061209F831C0061209F8D6D14B
:10206300061209F8E7D1061209F887D2061209F811
:102073006AC5061209F878C5061209F8EAFF0212C2
:1020830009F8657F001209F8757F001209F88D7F42
:10209300001209F8F57F001209F8D2CF061209F8E9
:1020A30057D0061209F8BDD0061209F84FD306120D
:1020B30009F852D3061209F88BD3061209F8DED3B6
:1020C300061209F8F5FF041209F8F8FF041209F8DB
:1020D300FBFF041209F886A6061209F894A6061255
:1020E30009F80EA7061209F8F2A7061209F8C9A9FA
:1020F300061209F85DD6061209F805B6061209F8A4
:10210300A6B6061209F8E4B6061209F830B70612A5
:1021130009F8F4B7061209F827B8061209F84EB8F9
:10212300061209F860B8061209F874B8061209F81D
:1021330082B8061209F81AF9051209F842F90512CC
:1021430009F85FFC051209F89EFC051209F8E0FC8A
:10215300051209F8F4FC051209F80DFD051209F83A
:1021630025FE051209F8D7FE051209F8F1FE05123E
:1021730009F82FCD061209F853CD061209F86CCDD4
:10218300061209F8ABCD061209F8DECD061209F8DE
:102193000ECE061209F876CE061209F879CE06128B
:1021A30009F883CE061209F890CE061209F858B042
:1021B300061209F880B0061209F8C1B0061209F830
:1021C300DFB0061209F8FAB0061209F862B1061276
:1021D30009F86EB1061209F8CDB1061209F8F9B182
:1021E300061209F808B2061209F82CB2061209F809
:1021F300EDB2061209F8FAB2061209F80BB3061289
:1022030009F81FD6061209F837D6061209F80A96F6
:10221300061209F87997061209F87F97061209F84A
:102223009697061209F8B797061209F8CD97061282
:1022330009F8E197061209F86098061209F8C5989B
:10224300061209F85B99061209F8349A061209F87E
:10225300449A061209F8539A061209F8F7D306129C
:1022630009F81BD4061209F843D4061209F86BD4F3
:10227300061209F898BD061209F8BFBD061209F83F
:10228300DDBD061209F84FBE061209F839B306126E
:1022930009F852B3061209F869B3061209F872B3C2
:1022A300061209F890B3061209F89AB3061209F850
:1022B300A4B3061209F8B7B3061209F83EB406121E
:1022C30009F8B3B4061209F8E1B4061209F832B5F5
:1022D300061209F87EB5061209F899B5061209F82F
:1022E300A3B5061209F8B4B5061209F8FAB5061231
:1022F30009F8EFD4061209F8FFE7051209F82BE8ED
:10230300051209F849E8051209F85CE8051209F80D
:1023130077E8051209F8D6E8051209F804E9051269
:1023230009F8F4EC051209F846EE051209F878EEFF
:10233300051209F8E4EE051209F849F0051209F847
:1023430071F0051209F886F0051209F896F00512E6
:1023530009F8D6F0051209F822F1051209F832F14D
:10236300051209F89ACE061209F8AACE061209F840
:10237300C8CE061209F8E3CE061209F80ACF0612F0
:1023830009F82BCF061209F845CF061209F87DCFBD
:10239300061209F8A0CF061209F8D9D5061209F8D2
:1023A300B1A2061209F8B8A2061209F80EA4061281
:1023B30009F83EA4061209F86EA4061209F8A1A4AE
:1023C300061209F8B3A4061209F8EFA4061209F8D5
:1023D30055A5061209F891A5061209F8D8A5061203
:1023E30009F805A6061209F831A6061209F8BECBAC
:1023F300061209F8E1CB061209F8FFCC061209F818
:1024030002CD061209F805CD061209F8D6D0061238
:1024130009F835D1061209F873D1061209F8B4D1B7
:10242300061209F860F1051209F876F1051209F8A8
:102433002AF2051209F84CF3051209F822F40512E1
:1024430009F8C0F4051209F8FFF4051209F80FF5AD
:10245300051209F836F5051209F888F5051209F889
:1024630013F7051209F818F7051209F83AF70512D8
:1024730009F873FF041209F8A3FF041209F8D8FF3F
:10248300041209F8DAFF041209F8DCFF041209F850
:10249300EDFF041209F8EFFF041209F8F2FF04122A
:1024A30009F8AEC8061209F81BC9061209F83DC996
:1024B300061209F875C9061209F8ABC9061209F81C
:1024C3002EAA061209F871AA061209F88FAA061293
:1024D30009F8C5AC061209F8FDAC061209F822ADDD
:1024E300061209F88ED5061209F89E87061209F816
:1024F3008388061209F87489061209F88589061279
:1025030009F89689061209F8E089061209F87D8B05
:10251300061209F8DE8C061209F80E8D061209F868
:10252300DC8D061209F83C8E061209F834BA031240
:1025330009F840BA031209F89DBA031209F8B5BAAB
:10254300031209F85BBB031209F86CBB031209F809
:10255300DBBB031209F87DBC031209F805BD0312A6
:1025630009F831BF031209F845C1031209F859C22A
:10257300031209F810C3031209F810C8031209F86B
:10258300FDC8031209F88FC9031209F8B4C903126D
:1025930009F859CA031209F876CA031209F897CA47
:1025A300031209F8FECA031209F834CB031209F81F
:1025B30093CC031209F839CD031209F884CD031221
:1025C30009F803CE031209F8B8CE031209F821CF94
:1025D300031209F885CF031209F819D0031209F879
:1025E30086D0031209F8C2D0031209F836D10312B8
:1025F30009F85BD2031209F8C0D3031209F86DD4AA
:10260300031209F8A5D4031209F868D6031209F8CE
:102613005FD8031209F89ED9031209F840D60212B3
:1026230009F8CAD6021209F82CD7021209F890D772
:10263300021209F8A6D8021209F825D9021209F8DC
:102643005FDA021209F80EDB021209F8E7DC021264
:1026530009F8FBDD021209F8BDDE021209F807DFF3
:10266300021209F8C8DF021209F873E1021209F82D
:102673000FE2021209F82BE6021209F831E80212FE
:1026830009F8C8E8021209F821E9021209F872E907
:10269300021209F8F3E9021209F874EA021209F8BE
:1026A3008FEA021209F892F4021209F8AEF6021246
:1026B30009F80BF8021209F87AF9021209F85CFA20
:1026C300021209F828FB021209F88D9C041209F87A
:1026D300189D041209F8579D041209F8D29D04129B
:1026E30009F85E9E041209F8EF9E041209F8579F39
:1026F300041209F818A0041209F820A1041209F819
:10270300B4A1041209F803A3041209F85EA4041285
:1027130009F8E4A4041209F8C8A5041209F8F1A6FB
:10272300041209F83AA8041209F8B5A8041209F822
:1027330083A9041209F84FAA041209F858AB04122A
:1027430009F851AC041209F8BCAD041209F8A6B09B
:10275300041209F88FB1041209F881B2041209F8BE
:1027630051B3041209F8C4B4041209F8B6B604123A
:1027730009F847D1041209F882D1041209F8B2D238
:10278300041209F8FDD2041209F865D3041209F8FA
:10279300C6D3041209F817D4041209F886D4041214
:1027A30009F873D5041209F8FFD5041209F835D6D0
:1027B300041209F871D6041209F898D6041209F81C
:1027C300FBD6041209F816D8041209F8E0D804124B
:1027D30009F81ADA041209F83FDA041209F846DA9A
:1027E300041209F896DA041209F8C3DA041209F894
:1027F3006CDB041209F8AFDB041209F8D6DC04120F
:1028030009F818DD041209F863DD041209F899DDEB
:10281300041209F803E0041209F809E1041209F8A3
:1028230037E1041209F887E1041209F8A9E1041257
:1028330009F8EDE1041209F808E2041209F82CE2A0
:10284300041209F859E2041209F86AE3041209F8B8
:10285300D1E3041209F8EEE5041209F837E604128D
:1028630009F861E6041209F806E7041209F844E7D7
:10287300041209F863E8041209F8A6B7041209F868
:10288300D3B7041209F8F3B7041209F8FDB7041219
:1028930009F807B8041209F811B8041209F811B9B4
:1028A300041209F870B9041209F8FCB9041209F802
:1028B30011BA041209F828BA041209F8D7C004128D
:1028C30009F8F7C0041209F810C1041209F868C125
:1028D300041209F8F2C1041209F83BC3041209F8FF
:1028E30057C5041209F860C7041209F8B6C70412E1
:1028F30009F88BC8041209F8D3C8041209F867C988
:10290300041209F893C9041209F876CA041209F8E3
:10291300BDCB041209F8FFCC041209F856CD0412FA
:1029230009F8AACD041209F807CE041209F881CEDA
:10293300041209F8A8CE041209F85FCF041209F8AB
:1029430069CF041209F82BD0041209F8A0D004129D
:1029530009F8ABD0041209F8B0C1061209F85AC23B
:10296300061209F8AEED011209F8CDEE011209F8CD
:10297300E8EF011209F883F0011209F89CF1011242
:1029830009F8F6F2011209F800F5011209F849F500
:10299300011209F8C4F5011209F8E5F5011209F865
:1029A300E8F5011209F89AF7011209F8E5F801129E
:1029B30009F85CFA011209F886FB011209F826FCF2
:1029C300011209F86AFE011209F8B99E061209F804
:1029D300D79E061209F81B9F061209F8419F06129B
:1029E30009F8689F061209F8809F061209F8989F54
:1029F300061209F8B09F061209F852A0061209F848
:102A030090A0061209F8A4A0061209F8B9A10612AB
:102A130009F8D4A1061209F8DDA1061209F8E6A106
:102A2300061209F8EFA1061209F8F9A1061209F82E
:102A330069A2061209F87FFB021209F86DFF021260
:102A430009F87BFF021209F880FF021209F895D6F4
:102A5300061209F8F3A3021209F87AA3021209F87D
:102A63002CA3021209F857A2021209F81EA202129D
:102A730009F8CDA1021209F852A0021209F8D49F55
:102A8300021209F80A9F021209F8F29D021209F8CC
:102A9300969D021209F8709D021209F8AC9C02126D
:102AA30009F8EF9A021209F88B9A021209F85C9A54
:102AB300021209F8599A021209F82C99021209F81C
:102AC3001398021209F8C896021209F8EF95021238
:102AD30009F86B95021209F87294021209F8CF9360
:102AE300021209F81693021209F843AA021209F80E
:102AF30017AA021209F8F3A9021209F8DFA90212B0
:102B030009F805A9021209F8D492021209F83C92B5
:102B1300021209F8FB91021209F89E91021209F8B8
:102B230036A8021209F86B91021209F8FF900212FB
:102B330009F8CA90021209F86B90021209F80EA65E
:102B4300021209F82D9C061209F83A90021209F8AC
:102B5300EE8C021209F8238C021209F8D88B0212A8
:102B630009F8CC8B021209F82B8B021209F8EF89B2
:102B7300021209F83487021209F8C084021209F814
:102B83007E84021209F84883021209F8DE820212D7
:102B930009F80C82021209F86C80021209F800800D
:102BA300021209F83280021209F8E3A5021209F8A9
:102BB3004C8F0500000080FB000136360101000147
:102BC30002010001030100010401060605020000E1
:102BD300070100340801000F090401010D0100FF82
:102BE3000E08000017020000190100FF1A0100017E
:102BF3001B0100FE1C0100081D0200001F01000153
:102C030020010001210200002301000F2402000023
:102C13002601000127010008280200FF2A010007FE
:102C23002B0102402C0100002D0100012E010001A7
:102C33002F0100FF30010B1C310800003A0100088E
:102C43003B01000F3C010001010371030103010378
:102C53000103010301032203020301031003000321
:102C63000003000300030003000300034203000307
:102C730024030603000300030403120325032303B1
:102C83002503230304030403000300030003440395
:102C930000030003230300036503210035038103BD
:102CA30000030503000300030003000325032303BC
:102CB3000101710101010101110101013101010151
:102CC30001018001100161013B00140063017301E4
:102CD3007201620143010001130106013D01350048
:102CE30004011201000100010001000104010401BB
:102CF300330133013C01440132013600000100017C
:102D03006501000135008101000105018201830194
:102D1300000103047104020460041104700402043A
:102D23000204010402041004610400041404630493
:102D330073047204620443040004130406040004CD
:102D430000040404120400040004000400045104F9
:102D530064000004000400044404000400040004AC
:102D630000046504000435048104640005040004C0
:102D73008304000403027102300160021102700235
:102D83000102020202028002100261023A004100C3
:102D930063027302720262024302000213023800EA
:102DA30000020002040212020002000200020002FA
:102DB30004020402370037003C02440200023900D7
:102DC30000020002650200023502810200020502D0
:102DD30082028302000203007100300160001100CF
:102DE30070003102200350048000100061000000D5
:102DF30014006300730072006200430000001300BC
:102E030006000000000004001200000000000000A3
:102E1300000004000400370037003C0244000000B7
:102E23000000000000006500000035008100000084
:102E33000500000083000000E6250426EC253E255E
:102E4300F2250A26F2251626F8253E25F2250A261E
:102E5300000000000000000000000000000000006F
:102E630000000000FE253E250000000000000000D9
:102E7300000000000000000000000000000000004F
:102E8300000000000000000000000000000000003F
:102E9300000000000000030020015B82000000002E
:102EA3002001568200000100200157820000020029
:102EB300200158820000004042019C810000040070
:102EC30042018080000005004201B280000006003C
:102ED30042015D81000007003001598203000000B8
:102EE30021039E0F36000100060000000F000000C2
:102EF3000000000000000000000003FFFF000004CA
:102F030003FFFF0000FFFF0FF4010005C4040320CB
:102F1300000100000B000000000000000003010F8F
:102F2300000000BA1E1300421E0100BA1E0200F484
:102F33001D0300FA1D0400001E0500061E060012F4
:102F43001E1100361E14003C1E1500241E1F002AED
:102F53001EFFFF0000012E110658110852110B70BD
:102F63001110AA10023411054611073A110C16115B
:102F73000D221164E80EFF000007ECFDFDFDECDC03
:102F8300DCCCBCACAC9C9C8C7C7C6C6C5C5C5C4C8E
:102F93004C3C3C2C2C1C1C03EAF5E5D5D5C5B5A54A
:102FA300959585857575656555554545353525254E
:102FB300151505DE150E16E415EA150816FC15F6AB
:102FC3001514161A1620162C16F015D815D215003E
:102FD300160F00000B150B020002220F3300000E28
:102FE3005A6967426565416C6C69616E6365303926
:102FF30001030507090B0D0F00020406080A0C0D57
:10300300CE16E016E616A215EC169C15A8152E177B
:103013004C175217341740173A17DC14D6141215ED
:1030230018150C15C4140C0E020B040B0A07080028
:103033000F000119161816161823030000034D4C30
:103043004651181A250502303017181921301B1D57
:103053001F30303016181920231A1C1E30003C4034
:10306300423A3F3F392F473002162616461732168B
:1030730038162217F216F8160417FE160204020178
:103083000101010902E814EE14E2141E1500000008
:10309300000000F4140615E803000000BE040AE86B
:1030A30003000000003C003C007F000E000A030305
:1030B300080900100003FF1E1E08050C280C040459
:1030C30004100508150C09C082C0838A828B83E033
:1030D300D2E7F0121D28024D1EC082C08379001270
:1030E300310EEB124594C082C08390043E127AE8FD
:1030F300D083D082C3E09CA3E09D500C1273C0FA2E
:10310300A3E0123113600109024D1EEA1265E722A2
:10311300FBEA75F00BA4FAA8F075F00BEBA428FBFF
:10312300900440E02AF8A3E03B8882F583E0540F43
:103133002274F71204E3890812310EEB1265DDE8FD
:1031430075F00BA4F8ACF075F00BE9A42CF990041E
:1031530040E028FEA3E039FF7401650860067402AD
:103163006508701E8A828B831237C77402650870E4
:103173001C12368E120E22E970138E828F83E4F0B6
:10318300800BEA2403FCEB1237BB120E1CEEFAEFA2
:10319300FB120DE002510C74F41204E3125507798B
:1031A300008E828F83E06076890A890B8065E50A49
:1031B30075F00BA4FAA8F075F00BE50B1231207033
:1031C30046E50A75F00BA4F8AAF075F00BE50B12AF
:1031D30033F78E828F83E0850882850983124C76CC
:1031E300123743EE2403FCEF12369E120E1C1252CA
:1031F3008C126812AA08AB09120DE0790190043E03
:10320300E0F50AA3E0F50BE50A2401F50AE50B3422
:1032130000F50B1236ABE50A9AE50B9B409002577B
:103223005774F51204E3EAFEEBFF750A01740B12FF
:103233000CA7126C1DF509EC4D6015EC12310FED66
:103243001232C97901120DECE50845096074802139
:10325300E508450960431236A51232C91237A31295
:103263000E22E96401701CEEFAEFFB120DF2E9F590
:103273000A850882850983A31255147902AA08AB2B
:103283000980111237B2120E22E9640170347903F6
:10329300EEFAEFFB120DEC80298E828F83A3E0649C
:1032A300FE7003A3E0F4700B1237B2120E22E9642E
:1032B30001700CEEFAEFFB120DF2E9F50A800375CB
:1032C3000A00A90A80191268251265ECEE240B1274
:1032D30032D622125297E8F0A3E9F022120A5D7F58
:1032E300030207AF74F71204E390043E1253AEEAED
:1032F3004B602FEA75F00BA4FAA8F075F00BEBA462
:1033030028FBEAFEEBFF121B189004401253AE9009
:103313000440125DCF6012EEFCEFFD7900121A52E9
:103323008007900440E4F0A3F002510C74F61204F9
:10333300E3E4F508F5097808120A1590043E127AB9
:10334300E81233D6121B907402120A5DE9FE600381
:10335300120E0AEEF9023C2074F61204E374FF1213
:103363000AA87E007F008026851882851983E412CF
:103373003461120A157508017509007808120A15D7
:103383001233D2121B9C7404120A5D123458123485
:103393006B40D57401023C1D74F61204E37E007F7A
:1033A300008024EEF8EF1233EA7808120A15750844
:1033B3000B7509007808120A151233D2121BA27476
:1033C30004120A5D12345812346B40D7023C20EECB
:1033D300FCEFFDEC75F00BA4FCA8F075F00BEDA46D
:1033E30028FD7A237B0022F9E875F00BA4F8AAF0F4
:1033F30075F00BE91235E3F508A3E039F5092274FA
:10340300F61204E37E007F008043EEF8EFF9E875DF
:10341300F00BA4F8AAF075F00BE9A42AF990044084
:1034230012656988828983E0A2E7501EC2E71234DD
:1034330061120A1575080B7509007808120A15122E
:1034430033D2121B9C7404120A5D12345812346B6B
:1034530040B8023C20EE24010EEF3400FF22F08539
:10346300820885830978082290043E1265ECC3EE36
:1034730098EF9922C082C083EC4D600512241E8010
:10348300097C087D007900121A52024D1E74F6124F
:1034930004E37900EA4B601878008808127AD5EBC8
:1034A3001273B660047901780808E8C3940840EA07
:1034B300023C20C082C0837901EC6A7002ED6B602C
:1034C3000EEA4B6009EC4D600512241880011902C5
:1034D3004D1E74F71204E374F3120AA8ECFEEDFF19
:1034E300851882851983E4F004120CA7EAF0A3EB94
:1034F3001250F5120E467403120CA7AC82AD83EE84
:10350300FAEFFB120E1CEEFAEFFB120E220251072A
:1035130074F71204E374F3120AA8ECFEEDFF8518A6
:1035230082851983E4F0EAFCEBFD7403120CA7AA6D
:1035330082AB83120E1C851882851983AA82AB8302
:10354300120E4C7401120CA71265E18E828F831246
:103553004E8574FE68700374FF696004790180020C
:10356300790002510774F71204E3EAFEEBFF120D30
:10357300E6E9F50874016508700F1235C3F4F88A9B
:10358300828B83E058F0120DE00244FB74F71204BF
:10359300E3EAFEEBFF7508008E828F83E0601E1264
:1035A3000DE6E9F5087401650870121235C3F88A4F
:1035B300828B83E0587006E048F0120DE00244FB72
:1035C3001252901265EC1235D7FAA3E039FB8E82C2
:1035D3008F83E022E875F00BA4F8AAF075F00BE9ED
:1035E300A42AF9900440E0282274F41204E38A0820
:1035F3008B097C007D0012368E120E1C1236A5122A
:1036030055107900850882850983A3E064FE700361
:10361300A3E0F460737E007F008064EEFAEF123162
:10362300136059EEFAEFFBEA75F00BA4FAA8F075F4
:10363300F00BEBA428FB900440E02AF50AA3E03B3F
:10364300F50B850882850983A3126478850A828530
:103653000B83A3E06A7003A3E06B7020E50A2403E5
:10366300FAE50B3400FB120E22E9640170061236F0
:1036730097120E1C1237357901127ACC1234581274
:1036830036ABEE9AEF9B4093025757EA2403FAEBCB
:103693003400FB22E50A2403FCE50B3400FD12375A
:1036A300A7221265E5E5092290043E126607C322AC
:1036B30074F31204E38A088B098A828B83A312555D
:1036C3001412310EEB125510750C0012368E120EB9
:1036D30022E9640170577E007F00804CEEF8EFF919
:1036E300E875F00BA4F8AAF075F00BE9A42AF99099
:1036F3000440127B45E0540F602BEEF8EFF91235CE
:10370300D7F50AA3E039F50B123697122418E964AA
:10371300017012850A82850B831237431237357580
:103723000C01127ACC12345812346B40AFA90C023C
:1037330038921265E5E509126825EEF0A3EFF02251
:10374300A31269E4A31232D92274F51204E3EAFE48
:10375300EBFF8E828F83A31255147C007D001237FA
:10376300B2120E1CEEFAEFFB120DE6E9F50A740134
:10377300650A70291250E6F8A3E01233EA8508823D
:10378300F5831237C71237A3120E22E96401700DB5
:10379300E5082403FCE5091237BB120E1C0232C5EF
:1037A3001237A722E5082403FAE5093400FB22EEC9
:1037B3002403FAEF3400FB223400FDEE2403FAEF76
:1037C3003400FB22A31265111232D92274F31204BE
:1037D300E374E6120AA8125507750C017508007503
:1037E3000900750A00750B00851882851983E4F0BA
:1037F300EE2403FCEF3400FD7403120CA7AA82AB82
:1038030083120E1C851882851983AA82AB83120E3C
:103813004CE964017023740B120CA71232CC7401AF
:10382300120CA712650B7003A3E06960548518821C
:10383300851983858208858309740D120CA7124CA0
:1038430075A31265E1740E120CA7124E85740D1246
:103853000CA7AA82AB83120E46E96401700B740DA8
:10386300120CA785820A85830B780A120A15AC0805
:10387300AD09EEFAEFFB120DF87402120A5DE9F5D9
:103883000CEEFAEFFB120E40A90C741A120A5D7FBC
:10389300050207AFC082C083780079008008E8245E
:1038A3000108E93400F91236ABE89AE99B5029E89C
:1038B300FAE9FBEA75F00BA4FAACF075F00BEBA494
:1038C3002CFB900440E02AFCA3E03B8C82F583E0D0
:1038D300540F70CA790080027901024D1EC082C064
:1038E300839030C7E49375F016A4FCADF079FF7AAA
:1038F300527B08121A52024D1E74F61204E3EAF8C0
:103903007508007D008012ED123E51C3994009E015
:10391300FAE8C39A400205080D9030C7E493FAED24
:10392300C39A40E3AA087B00023C2074F01204E32C
:1039330074F3120AA88A0C8B0D8C088D09890AEC82
:1039430045096016AA08AB09120E948A0E8B0FAEB6
:103953000EAF0FEE4F6003023A277B0080010B127C
:103963006808500F123AC070F5745228FE74083973
:10397300FF80047E007F00EE4F7003023A7B90309D
:10398300A6123AA260217403650A60067404650AEC
:1039930070157A047903120E6A9030C7E493FC9091
:1039A30030A6123AA850299030A4123AA260287483
:1039B30001650A60067402650A701C7A02790112B5
:1039C3000E6A9030C7E493FC9030A4123AA84007E3
:1039D3007A007B00023A9F8518828519837401F06F
:1039E300120CA7E50CF0A3E50DF0AC08AD097403C8
:1039F300120CA7AA82AB83120E1C85188285198329
:103A0300AA82AB83120E58740B120CA71249D88EDC
:103A1300828F83A3A3A3A3A3A3E4127AE4AA0CAB88
:103A23000D1213B0780074FF250AC3940450027872
:103A3300048E828F83E50CF0A3E50D12644FE50A33
:103A4300F0E88E828F83A3A3A3A3A3126829120392
:103A53009212411E8E828F83A3A3A3A3A3A3A3F0D9
:103A63001240F774FF250AC3940250081240E11272
:103A73003ACD8003124107F07A047900120E6A8A64
:103A8300089030C7E493FAC3E5089AEB9400400525
:103A9300900FACE4F0121284EEFAEFFB0256E4123C
:103AA3003AB8E84922123AB8ECC398F8E499F9C352
:103AB300EA98EB9922E493F8740193F922EB75F0F9
:103AC30016A4F8A9F0123DC9F422F9EE2414F582E4
:103AD300EF126825E8F0A3E92274F21204E374F309
:103AE300120AA88A088B09ECFEEDFF750A00EEFAAC
:103AF300EFFB120E948A0C8B0DA80CA90DE84970EC
:103B030003023B9E88828983E065087004A3E06515
:103B1300097003023B9E88828983A3A3A3A3E0C306
:103B23009405507788828983126C32123BEC502AB9
:103B33009030A8E493FA740193FB127392E9125341
:103B4300AB9030AAE493FA740193FBE82414F58252
:103B5300E9124594EAF0A3EB8015127392E912552A
:103B630010E82414F582E912459474FEF0A30412BC
:103B73004C697401F0120CA7126C32EEFCEFFD7469
:103B830003120CA7AA82AB83120E1C851882851917
:103B930083AA82AB83120E58750A01A90A740D1207
:103BA3000A5D02656474F61204E3120E8E8A828B38
:103BB30083E5824583600FA3A3A3A3E014C3940406
:103BC3005004790180027900805374F61204E312E1
:103BD3000E8E8A828B83E58245836009123BF05007
:103BE30004790180027900803488828983A3A3A3A6
:103BF300A3E014C394022274F61204E3120E8E8A15
:103C0300828B83E5824583600BA3A3A3A3E07004A7
:103C130079018002790080057402120A5D7F020235
:103C230007AFC082C083EAFCEBFD7A007B00024D44
:103C33001BC082C0837C007D00024D1B74F51204FF
:103C4300E374F3120AA8EAFEEBFF8C088D09C3ECB8
:103C530094F8ED94FF4004EE4F606A750A008019F2
:103C630074FF6508700474FF6509600B1273987024
:103C730004A3E06509603B050A9030C7E493F8E5C7
:103C83000AC3985040E50A123AC160EBEE4F60D088
:103C9300123CD1120CA71250F1120E52E960D874E3
:103CA30003120CA7AC82AD83EEFAEFFB122418E9E2
:103CB30060C5E50A75F016A4F8A9F0745228FA74E1
:103CC3000839FB80047A007B00740D0232DF85180B
:103CD300828519837401F0745428F582740839F5C8
:103CE300831265EC740B2274F41204E374F3120A66
:103CF300A8750800120E948A0A8B0BAE0AAF0BEE5E
:103D03004F601F123D41123CE4120CA71250F112F6
:103D13000E3A7C167D0079FFEEFAEFFB121A52750C
:103D230008017A047900120E6A1240D15009900FEB
:103D3300AC7401F0121284A908740D02575485184B
:103D4300828519837401F08E828F83A3A32274F773
:103D53001204E3E9FC74FE6A700374FF6B7D007068
:103D630003802C0D123DB35026ED123AC160F412BC
:103D73007ED86A7003A3E06B70E98012ED75F016CC
:103D8300A4F8A9F0127ECB6017E0640360120D1251
:103D93003DB35015EC60E5123DBD14C3940450EEE1
:103DA3001276183912647680047AFE7BFF02510C76
:103DB3009030C7E493F8EDC39822ED75F016A4F89C
:103DC300A9F0123DC9221243D9E022120EA6024DD8
:103DD3001EC082C083790180F274F01204E38A0A60
:103DE3008B0B7A047901120E6A8A0C8B0DEA450D4E
:103DF3006043EAC333FAEB33FB121B188A088B09BF
:103E0300AE08AF09EE4F60287AFE7BFF120EAC744A
:103E1300FE6A700374FF6B60208508828509831234
:103E230053AEE5082402F508E5093400F50980DC02
:103E3300750C0080047E007F00850A82850B83E574
:103E43000C1252E50256E9E493F8ECC3982275F09C
:103E530016A4FAABF074562AF58274083BF583E096
:103E63002274F61204E3E4F508F5097808120A153A
:103E73009030C7E493F50874037808120B9D123E43
:103E8300BD121B907402120A5DE9FE740A6E60246F
:103E9300E4F508F5097808120A159030C7E493C3CE
:103EA30033FCE433FD7A3F7B00121B907402120A49
:103EB3005DEE6003120EBE023356E5082402FCE5F4
:103EC300093400FD7A227B002274F61204E374FEA7
:103ED300120AA8851882851983E4F0A3124C698518
:103EE30082088583097808120A1575080275090086
:103EF3007808120A157C007D007A227B00121B9C35
:103F03007404120A5D023C1B74F11204E374D912A7
:103F13000AA87402120CA7858208858309780812FF
:103F23000A157508027509007808120A157C007DC8
:103F3300007A227B00121BA27404120A5DE960035B
:103F43000240C09030C7E493FA7402120CA71265C2
:103F5300E1C3EA98E49950030240C0750800802E3B
:103F63008518828519831266022412124591124B19
:103F73001A12710A123ACDF07A047900120E6A12FB
:103F830040D14005900FACE4F01212840508903044
:103F9300C712640E40030240C07411120CA785823D
:103FA3000A85830B780A120A15750A08750B0078BF
:103FB3000A120A1585080A7403780A120B9DE50A8A
:103FC3002402FCE50B123EC4121BA27404120A5D08
:103FD300E970B97413120CA7E0F47003A3E0F46062
:103FE300AB7404120CA77401F07413120CA71265BE
:103FF300E1740F120CA7124E857404120CA7AA8247
:10400300AB83120E52E96084127AE57411120CA785
:104013001264781213B0E50875F016A4F8A9F074C9
:104023005228FE740839FF7411120CA7A982AA83BF
:10403300890C8A0D750E00780C120A117C087D001C
:10404300EEFAEFFB121A467403120A5D125FAC120A
:10405300039212411E1240F78518828519838582C7
:104063000A85830B780A120A15750A02750B007804
:104073000A120A15E508C333FCE433FD7A3F7B00DB
:10408300121BA27404120A5DE96003023F7B8518C8
:1040930082851983E0F47003A3E0F46003023F63B5
:1040A300E50875F016A4F8A9F01243D5123BF450B5
:1040B300061240E1023F77124107023F7A7402126F
:1040C3000CA7E0F97427120A5D7F070207AF8A0A7B
:1040D3009030C7E493FAC3E50A9AEB940022903038
:1040E300A8123AB8EE24121232D69030AAE493F80A
:1040F30074019322125290E4F0EE240C12413CA37B
:10410300F0A3F022EE2412124115F0EE2414124112
:10411300152212529774FEF0A30422E88E828F8335
:10412300A3A3A3A3A3A3A3A31241447401124144D1
:10413300A3F0EE241012413C22125297E4F0A3F0B4
:1041430022127234A3A3A3A32274F31204E374FE12
:10415300120AA8851882851983E4F0A3F0F50C02EE
:1041630041F3E50C75F016A4F8A9F0745228F50A8A
:10417300740839F50B850C82AE82780A120A15751C
:1041830008087509007808120A158E087403780860
:10419300120B9D123EBD121B9C7404120A5DE50AAC
:1041A3002414F508E50B3400F5097808120A15758F
:1041B30008027509007808120A15EEC333FEE433CA
:1041C300FFEEFCEFFD7A3F7B00121B9C7404120A86
:1041D3005D850A82850B83A3A3A3A3E0F4600F8507
:1041E3001882851983E02401F0A3E03400F0050C64
:1041F3009030C7E493F8E50CC398500302416585FA
:1042030018828519838582088583097808120A151F
:104213007508027509007808120A157C007D007A7A
:10422300227B00121B9C7404120A5D740202388FF5
:10423300C082C0837D008009EA24FF1AEB34FFFBB0
:104243000D123DB35016123DBDC3940550F2EA4B17
:1042530070E6745228FA740839FB80047A007B00F4
:10426300024D1E74F71204E374F3120AA87E0002CF
:1042730042FEEF75F017A4F8A9F0127EAE1265FFA7
:1042830075F016A4FAABF074522AF58274083BF564
:1042930083E0687003A3E069603EEF75F017A4F84C
:1042A300AAF0EAF9127EAE391265DF7401120CA787
:1042B300E0687003A3E069601FEF75F017A4F8EAE4
:1042C300F9742228FC740A39FD7403120CA7AA821C
:1042D300AB83122418E96013EF75F017A4F8A9F063
:1042E300742028FA740A39FB1213BC0F9030B6E419
:1042F30093F8EFC39850030242750E9030C7127AB9
:104303001A501FEE127ED1F47003A3E0F460EB1297
:104313003CD1120CA71250F1120E52E960DC7F005F
:1043230080CA02510774F71204E374F3120AA890C7
:104333000511125DCF70030243D2750800802BE58F
:104343000875F016A4F8EAF9746628F58274081261
:104353007A2164FE7003A3E0F4600D746428F5828F
:10436300740839F58312645D05089030C712640E32
:10437300505DE50875F016A4F8AAF0EAF91243D5E2
:10438300123BF450E3746428F5827408125DCC7018
:10439300AEE50875F016A4F8EAF9745228F8740823
:1043A30039F9E8FEE9FF1244611244721206C91298
:1043B3003D41123CE4120CA71250F1120E52E96077
:1043C300A77403120CA7AA82AB83120EA0809902D2
:1043D30051071243D922745628F582740839F5839C
:1043E3002274F61204E3120E8E8A088B09A808A918
:1043F30009E8496019123BEC5010E82414F582E9EE
:10440300126474127392E91253AB7901800279003A
:10441300023C2074F71204E3EAFEEBFF90050B1253
:104423005DCF6037900511125DCF602F9005151297
:104433005DCF60278E828F831279141206C9E970CB
:104443001A1244611244701206C9E96401700C8E99
:10445300828F83A3A31279011206C902510C9030F3
:10446300AAE493FC740193FD8E828F8322A3A3128B
:10447300660790051112790B22C082C08390044B0A
:104483007440F0A37411F0024D1E74F71204E3EAB2
:10449300FEEBFF900481E06408601BE06404601697
:1044A3008E828F83E054036401704312528C12583E
:1044B30092E0640670388E828F83A3A3E064FE705B
:1044C30003A3E0F460288E828F83A3A3126C507041
:1044D30003A3E069700BEE2415F582EF1273B66047
:1044E300051212008003121206E9F508800375080D
:1044F300C2EEFAEFFB121B1EA90802510C74F41250
:1045030004E38A088B09127106FAE82AFAE43400F4
:10451300FB121B188A0A8B0BAE0AAF0BEE4F6064BB
:10452300850882850983E0FC7D007900121A528E8A
:10453300828F83A3A312551412123C8E828F83A3FE
:10454300A3A3A31253AE850882850983E0F8EE285E
:10455300F8EF3400F912528C124E858508828509D2
:1045630083A3E0C0E012458ED0E0F012124EEE2499
:104573000E124591E91249AEE0C0E0EE2411124556
:1045830091D0E0F0EEFAEFFB025757EE240DF582DF
:10459300EF1268252274F41204E374E8120AA88A5D
:1045A300088B098C0A8D0BE9FE900481E06404609A
:1045B30005E06408700479C28031A37808120C689E
:1045C300EE9004881247B8120C687405120CA7E920
:1045D300F07404120CA77401F07407120CA7E4F032
:1045E30090048174021250F51229F402575274F6A2
:1045F3001204E374E8120AA8EAFEEBFF90044212E5
:104603005DCF60030246B87A077B00121B18900443
:10461300421253AE900442125DCF70030246B48E31
:10462300828F83120C84900443125895120C90EEDF
:104633002404F8EF3400F988828983E0C0E012464D
:10464300BFD0E0F0EE2405FAEF3400FB8A088B09B3
:104653008A82F583E0C0E01246BFA3D0E01250EB9C
:10466300C0E0900442E0FAA3E0CA2406F582EA120D
:104673004594D0E0124C76120C84851882851983F8
:10468300120C9088828983E0C0E07405120CA7D0D5
:10469300E0F0850882850983E0C0E07404120CA76A
:1046A300D0E0F07407120CA7E41250F51229F4803D
:1046B300067910800279017418023C1D900442E0CF
:1046C300FAA3E0F5838A82A3A3A3A322C082C083B3
:1046D300900442125DCF6010900442126478121B62
:1046E3001E900442E4F0A3F012116A12135C024D0F
:1046F3001E74F71204E3E9900446F07A807B00907D
:1047030004CCE0F9122B44120F1E790002510CC0A5
:1047130082C083900446E07003121E30120F1E0203
:104723004D1E74F01204E3900446E0900FAB700446
:10473300E4F0803A7401F0900446E0F46030E0F570
:104743000CE4F50DF50EF50FF09082467808120C87
:104753004A780C79081203F3780C120A0D7A807BDD
:10476300009004CCE0F9121BD87404120A5D7AABF2
:104773007B0F79411229DC0256E974F41204E374C5
:10478300E8120AA88A088B098C0A8D0B900481749D
:10479300011247B8120C687405120CA7E9F07404EF
:1047A300120CA77403F07407120CA7E41250F5124D
:1047B30029F4025752124C6D78082274F71204E35D
:1047C3007C01120F3602510C74F71204E37C008053
:1047D300F174F01204E374FC120AA8E985188285C7
:1047E3001983F0EAFEEBFF8C0A127AE512115E8A56
:1047F300088B09EA4509700579CA02499F8A828BA9
:1048030083A3A3A3A3A3A3A3E064FE7003A3E0F481
:10481300700579C302499F12123C8A0C8B0DA80CB8
:10482300A90D850882850983A3A3A3A3A3A3A3E05A
:10483300687003A3E069700579C202499F90047F01
:104843001269E0E0687003A3E0696012850882855D
:104853000983124B2CAA08AB0979501229DC900466
:104863007F1264781213C2850882850983A3A3A3E8
:10487300A3A3A3A3A3A3A3E004900492124B101237
:10488300241E7402120CA77402F014120CA7AA823D
:10489300AB831212BA8A0C8B0DAE0CAF0DEE4F70B8
:1048A300030249951249C97406F0A3A882A983900B
:1048B300046C12692D1249A41212361253A5EE2468
:1048C30013124591740112681A7440F0A3E412495B
:1048D300AEA3A3A3A3A31249D8EE2411124591E5D5
:1048E3000A1252E5120EF4E9F50B6003024998909F
:1048F30004817409F0E5082407FEE5093400FFEE9E
:10490300FAEFFB794B1229DC8E828F83124B2290B4
:104913000474E0F8851882851983E068600CE090E0
:1049230004741250F579E11229DC90100B1265E141
:1049330090100DE0687003A3E069602890044412AE
:104943004E8590100D1264781212661249B8780CD5
:10495300120A0D7A017B009004CCE0F9121BD87483
:1049630004120A5D7A007B049004CCE0F9122B4414
:104973001249B87402780C120992780C120A0D7A53
:10498300007B049004CCE0F9121BD87404120A5D76
:104993008003750B10900640E4F0A90B74040256D3
:1049A300E6EE24171268227401F022F0850882854E
:1049B3000983A3A32290100D126C1D85080CF50D1D
:1049C300E4F50EF50F221252901249D0221265F02F
:1049D30088828983221268451232D92274F512041F
:1049E300E374E2120AA8851882851983ECF0A3ED1B
:1049F300F0EAFEEBFF8908742C120CA7E0F50A908D
:104A03000481E064046005E06408700579C2024B28
:104A13000B742A120CA7E064FE7003A3E0F4700584
:104A230079C3024B0B90048174031250F579501231
:104A330029DC742A120CA7AA82AB83794B1229DCD6
:104A4300851882851983124B2CE508900474F07441
:104A53002A120CA7124B227429120CA7E0F5099015
:104A6300046C124B1012241E74CE55094480C0E00E
:104A7300741D120CA7D0E0F07401250A900492F083
:104A8300741A120CA77402F0742A120CA71265E1AF
:104A93007412120CA7124B1A1265E1741B120CA7A5
:104AA300124E857410120CA7E508F0740D120CA7B2
:104AB300E4F0900487740FF07A877B047954122909
:104AC300DC900486740FF07A867B0479471229DC24
:104AD300900486E0C3940F50237410120CA7E0C017
:104AE300E07402120CA7D0E0F07404120CA7740156
:104AF300F004120CA7AA82AB83122A007405120CCD
:104B0300A7AA82AB831229E2741E0232DFF0EEFC05
:104B1300EFFD7A937B0422E8F0A3E9124C6D221295
:104B230065EC9004751232D92212762D1232D922F5
:104B330074F71204E3EB900489F012114C02510C48
:104B430074F71204E374E9120AA8EAFEEBFF75088E
:104B5300008E828F83A3A3A3E0C0E07406120CA788
:104B6300D0E0123D49E0C0E07408120CA7D0E0F099
:104B73007409120CA77401124C76125DCF600D8E6E
:104B8300828F83126478120E22E970357407120C37
:104B9300A7E4F01212367404120CA71253AE900459
:104BA30081E06404700E1212427402120CA7EAF040
:104BB300A3EB80517402120CA774FDF0A374FF8061
:104BC30044851882851983AC82AD838E828F8312CC
:104BD3006478120E348E828F83A3A3A3A3E070376D
:104BE3007407120CA77401124C691265E174021266
:104BF3000CA7E8F0A3E9124C761265E17404120CD9
:104C0300A7E8F0A3E9F07402120CA7AA82AB8312FF
:104C130012A2E9F50880488518828519831265E197
:104C2300740A120CA7124E857414120CA7123D4776
:104C3300A3E0C0E07415120CA7D0E0F07416120CB8
:104C4300A7124C75127AE8740C120CA7AA82AB83D4
:104C530012241E740A120CA7AA82AB83121D0AA97E
:104C6300087417025109124C6D22F08518828519B8
:104C73008322E4F08E828F832274F71204E374F8A4
:104C8300120AA8EAFEEBFF7900900481E064086051
:104C930005E06404704585188285198374FDF0A3CB
:104CA30074FFF01212367402120CA71253AE74057D
:104CB300120CA7124C75A3E0C0E07404120CA7D029
:104CC300E0124C76E0C0E07406120CA7D0E0F0745A
:104CD30007120CA7E41250F51212A274080251092C
:104CE300C082C08390045374FCF0A3740FF090044B
:104CF300F97402F0A37413F09004577432F0A374A0
:104D030010F090045974FCF0A3740FF090045B74DA
:104D130038F0A37410F08003120E9AD083D082026D
:104D230009F574F41204E374F9120AA88A088B09CA
:104D33008C0A8D0B8518828519837808120C687488
:104D430004120CA7E9F07405120CA7E4F074061220
:104D53000CA7E41250F5120F06740702575474F6A9
:104D63001204E38A088B098A828B83127ACFEE4F6F
:104D73007003024E80900414125DCF60158A828BFB
:104D830083A3A3E0F9EEFAEFFB90041512589512F2
:104D930006C98E828F83A3A3A3A3A3A3A3A3A3E084
:104DA30064026003024E2E8E828F83A3A3A3A3A368
:104DB300A3E054027003024E52850882850983A33F
:104DC300A3E064E97003024E528E828F83A3A3A3F0
:104DD300A3A3A3A3A3A3A3E07014901023E0048EC2
:104DE300828F83A3A3A3A3A3A3A3A3A3A3F08E82CE
:104DF3008F83A3A3A3A3A3A3A3A3127228A3A3A3F1
:104E0300A37404F090102412683F124E857A207B1D
:104E1300009004CCE0F9121BEAEA4B4C4D700C7A7B
:104E2300207B009004CCE0F9121AAC8E828F83A30E
:104E3300A3A3A3A3A3A3A3A3E0640260128E828F00
:104E430083A3A3A3A3A3A3A3A3A3E06406702E8EAB
:104E5300828F83A3A3A3A3A3A3E0A2E0501F85088B
:104E630082850983A3A3E0F9EEFAEFFB122AF08E01
:104E7300828F83A3A3A3A3A3A3E054FEF0023C2049
:104E8300A3A31232D92274EC1204E374DB120AA82E
:104E9300EAFEEBFF8C108D11750E007405120CA742
:104EA300AC82AD83120D567412120CA7E070087415
:104EB30015120CA7E060207405120CA7E0A2E650BF
:104EC3001B8E828F83A3A3A3A3A3A3A3A3A3126471
:104ED300781212D8E960057903024FD97405120CD0
:104EE300A7E0540C64047005750D018003750D0073
:104EF300E0A2E55033750E01E50DA2E0402A12123F
:104F03003C8A088B09A808A9091250E6687003A314
:104F1300E06960147405120CA71250DC1264741259
:104F23002BAAE96003024FD77405120CA7E0A2E68F
:104F330050227406120CA7E0540370187405120C67
:104F4300A7E0540C640C600CE0540C640860057515
:104F53000C018003750C007405120CA7E05403F8D0
:104F6300740268700C1250DC126474120D680250E3
:104F7300D47401687043E50CA2E050091250DC12AE
:104F83006474120D5C7405120CA7A882A9837403C0
:104F9300120CA7E8F0A3E91265D785188285198357
:104FA300E8F0A3E91250EBC0E07402120CA7D0E0C2
:104FB3001250F5122B920250D4E860030250D490A1
:104FC3000469E0640170158E828F83A3A3A3A3A356
:104FD300A3E0700879041224000250D47424120C44
:104FE300A774021265D7741C120CA7124E85E50C28
:104FF300A2E0500E7405120CA71250DC1264741256
:105003000D5C7439120CA77808120C4AE50DA2E066
:105013004003025099EE240FF582EF1273B6C0E0FD
:105023007417120CA7D0E0F0900416125DCF700332
:105033000250D412123C8A128B13A812A913741CA7
:10504300120CA7E0687003A3E06960030250D478F0
:1050530008120A0DE50EF5087808120A198E828FD8
:1050630083A3A3A3A3E0F5087808120A1978101202
:105073000A15A90C740D120CA7AC82AD837424120B
:105083000CA7AA82AB839004161258921206C97415
:1050930008120A5D803B7808120A0DE50EF50878C0
:1050A30008120A197810120A1590047F12087FEE6D
:1050B300127393EF126C2B7425120CA7AC82AD8381
:1050C300740E120CA7AA82AB83121BE47409120A92
:1050D3005D7425120A5D0278C3AC82AD83EE12655E
:1050E300E7EF22125290E022127230A3E022E8F09E
:1050F300A3E9124C6DAA82AB832274F71204E31264
:105103001CDA8005740D120A5D7F010207AF74F784
:105113001204E3121CEC80F1C082C083121CE6026D
:105123004D1E74F71204E3121CF280DD74F71204AF
:10513300E37409120CA7E0F5087808120A19121C87
:10514300FE740180C1C082C083121D0A024D1EC0BD
:1051530082C083121D10024D1E74F71204E3121D48
:105163001680A674F71204E3EAFEEBFF89087401C4
:105173006508701479001210749030BAE493FC79C6
:1051830000EEFAEFFB120FEA02510C74F41204E37F
:1051930074F9120AA8E9FE8A088B098C0A8D0B742C
:1051A30013120CA7126478900692125DCF6027EE5B
:1051B300851882851983F07401120CA77808120CE4
:1051C30068EAF8EBF97405120CA71250F1900692F5
:1051D3001258921206C9024D5C74F71204E3121DB1
:1051E3002202510C74F71204E3900FAEE0F97E0033
:1051F300800B1273A3540D64017001190E1253F93D
:105203005003E970ED02510C74F71204E3900FAFF1
:10521300E0F97E00800B1273A3548D648170011931
:105223000E1253F95003E970ED02510C74F212049B
:10523300E3890BE975F006A4240CF508E5F03400C6
:10524300F5098A0CE508250CFAE5093400FB121B65
:10525300188A0C8B0DAE0CAF0DEE4F6025AC08AD6C
:10526300097900121A5212528CE50BF0EE2508F858
:10527300EF3509F98E828F83A3A3A3A3A3A3A3125C
:105283004E83EEFAEFFB02656412529022EE240B7A
:1052930012529722F582EF3400F5832274F612043A
:1052A300E3EAFEEBFF120FC6900FADE0F8E9C398F7
:1052B300400990044F126478120FCCEE2402F8EFE9
:1052C3003400F98808890990045112692D9004511A
:1052D300E0041252E5120FD2850882850983E002A9
:1052E3003357F0EEFAEFFB22C082C08379009004BB
:1052F3004F8001091264788A828B83E5824583702B
:10530300F2024D1E74F71204E3EAFEEBFFEE4F6068
:105313005690044F125DCF604E888289837A007B5A
:1053230000EE65827003EF6583600FAA82AB831280
:1053330049CCE5824583602F80E790044F126602D3
:10534300687002EF698E828F8370081265E19004A2
:105353004F800312763CE8F0A3E91252E5122B6268
:10536300EEFAEFFB121B1E02510CC082C0839004A5
:105373004F800488828983125DCF600B8882898382
:10538300127AE8EC4D70EC8A828B83E4F0A3F0E8A8
:1053930049600688828983800390044F1253AE02CA
:1053A3004D1EEE241AF582EF126825EAF0A3EBF006
:1053B3002274F71204E390044F80048A828B8312D1
:1053C30053F44B60257E0080010E1253F950ECEE2E
:1053D30075F006A4FCADF0EA2CFCEB3DFDEC2410CB
:1053E300F582ED12545670E180047A007B0002517D
:1053F3000C126607EA2212545FEEC3982274F71266
:1054030004E37D0080010D12545BEDC398503DED24
:1054130075F006A4FEA8F0E8FFEA2EFEEB3FFFEED0
:105423002410F582EF12545670DCED75F006A4FEDD
:10543300E8FFEA2EFAEB3FFBEA1273BBEB1273B6FB
:105443004CF0EA240CFAEB3400FB80047A007B0076
:1054530002510C1273C9692212545F22EA240BF51C
:1054630082EB12529AE0F82274F61204E31210DA75
:105473007B00801CEB75F006A4F8A9F0126934A335
:1054830012643BA3E41256C8A3F0A3126449F00BC1
:105493009030BE12680B40DC7A0080188A087509C8
:1054A3000074037808120B9D126416126977A3A384
:1054B300A3E4F00A9030BCE493F8EAC39840DD79A2
:1054C300008019890875090074037808120B9D740C
:1054D30048127AD6740D3509125512099030B41258
:1054E300707D40DF9006CBE49390045DF09082469C
:1054F3001208777A107B009004CCE0F9121BDE745B
:1055030004023C1DEAFEEBFFEE1265E7EF3400F503
:105513008374FEF0A304F02274F01204E374F51212
:105523000AA88A088B09890A8C0BE9A2E050147532
:1055330008FC7509FFA2E15005D2E40255F1D2E35C
:105543000255F11210C28A0C8B0DA80CA90D900400
:1055530072E0687003A3E069600EAC0A7902AA08DE
:10556300AB091210BCE9700579000256C4E50AF5CF
:105573000C780C120A1979027CFE7DFFAA08AB098C
:1055830012103E7401120A5DE960030256C2E50A75
:10559300C2E5F50A9004BFE07056E50AA2E6405062
:1055A3007403120CA7AC82AD83AA08AB09120E2EAA
:1055B300E9703790047F1273DA12139E8A0C8B0DF5
:1055C300AE0CAF0DEE4F6028EE2402FAEF3400FB71
:1055D300120E22E9601AEE2402FCEF3400FD74037C
:1055E300120CA7AA82AB8312241EE50AD2E5F50AA0
:1055F300900452E0F50C900472125886780E120A49
:10560300157D017C00900452E0F9AA0EAB0F121035
:10561300807402120A5DE9F8900452E004F0E86035
:10562300030256C2E50AA2E55004740E8002740612
:10563300C0E07401120CA7D0E01250F51212BA8A1E
:105643000E8B0FAE0EAF0FEE4F60701249A4121205
:10565300361253A51249C97401F07478550AA3127E
:10566300695FA3E50C1256C8E508F0E5091256D3A5
:10567300E4F0E50AA2E550147403120CA7AC82AD62
:1056830083E82406FAE93400FB12241E8E828F83FA
:10569300A3A374FDF0A374FFF0E50B60159030BB7A
:1056A300E493F8E50BC3985009EE2413124591E5F2
:1056B3000BF0EEFAEFFB120EF480067910800279FC
:1056C300C7740B801E1256CC22126449A3A3A322D3
:1056D30088828983A3A3A3A31256DF22126985A319
:1056E30022740D120A5D7F080207AF74F41204E3FB
:1056F3007A007B109004CCE0F9121BEAEA4B4C4D84
:1057030060089004DE7401F08043900767E0640151
:105713009010207006E0FC79018004E0FC79037AA4
:10572300007B00120FEA9030A2E493F50874019312
:10573300F509E4F50AF50B7808120A0D7A007B10D7
:105743009004CCE0F9121BD87404120A5D8005742E
:1057530018120A5D7F040207AF74F01204E38A088B
:105763008B098C0A8D0B890C1212D8E960057AFF1C
:1057730002584A90101FE06402600302587690308A
:10578300B2E493F9AA08AB091210ECE960030258DA
:10579300707900AA08AB091210C2A90C1210B68ABC
:1057A3000E8B0FAE0EAF0FEE4F700302585C8E825E
:1057B3008F83A3A3A3A3A3126F9170731264788E34
:1057C300828F83A3A3A3A3A3A3E05418604D9030B7
:1057D300B9E4938E828F83A3A3A3A3F07410120C56
:1057E300A7127AE87412120CA7125886EA650A7097
:1057F30003EB650B6012EA6C7002EB6D600AEA65FD
:105803000E7003EB650F701B780E120A15AA0AAB14
:105813000B1213DA7402120A5D800890047112727B
:105823001FA3F074FE6A700374FF6B601E8051A3A4
:10583300A3A3E06403602A8E828F83A3A3A3A3A3FD
:10584300E0640470067AFE7BFF80358E828F83A32B
:10585300A3A3A3A3E0640270089004BEE0640270F3
:10586300127907AA08AB091210ECE96006AA08AB83
:1058730009800DAA08AB099004531258921206C965
:105883000256E9E0F50EA3E0F50F22FB900455E084
:10589300F8A312790E2274F71204E3EAFEEBFF1267
:1058A3000E7CE9700AEEFAEFFB120E88E96006EE51
:1058B300FAEFFB80047AFE7BFF02510C74EE1204B4
:1058C300E38A0A8B0B8C0C8D0D890E75080012125E
:1058D300D8E979006003025A28AA0AAB0B1210C256
:1058E300A90E1210B68A108B11AE10AF11EE4F60D5
:1058F300198E828F83A3A3A3A3A3E06402705590A0
:1059030004BEE064027003025A26AA0AAB0B900499
:10591300591258921206C9120E8E8A108B11A810B2
:10592300A911E8497003025A2688828983A3A3A395
:10593300A3A3E0A2E04003025A26750901A2E150A5
:105943004B7901AC0AAD0BAA0CAB0D12101AE9701E
:1059530047025A268E828F83A3A3A3A3A3E06403E3
:1059630060258E828F83A3A3A3A3A3E064016003B6
:10597300025A2679078E828F83A3A31264781210AA
:10598300ECE96003025A2675090280108882898334
:10599300A3A3A3A3A3D2E1F0EE4F603A8E828F8339
:1059A300A3A3A3A3A3A3E05418602B7508018E82BD
:1059B3008F83A3A312087F7510FE7511FF78101251
:1059C3000A157900AC0AAD0BAA0CAB0D1210CE74FC
:1059D30004120A5D804D7900AA0CAB0D1210C28A25
:1059E300108B11A810A911900472E0687003A3E052
:1059F3006970149030BAE493FCA90EAA0AAB0B1297
:105A03000FEA750801801CA909AC0AAD0BAA0CABFF
:105A13000D12101AE9700C750801A90EAA0AAB0B36
:105A2300121074A9088003120A5D7F0A0207AF747B
:105A3300EB1204E374F0120AA88A0C8B0D8C088D08
:105A4300097512069004FF125DCF601A90047F124D
:105A530073DA1213C88A108B11EA451160088A821F
:105A63008B83A3E0606DE50C241DF50EE50D34007A
:105A7300F50F850E82125FBEF51488828983A3A376
:105A8300A3E0FA88828983A3A3A3A3E0F9EA24000D
:105A9300FEE439FFAA08AB0912107A850E82850F3E
:105AA30083125DB1E029F50BE50AA2E550037512F7
:105AB3000E7487550A70177418550A6418600FE539
:105AC3000C2417F582E50D1273B66512600A79018D
:105AD3001224007900025DA7530A78C3EE94F8EF0D
:105AE30094FF50247900EEFAEFFB1210B68A0E8B66
:105AF3000FA80EA90FE849600F88828983A3A3A387
:105B0300A3A3A3E0541870CB7808120A157D00AC48
:105B13000BA91412646D1210807402120A5DE9F865
:105B230074036860AE7425120CA7127ADB6003025B
:105B33005BFF7418550A7003025CC3E50AD2E0F5F3
