:020000040000FA
:0600000002139C02088BB4
:03002B000210615F
:03004B00020FF2AF
:030053000207BFE2
:03005B000210018F
:0300630002100D7B
:1000830002081F01FF01010503010F10FEFF0E1EF1
:100093000E1E0E1E0E1EBE1CB81C0E1E5137000077
:1000A3000000873600000000FF000000FF0001FF92
:1000B300FF0101004906000000E803C206E80364EB
:1000C300006400B8010202000800000502070401F1
:1000D300051E02051E020A0A0103B80B02803E0137
:1000E30002E8030A050001FFFF01140020FD0002DE
:1000F30006FFFFFF00FE0D5EC05EE102010F8301FC
:100103000D830DC40E0000005C2D622D682D6E2D35
:10011300742D7A2D802D862DA02BA62BAC2BB22BE4
:1001230000008C2D922D000000000000AA2AB02AA6
:10013300B62A982A9E2AA42AC22A862A8C2A922A76
:100143000000C82ACE2AD42ADA2AE02ABC2A0100CF
:10015300000000000000476C6F62616C5363656EC2
:100163006500000000001F00000000000000000008
:10017300000000000000000000000000000000007C
:10018300000000000000FE6B617D60011900002388
:100193000F000B04010201020713810000000C048D
:1001A300010002020000000000000B5EC00002021A
:1001B30000CE2DD42DDA2DE02DE62DEC2D0000F20E
:1001C3002D000000000000000000000100B0423BD1
:1001D300AAB83F0000003F8C906339AA0CA33A00F1
:1001E300941E3C8042633DCFFE753E1572313F0045
:1001F30000803FF304353F8096184B2292D43EDDB6
:100203009B2A3F04000040FFFF7F7FFFFF7FFF012A
:100213000080341872313F1213E860461213BB603A
:100223003DE9687008F618F618F618F62274806728
:10023300F712024E090909748067F7221213BB6093
:100243001D1213E87005191919801A121224701F50
:1002530012124EC37003E6673319191940071818B1
:10026300182208080874FFF618F618F618F6221272
:10027300124E6017121427702192F0121431701964
:10028300501720F014080808090909E7F61819E7B8
:10029300F61819E7F61819E7F62212143160E6E8A2
:1002A30069701F0808E62480F608E436F618547FC0
:1002B300B47F0CE654806007F6E418F618F62218AB
:1002C3001822E9C6CC08C6CD08C6CE08C6CFC0E002
:1002D300E8C0E0EAC0E0EBC0E009E9F809E7FA09A1
:1002E300E7FBE6F918E6F8C3EC98ED99EE9AEBC252
:1002F300E7F5F0EFC2E795F0500E600CEBCFFBEAA9
:10030300CEFAE9CDF9E8CCF8EAA2E7D2E7FAEB3383
:10031300FB13F5F0EEA2E7D2E7FEEF33FFC5F013D0
:10032300A2E730E601B313C5F0C3C0E0C0F07F001D
:10033300C39BFB605E9418600F401D14601AD0E0ED
:1003430023F9D0E0F80204208AF0E9486003D2F0F0
:10035300E4AFF0FAF9F8803BEB30E40D89F0EA60A2
:1003630003D2F0E4AFF0F9CAF8EB30E30D88F0EF15
:100373006002D2F0AFF0E4CAC9F8EB54076014FB93
:10038300C3EA13FAE913F9E813F8EF135002D2E0C2
:10039300FFDBEDD0E0C0E030E739C3E49FFFF5F0C9
:1003A300EC98FC42F0ED99FD42F0EE9AFE42F0D05B
:1003B300E0F9D0E0F8E5F0607AE923F9EE20E742CE
:1003C300D8028067C3EF33FFEC33FCED33FDEE332C
:1003D300FE80EAEC28FCED39FDEE3AFED0E023F98D
:1003E300D0E0F84002801BC3EE13FEED13FDEC13C7
:1003F300FCEF135002D2E0FF08B800067F7F74FFC2
:10040300802EEF3350178CF020F00260100CBC00EC
:100413000C0DBD00080EBE000408E860DFE933E8F8
:1004230013FFEE2313FE4F4D4C8008E95480FFE485
:10043300FEFDFCEE33EF33F47004FCFD7E80D0E070
:10044300FBD0E0FAD0E0F8D0E0CFC618CEC618CD86
:10045300C618CCC6F9221213BB700418181822123E
:1004630013E8700D74FFF61819F61819F61819F633
:1004730022E7548066F6121431700F12142770F0BD
:1004830014F608F608F608F680D1121427700CF655
:1004930008F608768008E6447F80EC121251700C4F
:1004A30012122760BFE65480F6E480BB1212277055
:1004B3000519191980A5E869700C763F187680181C
:1004C300F618F6E8F922E6CDC0E018ECC0E0E63312
:1004D300CD33CDD313F6E719FCE7191933CC33C366
:1004E300947F400ECD9D502408E65480F6E418F620
:1004F300800FF4043D14501408E6447FF618768008
:10050300E418F618F6D0E0FCD0E0FD22CCD313CCEF
:10051300FD18E4C6CBC0E018E4C6CAC0E00808ED85
:1005230008C633E613F618E433C675F003C3CA9757
:10053300CA09CB97CB199C40047D08802EBD0003CC
:1005430002060216B6FF050606081618C3CA33CA02
:10055300CB33CB33CA27CA09CB37CB193CC37D086E
:10056300803E187D0820E75CC633C6CA33CACB3346
:10057300CB33DDF1D5F0EB30E77BCA97CA09CB97D4
:100583004ACB199C406F4B7025E620E0218066180A
:100593007D08C3CA97CA09CB97CB199CD3C633C668
:1005A300CA33CACB33CB3350C9DDE7D5F0E1D3E44B
:1005B300C636C608C636C608C636C608C636C61800
:1005C30018188031C3CA97CA09CB97CB199CB3407B
:1005D30097C633C6CA33CACB33CB33DD34D5F02EFB
:1005E300C6A2E0C640C8CA27CA09CB37194A70BE9B
:1005F300CB3CB480B90808E63308E633601F18180B
:1006030018D0E0FAD0E0FBD0E0FCD0E0FD22187D6A
:1006130008CA27CA09CB37CB193CD3808013F618F5
:10062300E4B67F11F618B6FF0EF618C60470D208AA
:1006330008768080CAF618F618F680C5001213BB38
:10064300604F1213E86012E7548066F612122470AA
:1006530011121427703B090909F4F618F618F61855
:10066300F62212124E701512143108080860EAE6D9
:10067300447FF618768018E4F618F62212143160D7
:10068300161214277012E4F608F608F608E65480EA
:10069300F609090918181822EAC0E0EBC0E0ECC01B
:1006A300E0EDC0E0E687F0A4FBACF008E687F0A439
:1006B3002CFCE435F0FA1809E687F0A42C4B600211
:1006C3007401CA35F0FCE433FB09E687F0D2F7A4E2
:1006D3002CCB35F0FC1908E687F0A42BCC35F0FBC6
:1006E300E433FD0819E687F0D2E7A42C4ACB35F0B2
:1006F300CD3400FC09E687F0D2E7A42DCC35F0FD1C
:10070300E433FA0918E687F0D2F7A42CCD35F0CA02
:100713003400FC08E687F0D2E7D2F7A42ACC35F000
:100723007A7E20E70B0ACB33CBCD33CDCC33CC331E
:10073300CB3350147004ED30E00ED2F1E4CD3DCD57
:10074300CC3CCC3B5005DA05C2F1EB547FC63308F1
:10075300E63392F0FBE73309E733C39A502D2B704E
:10076300190C0D4C4D70151806E608C333700D2097
:10077300F10AA2F013F6E418800B4024E4F630F0FB
:1007830002768018F618F618F68024D33B1450101E
:1007930074FFA2F013F6187680E418F618F6800FAB
:1007A300A2F013F618E63303F618ECF618EDF6D0BC
:1007B300E0FDD0E0FCD0E0FBD0E0FA22C0E074F131
:1007C300120BAAA2AFE433FED2AFE5A7FFE5A1F572
:1007D300085FF5097410550960061226A875A1EF84
:1007E3007408550960081226AE75A1F78024E50840
:1007F300A2E092F0EFA2E082F05017906198E0F847
:10080300900823E0C398A2D265D0335002E8F07574
:10081300A1FEEEA2E092AF7F02020C09C0E074F2E7
:10082300120BAAA2AFE433FED2AF9061A4E0F87535
:100833009B00E59158540860087591F712270280D0
:1008430023E59158541060087591EF12270880141E
:10085300E591A2E092F0E8A2E082F05007E0C2E066
:10086300F012284C9061A3E0F8E5E9585404600EB7
:1008730012282275E9FB906193E0A2E640F2EEA212
:10088300E092AF7F01020C09C0E074F2120BAAA23E
:10089300AFE433FED2AF9061A5E0F8E5BF5854044E
:1008A300600675BFFB12286480D4C3E498F8E4990A
:1008B300F91208EE8026C3E49AFAE49BFBE920E7E9
:1008C300E91208EEE498F8E499F922C3E498F8E40D
:1008D30099F91208EEE498F8E499F9C3E49AFAE472
:1008E3009BFB22EB20E7CFE920E7E0B90010BB0038
:1008F30008E88AF084F8AAF022E4FBC8FA22EB7035
:10090300227B10C833C8C933C9335007C39AC3DB2A
:10091300F280069A50012ADBEAC833F4C8C933F4DB
:10092300C9FA2275F008E4C833C8C933C933C99A70
:10093300C99B5004C92AC93BD5F0ECFBC833F4C8A2
:10094300E4C9FA2212098720F01430E72B74FFFC64
:10095300FBFA747F8022E4FCFBFA7480801AB48073
:1009630008BC00F2BB00EF800F50EBF9E4C39AFA26
:10097300E49BFBE49CFCE499C6CC18C6CB18C6CA1E
:1009830018C6F922E4C9C608CAC608CBC6D33303BE
:1009930008CCC63392F0C3947F402E94184019C9F3
:1009A300B90704CACBCC225025C309CA33CACB33F7
:1009B300CBCC33CC33D9F422F4600DC9CCC313CBE5
:1009C30013CBCA13CAD9F6CC22E4FCFBFA2214FCDB
:1009D300FBFA22080808EAC0E0EBC0E086F0E7A4CF
:1009E300FA180986F0E7A42AFA180986F0E7A42A78
:1009F300FA180986F0E7A42AFA1986F0E7A4FBE5BA
:100A0300F02AFA190886F0E7A42BFBE5F03AFA1965
:100A13000886F0E7A42BFBE5F03AFA18180986F0EC
:100A2300E7A4C5F02BFBE43AFA1908E7C5F0C6A41E
:100A330026F6E5F03BFBE43AFA1886F0E7A4F6E580
:100A4300F00826F6E43B08F6E43A08F6D0E0FBD0DB
:100A5300E0FA22080808E630E711121277120A6E4C
:100A6300080808C64480C618181822181818E97907
:100A73009EC608CAC608CBC608CCC6C370207996E2
:100A8300CACBCC7019798ECBCC70137986CC700E0F
:100A9300F9802ACA33CACB33CBCC33CC331930E7F2
:100AA300F2CCCBCA3350147004EA30E00DE4CA3AF6
:100AB300CACB3BCBCC3CCC500209C3E913C6CC1800
:100AC3002313C6CB18C6CA18C6F922E4CFC0E0E484
:100AD300CEC0E0E4CDC0E0E4CCC0E075F020C3E6D6
:100AE30033F608E633F608E633F608E633F6181865
:100AF30018EC33FCED33FDEE33FEEF33FFC3EC971D
:100B030009ED9709EE9709EF97191919400FFFECB3
:100B130097FC09ED97FD09EE97FE191906D5F0BE6E
:100B2300ECF709EDF709EEF709EFF7191919D0E01A
:100B3300FCD0E0FDD0E0FED0E0FF222518C582C046
:100B4300E0E51934FFC583C0E0E518C3958224F8B6
:100B530010AF0885831985821880088583198582DB
:100B630018D2AFCEF0A3E520F0A37808E608F0A3EF
:100B7300DEFAEFF0A3E58124FAF8E608F0A3E6082D
:100B8300F0A3E608F0A30808E608F0A3E608F0A33C
:100B930015811581D0E0FED0E0F81581158115810E
:100BA300E8C0E0EEC0E022C0D02518C582C0E0E571
:100BB3001934FFC583C0E0E518C3958224F310AF51
:100BC300088583198582188008858319858218D240
:100BD300AFC8F0A3E9F0A3EAF0A3EBF0A37908E729
:100BE30009F0A3D8FAECF0A3EDF0A3EEF0A3EFF035
:100BF300A3D0E0F0A3D0E0F0A3D0E0F0A3E520F091
:100C0300A3E5F0F0A322851983851882E0C0E0A351
:100C1300E0F9A3E0FAA3E0FBA37808E0F608A3DF7A
:100C2300FAE0FCA3E0FDA3E0FEA3E0FFA3E0C0E045
:100C3300A3E0C0E0A3E0F5D0A3E0F520A3E0A3F593
:100C4300F010AF088583198582188008858319857C
:100C53008218D2AFD082D083D0E0F8D0E032121421
:100C63001CB90003020CA3E49004017840790C80C2
:100C730002F0A3D8FCD9FA900F40AA82AB8390006C
:100C830086789579028015E493A3AC82AD838A823A
:100C93008B83F0A3AA82AB838C828D83D8E9D9E7B7
:100CA30075826A7583987406121100758280758344
:100CB30030740012110012127A181818120ACE1288
:100CC300134B1919192212134B191919080808E69D
:100CD30018181820E7E0120ACE12127A18181822F0
:100CE300090909E719191920E7DC080808E61818A3
:100CF3001820E703020ACE12127A181818120ACE25
:100D030012127A18181812134B1919192275F010A8
:100D13008E1A8F1B85821F85831E851882851983F2
:100D2300E0CEA3E0CF851F82851E83EBC9EAC8ED21
:100D3300CBECCAC3E833C8E933C9EA33CAEB33CBD4
:100D4300C3EA9EF51DEB9FF51CB35004AB1CAA1D13
:100D5300EC33CCED33CDD5F0DAAE1AAF1B22121340
:100D6300BB601C1213E860171214317007121427AA
:100D73007001D322C0D01214277006D0D0B322C37F
:100D83002233D0D0501430E0F6C3E7960809E79633
:100D93000809E7960809E796B32220E0D5E6970805
:100DA30009E6970809E6970809E697B3221213BBE9
:100DB300601B1213E86016121431700712142760B7
:100DC3000CB322C0D01214277005D0D022C3223313
:100DD300D0D0501330E0EBC3E7960809E796080933
:100DE300E7960809E7962220E0E4E6970809E697E4
:100DF3000809E6970809E69722D083D082ECC0E081
:100E0300EDC0E0E493A3FCE493A3FDED4C600D126D
:100E13000ED4EC24FFFCED34FFFD80EFE493A3FC40
:100E2300E493A3FDED4C600D120F9DEC24FFFCED4C
:100E330034FFFD80EFD0E0FDD0E0FCE493A3C0E0FD
:100E4300E493C0E022851983851882E0A3FEE0A322
:100E5300F5207808E0A3F608DFFAE0A3FFE0A3C0DB
:100E6300E0E0A3C0E0E0A3C0E0E0A3C0E0E0A3C0F3
:100E7300E010AF088582188583198008858218855C
:100E83008319D2AFD083D082021106D083D082E9F6
:100E9300C0E0E493A3C386F0C5F095F0F908E493AA
:100EA300A386F0C5F095F0700BE493A3C3994005B6
:100EB300E9048002A3E475F002A42582F582E5F03B
:100EC3003583F583D0E0F9E493A3C0E0E493C0E075
:100ED30022C0E0C3E49396087401939618400FE48C
:100EE3009366700808740193661870007019A3A3C1
:100EF300C3E49396087401939618A3A3400DD0E01E
:100F0300D0E0D0E0020E38A3A3A3A3A3A3D0E02292
:100F13007404800474028000CCC0E0EDC0E0E518E6
:100F2300C39CCCAD1950011D10AF068C188D1980D0
:100F3300068C188D19D2AF121082D0E0FDD0E0FCE0
:100F43002274028000CCC0E0EDC0E0E518C39CCC65
:100F5300AD1950011D10AF068C188D1980068C1821
:100F63008D19D2AF12103FD0E0FDD0E0FC22121356
:100F7300BB60251213E8602012143170030214279A
:100F8300080808E76670101819E766700A1819E769
:100F93006670041819E76622F422C0E0C0F088F0F6
:100FA300E4936670080874019366187000A8F0A3B0
:100FB300A3700BD0F0D0E0D0E0D0E0020E38A3A3B2
:100FC300D0F0D0E022D083D082CCC0E0E493A36001
:100FD300061210E11470FAE493A360061211B91417
:100FE30070FAD0E0FCE493A3C0E0E493C0E022C035
:100FF300E074F2120BAA1225E27F01020C09C0E091
:1010030074F2120BAA1225E880EFC0E074F2120BFF
:10101300AA1225EE80E3C008C3E096F50808A3E012
:1010230096420808A3E096420808A3E0964208A265
:10103300D265D033E5087001D3D00822CAC0E0E4FA
:1010430093A3C582CCC582C583CDC583F0A3C582D6
:10105300CCC582C583CDC583DAE5D0E0CA22C0E022
:10106300C0D0E8C0E0E9C0E0E5A8D2AFC2C7A2E7BC
:10107300A2E792AFD0E0F9D0E0F8D0D0D0E032CA06
:10108300C0E0E0A3C582CCC582C583CDC583F0A3F0
:10109300C582CCC582C583CDC583DAE6D0E0CA223A
:1010A300C008C3E096F50808A3E096420808A3E049
:1010B30096420808A3E09645087001D3D008227031
:1010C30009080808226016181818C6C333C608C6CC
:1010D30033C608C633C608C633C6D5E0EA22C0E025
:1010E300E493A3D39C5010E493A3C39C400AD0E0A1
:1010F300D0E0D0E0020FE5A3A3A3D0E022C09FF588
:101103009FE473D09F22D083D082C09FE493C0E03A
:10111300740193C0E0740293F59F227404800A74EF
:10112300038006740280027401C0E0F404121139D2
:10113300D0E01213F7222518F58210AF08F51840F6
:101143000215198008F51840021519D2AF851983C5
:1011530022BB0102E722C082C08389828A83BB004B
:1011630003E08002E493D083D08222C0D0251810FC
:10117300AF08F518500205198008F5185002051933
:10118300D2AFD0D0226016080808C6C313C618C64B
:1011930013C618C613C618C613C6D5E0EA22C3E0A1
:1011A300C696F608A3E0C696F608A3E0C696F60828
:1011B300A3E0C696F622C0E0E493A36C7009D0E0E6
:1011C300D0E0D0E0020FE5A3A3D0E022251810AFB2
:1011D30008F518400215198008F51840021519D2B0
:1011E300AF22C3E09608A3E09608A3E09608A3E025
:1011F30096A2D265D03322C3E7960809E796080979
:10120300E7960809E796A2D265D03322E06670100C
:1012130008A3E066700A08A3E066700408A3E0660A
:1012230022181818E6084608700AE608C333700542
:10123300E633F4220822E76670100809E766700AAD
:101243000809E76670040809E76622191919E7090E
:101253004709700AE709C3337005E733F42209220B
:10126300C3E49396087401939608740293960874E2
:1012730003939622181818E4C396F608E496F60822
:10128300E496F608E496F622C3E697F60809E6978D
:10129300F60809E697F60809E697F622C3E096F002
:1012A30008A3E096F008A3E096F008A3E096F022E6
:1012B300E056F008A3E056F008A3E056F008A3E0D8
:1012C30056F022E647F60809E647F60809E647F628
:1012D3000809E647F622E627F60809E637F608097D
:1012E300E637F60809E637F622700422600D18C6C1
:1012F300C333C608C633C6D5E0F41822E056F60851
:10130300A3E056F608A3E056F608A3E056F622E05B
:1013130026F008A3E036F008A3E036F008A3E03691
:10132300F022E657F60809E657F60809E657F608E5
:1013330009E657F622E026F608A3E036F608A3E00E
:1013430036F608A3E036F622E4C397F709E497F7E5
:1013530009E497F709E497F722C6F4C608C6F4C66A
:1013630008C6F4C608C6F4C622600D08C6A2E71371
:10137300C618C613C6D5E0F322C3E09608A3E096C9
:1013830008A3E09608A3E09622C3E7960809E79628
:101393000809E7960809E7962275D000758140751C
:1013A300180175190400020C61E6F008A3E6F008C1
:1013B300A3E6F008A3E6F022E6084608C3134608AE
:1013C300336002E633F422600C08C6C313C618C6A2
:1013D30013C6D5E0F422E0F608A3E0F608A3E0F68E
:1013E30008A3E0F622E7094709C31347093360025C
:1013F300E733F422CAC0E0E6F0A308DAFAD0E0FA51
:1014030022EAF0A3EBF0A3ECF0A3EDF022E0FAA3C1
:10141300E0FBA3E0FCA3E0FD22E5C754F84401F59B
:10142300C7790122E7C33319471947194722E6C38E
:1014330033184618461846222518F582E43519F55F
:101443008322C2AF75D69F020000221211098CBC01
:1014530002121109D4BC021211091DBD0212110995
:101463005ABD02121109BEBD021211092ABE02128F
:10147300110946BE021211097ABE02121109C5BE34
:1014830002121109C2BF0212110979C00212110915
:1014930008C3021211094DC402121109FAC402123F
:1014A30011098AC502121109AEC50212110960C6DB
:1014B300021211092DC702121109F6C802121109ED
:1014C30034C902121109ABC9021211090ACB021263
:1014D3001109B7CB02121109F8CB0212110910CC72
:1014E30002121109C2CC0212110988CF021211098A
:1014F3001CD10212110940D1021211095ED102124C
:10150300110947D20212110904D60212110922D677
:10151300021211090080031211091280031211092A
:101523006A8003121109D080031211095A81031230
:1015330011091D8203121109658203121109918297
:1015430003121109D18203121109388303121109FD
:10155300AD8303121109C68303121109EC8303122D
:1015630011090B84031211094984031211099E8482
:1015730003121109C58403121109228503121109EB
:10158300E9850312110982860312110905870312E3
:101593001109CD8703121109168803121109328824
:1015A30003121109648803121109128A0312110923
:1015B300DE8A03121109038B03121109308B031204
:1015C30011095B8B031211096A8B03121109758BC5
:1015D30003121109208C03121109878C03121109BC
:1015E3000A8D03121109128D031211091C8D0312A6
:1015F3001109A48D031211090C8E031211094B8ECC
:10160300031211098C90031211097391031211092A
:10161300A69103121109689203121109249303126C
:101623001109569303121109BC9303121109CD93A7
:1016330003121109409403121109D89403121109DA
:101643003195031211090F960312110934960312EF
:101653001109529603121109659603121109BD96D9
:1016630003121109459703121109869703121109F1
:101673009397031211099C9703121109A799031257
:101683001109FB9A031211090B9B03121109449CC4
:1016930003121109AB9C03121109ED9C03121109EA
:1016A300299D03121109519E03121109C5A00312AA
:1016B3001109D9A003121109E3A003121109EDA026
:1016C30003121109F7A00312110910A10312110942
:1016D3001AA10312110924A1031211092EA1031245
:1016E300110956A103121109A4A103121109AFA1F3
:1016F30003121109D3A103121109F7A1031211094E
:1017030067A203121109B3A203121109CFA2031294
:10171300110935A3031211097CA303121109C8A3EC
:101723000312110933A403121109E3A403121109CB
:10173300B6A60312110924A70312110961A8031203
:10174300110987A803121109FAA9031211099DAD02
:101753000312110997AF0312110977B1031211098B
:1017630010B20312110944B403121109E7B40312AE
:10177300110939B503121109BDB503121109D5B504
:101783000312110912B80312110957B903121109EF
:10179300B6B9031211094FBA0312110921BC03127E
:1017A300110963BD0312110982BD03121109D7BDCB
:1017B30003121109D8BE0312110900BF0312110944
:1017C30063BF031211095BC003121109D7C00312CF
:1017D300110901C2031211096CC203121109AAC330
:1017E300031211090CC6031211093DC60312110994
:1017F300E8C8031211093AC903121109F8C90312FF
:101803001109B4CA0312110918CB03121109D9CB58
:10181300031211097BCC03121109E0CC0312110945
:101823001FCD0312110950CD03121109BACE0312B1
:1018330011092983011211096183011211093A86E1
:10184300011211098686011211097087011211090B
:10185300D48701121109348901121109138C011261
:101863001109568D01121109509801121109E598B9
:1018730001121109E29B01121109E79C01121109DE
:101883004A9D01121109959E0112110915A1011218
:10189300110912A3011211099FA3011211097BA4BB
:1018A3000112110913A5011211091DA50112110934
:1018B3004BA50112110900A601121109DEA601129E
:1018C3001109B5A701121109CBA7011211092CA8FF
:1018D3000112110955A80112110982A80112110957
:1018E300B3AA0112110992AB01121109D6AB01126D
:1018F300110941AC0112110900AD0112110932ADF8
:101903000112110979AD01121109ACAD01121109CE
:1019130001AE0112110956AE011211095BAE01129B
:101923001109AFAE01121109F7AE01121109FBAF94
:101933000112110960B001121109BCB001121109A1
:101943002DB101121109FDB301121109FFB40112E6
:1019530011096CB6011211095BB90112110902BA1E
:101963000112110950BC01121109F3BC0112110932
:1019730031BD0112110913BF0112110926BF011252
:1019830011092FBF0112110938BF011211094DBFEF
:10199300011211096CBF0112110946C1011211098B
:1019A3009BC101121109A5C101121109AFC1011295
:1019B300110900C20112110954C20112110970C3A5
:1019C30001121109C7C30112110929C50112110915
:1019D3007AC50112110925C60112110943C7011263
:1019E3001109EEC70112110909C90112110930CAFF
:1019F3000112110933CB011211094ACB011211094A
:101A030087CB0112110991CB011211099BCB011252
:101A13001109A6CB01121109C4CB0112110906CC7D
:101A23000112110963CC0112110988CC01121109A9
:101A3300A2CC0112110921CD011211095ECD0112AF
:101A4300110993CE01121109E5CE01121109FFCF3D
:101A53000112110926D001121109BAD0011211097C
:101A630035D10112110985D201121109B8D301121E
:101A730011096AD40112110935D501121109DAD5F8
:101A83000112110944D601121109F9D601121109E3
:101A93004DD701121109ABD70112110976D80112E2
:101AA300110999D80112110958D9011211097CD9C8
:101AB300011211099ED901121109FFD9011211094D
:101AC3003FDC0112110929DD01121109D4DD0112D4
:101AD3001109F9DF0112110947E0011211098AE026
:101AE30001121109E2E00112110940E10112110989
:101AF3006DE10112110991E101121109C4E1011211
:101B03001109EEE10112110935E2011211098AE20C
:101B130001121109E6E201121109E3E301121109AD
:101B230047E50112110985E501121109AEE501121C
:101B330011093DE60112110987E601121109ABE60D
:101B430001121109FBE60112110916E7011211092D
:101B5300CDE70112110906E8011211095EE801122D
:101B63001109B4E801121109B8EB01121109EBEBE9
:101B730001121109A9EC01121109B1ED01121109A8
:101B83003AEE01121109F7F2031211092FF30312AE
:101B9300110950F30312110992F303121109F4F31B
:101BA30003121109FEF3031211090EF403121109B2
:101BB30045F40312110981F40312110943F80312C6
:101BC300110904FA0312110926FC03121109E5FC99
:101BD30003121109B2FD03121109FD3A0012110992
:101BE300403B00121109003C001211091F3D001275
:101BF3001109463E001211090140001211097440F7
:101C0300001211093F41001211095042001211093B
:101C1300B74200121109F342001211095243001294
:101C230011098B4300121109E043001211096944A1
:101C3300001211090E4500121109DF4500121109A6
:101C4300B9460012110943470012110969470012EE
:101C53001109964700121109D04700121109D04803
:101C630000121109E048001211093049001211094C
:101C73003D49001211095249001211095B49001232
:101C83001109B54900121109174A00121109614AD5
:101C9300001211097C4A00121109A34A001211090A
:101CA300C04A00121109CC4A00121109754C0012E6
:101CB30011098E4C00121109144D00121109274D00
:101CC30000121109394D00121109E54D00121109D5
:101CD300504F001211090751001211098D510012C2
:101CE30011098F5100121109F751001211091552F0
:101CF30000121109AB5200121109E8520012110926
:101D0300EB520012110916530012110973530012FA
:101D13001109975300121109B55300121109035405
:101D2300001211095C5500121109B4550012110972
:101D3300015600121109885600121109B0560012FB
:101D43001109E65600121109F556001211095357ED
:101D530000121109C4570012110901580012110988
:101D63003C580012110967580012110981580012DA
:101D730011099B58001211096F5900121109795961
:101D830000121109B55900121109C55900121109A0
:101D9300255A00121109395A00121109435B001226
:101DA3001109565B001211096B5B00121109105CDB
:101DB300001211098C5C001211092F5D0012110928
:101DC3003B5D00121109815E001211099D5E001234
:101DD3001109F55E00121109315F001211094B5F01
:101DE30000121109AD5F001211094C6000121109B4
:101DF300976000121109E362001211098A6300124D
:101E030011092664001211094C6600121109646657
:101E13000012110967660012110973660012110995
:101E23008766001211098F6600121109CF6600122E
:101E33001109C867001211094B6800121109CD6816
:101E430000121109476900121109196A00121109D8
:101E53003B6A00121109D76A00121109E36A0012E2
:101E630011090E6B00121109116B00121109806B1D
:101E730000121109E36C00121109FA6D0012110925
:101E8300856E00121109C26F0012110994700012BD
:101E93001109C57000121109F17000121109FA70CD
:101EA30000121109297100121109D97100121109C7
:101EB300937200121109077300121109A373001220
:101EC30011092B7400121109617400121109A6740F
:101ED30000121109DB74001211092E750012110989
:101EE3006B7500121109BB75001211093F760012C0
:101EF30011095178001211093D7A00121109BA7DB6
:101F030000121109EA7D00121109087E001211095D
:101F1300727E00121109A27E00121109D57E0012F1
:101F230011090C7F001211096C7F001211092BF5A6
:101F330004121109A7F504121109CEF504121109AF
:101F430002F60412110962F7041211097EF7041252
:101F53001109C3F7041211094AF80412110993F87D
:101F63000412110924F9041211090AFA04121109BD
:101F73005DFA04121109C2FA0412110943FB041297
:101F8300110999FB04121109E2FB041211097FFCE8
:101F93000412110976FD04121109C4FD041211097A
:101FA30012FE0412110934FE04121109CFFE0412A9
:101FB300110968FF0412110906E50512110952E51A
:101FC30005121109C0E505121109E1E50512110910
:101FD30081E6051211098AE605121109D7E60512F1
:101FE300110900E7051211090AE70512110976E73D
:101FF3000512110908E80512110944E8051211092F
:102003007FE805121109DBE80512110911E9051230
:10201300110990E905121109DAE9051211091BEA00
:102023000512110952EA0512110964EA0512110990
:1020330076EA0512110995EA051211099EEA0512BD
:10204300110966EB05121109A6EB05121109CFEB75
:1020530005121109C1A80612110904AA06121109D1
:102063005DA20612110993A206121109DEA206123D
:10207300110929A4061211091DCD0412110951CE0B
:10208300041211098DCE0412110945D0041211094D
:102093007FD004121109F8D20412110938D30412A3
:1020A3001109CCD4041211096CD504121109CED52F
:1020B300041211095BD60412110993D604121109F3
:1020C300D3D60412110964D8041211090CDA0412CC
:1020D300110969DC0412110997DC04121109C3DC2C
:1020E30004121109CCDC041211094ADD041211098E
:1020F300A7E004121109DDFF02121109F3FF021216
:102103001109B5B20612110912FB0512110927FBB9
:1021130005121109DAFB051211091AFC051211093E
:1021230033FC051211096EFC05121109BBFC0512E3
:102133001109EDFC051211092FFD051211093AFFD2
:102143000512110947FF051211097DFF0512110937
:1021530099FF05121109DBFF05121109EBFF0512A7
:102163001109F5FF051211091E9D04121109769D2F
:10217300041211091A9E041211092C9F0412110949
:102183006CAD02121109E6A004121109FBA004129E
:10219300110948A1041211099EA104121109FBA1FE
:1021A300041211090EA2041211095DA204121109ED
:1021B30075A2041211092AA504121109C9A5041252
:1021C300110900A60412110949A60412110937A81E
:1021D3000412110996A8041211090CA90412110979
:1021E300F4A9041211092DAA041211094CAA04120C
:1021F300110997AA04121109ADAA04121109BAAA66
:1022030004121109F3AA04121109CFBB0212110916
:10221300FDAB0412110960AC04121109AEAC041237
:102223001109BDAD0412110923B0041211094AB0FA
:1022330004121109D5B0041211095FB10412110976
:1022430027B20412110961B204121109CFB20412A8
:1022530011097FB304121109A9B304121109B3B30D
:1022630004121109BDB304121109D9B304121109DF
:1022730036B4041211096FB4041211098BB4041299
:102283001109B7B404121109F2B4041211090DB5FE
:102293000412110957B5041211096AB50412110980
:1022A30085B504121109B5B504121109D2B504128A
:1022B30011091BB60412110951B60412110954B7BE
:1022C3000412110960B30612110978B30612110939
:1022D300B3CD0512110902CE05121109C1CF0512A2
:1022E30011099AD105121109DED10512110931D351
:1022F300051211097CD4051211099ED40512110986
:10230300E8D4051211096AD5051211097BEE0112F1
:1023130011099EEE011211098FEF0112110917F035
:102323000112110975F001121109BCF00112110912
:1023330035F101121109C2F1011211093BF2011227
:1023430011097CF201121109CCF60112110943F9AA
:102353000112110913FA011211093CFA01121109B0
:102363007AFC0112110908FD011211092CFE011258
:102373001109E7FE011211095AFF01121109B9A34C
:10238300051211096EA405121109F3A4051211090E
:102393008EA50512110913A605121109F3A805123A
:1023A30011099BA905121109F6A905121109B9AB67
:1023B3000512110968AC051211099BAD051211092B
:1023C300AAAE051211094EAF0512110951B005123B
:1023D30011090080041211096F8004121109BD80D4
:1023E300041211090581041211095B8104121109F8
:1023F300B58104121109F6810412110981820412B4
:102403001109D68204121109558404121109CB84CF
:1024130004121109FA8504121109268604121109FE
:102423003687041211094787041211095D870412C4
:102433001109E887041211090B8804121109D888BD
:1024430004121109FA8804121109118904121109DD
:10245300378904121109598904121109498A04128E
:102463001109AB8A04121109568C04121109B48C98
:1024730004121109CB8C041211091F8E04121109C5
:10248300C48E041211090A8F041211094E8F04120B
:102493001109B88F04121109789004121109589286
:1024A300041211096C9304121109CF940412110937
:1024B300469604121109E29704121109F0970412C7
:1024C3001109099904121109B69904121109099AFB
:1024D300041211091E9A04121109039B0412110913
:1024E300049C04121109699C04121109999D061296
:1024F3001109D49D06121109939E06121109F99E22
:10250300061211096F9F06121109F298061211099A
:10251300719A061211096FAE0612110980AE0612E6
:10252300110920AF06121109FFAF061211090DB0F0
:1025330006121109EEFF011211095BB1061211090E
:102543006BB1061211097DB106121109E3B106122E
:1025530011096BAC06121109F0AC0612110956AD44
:1025630006121109E6B106121109F7B10612110993
:1025730011B2061211091CB20612110917B4061280
:1025830011091AB4061211091DB40612110920B457
:102593000612110923B40612110904B40612110913
:1025A30014B406121109AEB306121109AAF60512E4
:1025B3001109BFF705121109FDF7051211097AF880
:1025C30005121109A4F80512110931F905121109AF
:1025D3005BF905121109A9F905121109E8F90512A8
:1025E300110905FA0512110969FA05121109CDFA43
:1025F30005121109EB910512110912930512110924
:102603004A99051211093F9B051211099B9B05125B
:102613001109919C05121109789D05121109CC9E8F
:1026230005121109F4A00512110907A105121109D8
:102633002AA3051211093AAF0612110955AF061262
:102643001109FDEB0512110925EC0512110942EFE1
:102653000512110981EF05121109C3EF05121109C2
:10266300D7EF05121109F0EF0512110908F1051250
:102673001109BAF105121109D4F10512110960FE0D
:102683000312110984FE031211099DFE031211099D
:10269300DCFE031211090FFF031211093FFF03129E
:1026A3001109A7FF03121109AAFF03121109B4FFAD
:1026B30003121109C1FF03121109DD8F061211095B
:1026C300059006121109469006121109649006122C
:1026D30011097F9006121109E79006121109F39070
:1026E300061211095291061211097E91061211095F
:1026F3008D9106121109B1910612110972920612F7
:1027030011097F9206121109909206121109B7FF5F
:1027130004121109CFFF0412110932F20512110933
:102723009FF305121109A5F305121109BCF3051254
:102733001109DDF305121109F3F30512110907F469
:102743000512110986F405121109EBF4051211099A
:1027530081F5051211095AF6051211096AF60512D7
:10276300110979F605121109C2B006121109E6B072
:10277300061211090EB10612110936B1061211091A
:1027830090A406121109B7A406121109D5A40612C2
:10279300110947A5061211099E9506121109B7954D
:1027A30006121109CE9506121109D79506121109C1
:1027B300F59506121109FF950612110909960612DD
:1027C30011091C9606121109A396061211091897EE
:1027D3000612110946970612110997970612110955
:1027E300E39706121109FE970612110908980612BB
:1027F30011091998061211095F98061211090FB3EE
:10280300061211093FBB051211096BBB0512110911
:1028130089BB051211099CBB05121109B7BB05122F
:10282300110916BC0512110944BC0512110934C063
:102833000512110986C105121109B8C10512110942
:1028430024C20512110989C305121109B1C3051266
:102853001109C6C305121109D6C30512110916C4FD
:102863000512110962C40512110972C40512110976
:1028730015AA0612110925AA0612110943AA06125E
:1028830011095EAA0612110985AA06121109A6AA40
:1028930006121109C0AA06121109F8AA0612110993
:1028A3001BAB06121109B87F00121109FE8B061229
:1028B3001109058C061211095B8D061211098B8D06
:1028C30006121109BB8D06121109EE8D06121109AC
:1028D300008E061211093C8E06121109A28E0612F1
:1028E3001109DE8E06121109258F06121109528F66
:1028F300061211097E8F0612110905A0061211098D
:1029030028A00612110946A1061211092FA20612C8
:10291300110932A2061211096FAD06121109CEADCB
:10292300061211090CAE061211094DAE0612110959
:102933009AD505121109B0D50512110964D60512ED
:10294300110986D7051211095CD805121109FAD8A5
:102953000512110939D90512110949D905121109AD
:1029630070D905121109C2D9051211094DDB0512DF
:10297300110952DB0512110974DB051211092DCF60
:102983000312110939CF0312110996CF031211094A
:10299300AECF0312110954D00312110965D00312EB
:1029A3001109D4D0031211096DD103121109B0D149
:1029B3000312110938D20312110964D40312110945
:1029C30078D6031211098CD70312110943D80312C5
:1029D300110943DD0312110930DE03121109C2DEAE
:1029E30003121109E7DE031211098CDF0312110927
:1029F300A9DF03121109CADF0312110931E003121F
:102A0300110967E003121109C6E1031211096CE20F
:102A130003121109B7E20312110936E30312110974
:102A2300EBE30312110954E403121109B8E403128E
:102A330011094CE503121109B9E503121109F5E572
:102A43000312110969E6031211098EE70312110932
:102A5300F3E803121109A0E903121109D8E90312DB
:102A630011099BEB0312110992ED03121109D1EE27
:102A73000312110900800512110982800512110940
:102A83003F82051211093A83051211099884051230
:102A93001109D785051211095687051211090E88E8
:102AA30005121109DE880512110991890512110910
:102AB300E38A051211090D8C05121109F08C051218
:102AC3001109158D05121109748D05121109738EE3
:102AD300051211096B8F051211097790051211095F
:102AE300FD900512110940D602121109D7D6021220
:102AF30011093BD70212110951D802121109D0D87A
:102B0300021211090ADA02121109B9DA02121109C1
:102B130092DC02121109A6DD0212110968DE02120B
:102B23001109B2DE0212110973DF021211091EE14B
:102B330002121109BAE102121109D6E502121109B2
:102B4300DCE70212110973E802121109CCE8021240
:102B530011091DE9021211099EE9021211091FEA66
:102B6300021211093AEA0212110982EA0212110948
:102B730085F402121109A1F602121109FEF70212DD
:102B830011096DF9021211094FFA021211091BFB07
:102B9300021211090080061211095580061211094B
:102BA300008106121109EF8106121109DD82061256
:102BB3001109E9830612110954DD05121109F6DD25
:102BC3000512110984DE0512110978E305121109B2
:102BD30030E4051211092CE104121109B7E10412C2
:102BE300110906E30412110952E4041211090CE558
:102BF30004121109C1E5041211093CE6041211097A
:102C03000AE704121109D6E704121109DFE80412D6
:102C13001109D6E90412110941EB041211092BEE33
:102C23000412110914EF0412110906F00412110918
:102C3300D6F00412110949F2041211093BF40412EB
:102C43001109A2B804121109DDB8041211090DBA51
:102C53000412110958BA04121109C0BA0412110955
:102C630021BB0412110972BB04121109F6BB041231
:102C7300110932BC0412110959BC04121109C1BC57
:102C8300041211098BBD04121109C5BE04121109E6
:102C9300EABE041211093ABF0412110967BF0412F4
:102CA300110910C00412110953C0041211097AC189
:102CB30004121109BCC10412110907C2041211093B
:102CC3003DC204121109A7C404121109ADC50412AF
:102CD3001109DBC5041211092BC6041211094DC6D3
:102CE3000412110991C604121109ACC60412110988
:102CF300D0C604121109FDC6041211090EC804122C
:102D0300110975C80412110992CA04121109DBCA08
:102D13000412110905CB04121109AACB04121109DB
:102D2300E8CB0412110907CD04121109129B0612F4
:102D330011092F9B06121109429B06121109809B50
:102D430006121109ADB10512110960B2051211097C
:102D530024B4051211095DB40512110928B5051231
:102D630011092BB5051211093EB50512110989B5D3
:102D7300051211098CB505121109D1B505121109F6
:102D83006FB60512110997B6051211095AB7051244
:102D9300110931B805121109A0C405121109DCC4C7
:102DA30005121109EBC40512110932C505121109E7
:102DB3003CC50512110946C5051211095BC7051269
:102DC300110909C80512110954C805121109ABC824
:102DD300051211091DC90512110967C90512110947
:102DE300E7C90512110917CA051211099BCA051271
:102DF300110955CB05121109BACB05121109B1CC32
:102E0300051211099DCD05121109A9CD051211094C
:102E130014840612110932840612110976840612EB
:102E230011099C8406121109C38406121109DB845B
:102E330006121109F384061211090B8506121109F2
:102E4300AD8506121109EB8506121109FF850612DD
:102E530011091487061211092F87061211093887E1
:102E6300061211094187061211094A870612110930
:102E7300548706121109C4870612110972FB021244
:102E8300110960FF021211096EFF0212110973FF8B
:102E930002121109E6B306121109BE9206121109B4
:102EA3004DAB0612110954B206121109B0A606124F
:102EB3001109CBFF031211090C880612110916AD73
:102EC300021211091AAC0212110973AA0212110992
:102ED30043AA0212110917AA02121109F3A9021235
:102EE3001109DFA90212110905A90212110936A855
:102EF300021211090EA602121109E3A50212110909
:102F030088A5021211093EBB021211092FBB02123E
:102F13001109F3A3021211097AA30212110936B897
:102F23000212110953B5021211092CA3021211093D
:102F330057A2021211091EA202121109CDA10212F7
:102F4300110952A002121109D49F021211090A9FFA
:102F530002121109F29D02121109969D0212110922
:102F6300709D02121109AC9C02121109EF9A021210
:102F730011098B9A021211095C9A02121109599ACA
:102F8300021211092C990212110913980212110944
:102F9300C89602121109EF95021211096B950212DC
:102FA3001109729402121109CF9302121109169397
:102FB30002121109D4920212110909B40212110961
:102FC30045B3021211097BB1021211090CAF0212AF
:102FD3001109ABAE021211093C9202121109FB91C5
:102FE300021211099E91021211096B910212110929
:102FF30052AE02121109FF9002121109CA90021275
:1030030011096B90021211093A9002121109D4AD01
:103013000212110905AB04121109EE8C02121109F7
:10302300238C02121109D88B02121109CC8B0212C4
:1030330011092B8B02121109EF890212110934872E
:1030430002121109C084021211097E8402121109AD
:10305300488302121109DE82021211090C82021244
:1030630011096C8002121109328002121109AAADF2
:10307300021211090080021211090EA004000000BF
:1030830080FBE473FFBFF6BDEEBBE5B9DDB7D4B596
:10309300CCB3C4B1BBAFB3ADAAABA2A999A791A559
:1030A30089A380A1789F6F9D679B5E9956974E95E4
:1030B30045933D91348F2C8D248B1B8913870A856F
:1030C3000283F980F17EE97CE07AD878CF76C77401
:1030D300BE72B670AE6EA56C9D6A94688C6683648E
:1030E3007B6273606A5E625C595A51584956405418
:1030F30038522F50274E1E4C164A0E480546FD43A4
:10310300F441EC3FE33DDB3BD339CA37C235B93336
:10311300B131A82FA02D982B8F2987277E257623C1
:103123006E21651F5D1D541B4C19431733135D132B
:103133008713B213DC13061431145B148614B01412
:10314300DA1405152F155A158415AE15D91503165E
:103153002E1658168216AD16D71602172C175617A9
:103163008117AB17D61700182A1855187F18AA18F5
:10317300D418FE18291953197E19A819D219FD1943
:10318300271A521A7C1AA61AD11AFB1A261B501B8D
:103193007A1BA51BCF1BFA1B241C4E1C791CA31CDA
:1031A300CE1CF81C221D4D1D771DA21DCC1DF61D26
:1031B300211E4B1E761EA01ECA1EF51E1F1F4A1F70
:1031C300741F9E1FC91FF31F1E20482072209D20BD
:1031D300C720F220472125230325E126BF289D2A66
:1031E3007B2C592E37301532F333D135AF378D3928
:1031F3006B3B493D273F0541E342C1449F467D4820
:103203005B4A394C174EF54FD351B1538F556D5718
:103213004B59295B075DE55EC360A1627F645D6610
:103223003B68196AF76BD56DB36F927170734E7506
:103233002C770A79E87AC67CA47E828060823E84F9
:103243001C86FA87D889B68B948D728F50912E93F2
:103253000C95EA96C898A69A849C629E40A01EA2EA
:10326300FCA3DAA5B8A796A974AB52AD30AF0EB1E3
:10327300ECB2CAB4A8B686B864BA42BC20BEC9BE12
:1032830072BFFFBFFF3FA7414F43F7449F464748E5
:10329300EF49974B3F4DE74E8F503752DF538755DA
:1032A3002F57D7587F5A275CD05D785F2061C8625B
:1032B30070641866C0676869106BB86C606E0870DC
:1032C300B07158730075A8765078F979A17B497D60
:1032D300F17E99804182E98391853987E188898AE2
:1032E300318CD98D818F2991D19279942296CA9765
:1032F30072991A9BC29C6A9E12A0BAA162A30AA5E4
:10330300B2A65AA802AAAAAB52ADFAAEA2B04BB269
:10331300F3B39BB543B7EBB893BA3BBCE3BD8BBFE9
:1033230033C1DBC283C42BC6D3C77BC9CCCC7ACA17
:1033330028C8D6C585C333C1E1BE90BC3EBAECB73D
:103343009BB549B3F7B0A6AE54AC02AAB1A75FA52B
:103353000DA3BCA06A9E189CC79975972395D2921A
:1033630080902E8EDD8B8B893987E884968244800A
:10337300F37DA17B4F79FE76AC745A720970B76DF9
:10338300656B1469C26670641F62CD5F7B5D2A5BE7
:10339300D85886563554E351914F404DEE4A9C48D8
:1033A3004B46F943A741563F043DB23A61380F36C5
:1033B300BD336C311A2FC82C772A2528D3258223B5
:1033C3003021DE1E8D1C3B1AE91797154613F410A6
:1033D300A20E510CAE0757080109AA09540AFE0AA6
:1033E300A70B510CFA0CA40D4E0EF70EA10F4A10A9
:1033F300F4109E114712F1129B134414EE14971507
:103403004116EB1694173E18E71891193B1AE41A64
:103413008E1B371CE11C8B1D341EDE1E881F3120C2
:10342300DB2084212E22D82281232B24D4247E2521
:103433002826D1267B272428CE287829212ACB2A7F
:10344300752B1E2CC82C712D1B2EC52E6E2F1830DC
:10345300C1306B311532BE3268331134BB3465353C
:103463000E36B83662370B38B5385E39083AB23A99
:103473005B3B053CAE3C583D023EAB3E553FFE3FF9
:10348300FD3FFF3F000000002001288300000100F2
:10349300200120830000020020011F830000004060
:1034A3004201E9810000030020012583000004009C
:1034B30042015880000005004201C9800000060057
:1034C30042018A81000007003001228303000000CB
:1034D3002103000005000000200100000500010099
:1034E3002001DE0E050002002101DF0E05000300AE
:1034F3001001E10E0500040018011D830400000003
:1035030018012683060000001001D70E06000040B4
:1035130010010B10060001402103D80E06000240E3
:103523002103DA0E08000000200343100800010005
:103533002101DC0E000301002001E50E0003000061
:103543002001E40E000302002101E70E0003030043
:103553002101441000030400210146100003080068
:10356300300148100003100020011E8300030140B6
:103573003001E60E000300402101E20E0003024089
:103583002001E90E000303402001EA0E000304407A
:10359300210149100003054021014B10000306409F
:1035A3002101EB0E00030A4019014D100003110025
:1035B3002101198300031200210117830003130063
:1035C300200121830003150021011183000316004C
:1035D3002101138300031700200124830003190032
:1035E3002101158300031A0021011B8300031B0023
:1035F3002001278300013636010100010201000189
:10360300030100010401060605020000070100345E
:103613000801000F090401010D0100FF0E0800005D
:1036230017020000190100FF1A0100011B0100FE2F
:103633001C0100081D0200001F0100012001000100
:10364300210200002301000F2402000026010001D3
:1036530027010008280200FF2A0100072B0102406E
:103663002C0100002D0100012E0100012F0100FF9C
:1036730030010B1C310800003A0100083B01000F28
:103683003C01000101037103010301030103010371
:1036930001032203020301031003000300030003D9
:1036A3000003000300030003420300032403060393
:1036B3000003000304031203250323032503230349
:1036C3000403040300030003000344030003000393
:1036D300230300036503210035038103000305036E
:1036E3000003000300030003250323030302710205
:1036F3003001600211027002010202020202800222
:10370300100261023A004100630273027202620214
:1037130043020002130238000002000204021202F4
:103723000002000200020002040204023700370014
:103733003C0244020002390000020002650200025A
:1037430035028102000205028202830200020300A5
:103753007100300160001100700031022003500439
:103763008000100061000000140063007300720009
:103773006200430000001300060000000000040084
:1037830012000000000000000000040004003700E5
:1037930037003C0244000000000000000000650008
:1037A30000003500810000000500000083000000D8
:1037B300030471040204600411047004020402048B
:1037C3000104020410046104000414046304730478
:1037D3007204620443040004130406040004000496
:1037E30004041204000400040004000451046400EF
:1037F3000004000400044404000400040004000462
:103803006504000435048104640005040004830492
:1038130000040101710101010101110101013101E3
:10382300010101018001100161013B0014006301EA
:1038330073017201620143010001130106013D019D
:10384300350004011201000100010001000104011F
:103853000401330133013C0144013201360000010C
:1038630000016501000135008101000105018201AC
:10387300830100013E2A5C2A442A90294A2A622AAB
:103883004A2A6E2A502A90294A2A622A00000000F6
:103893000000000000000000000000000000000025
:1038A300562A9029000000000000000000000000DC
:1038B3000000000000000000000000000000000005
:1038C30000000000000000000000000000000000F5
:1038D30036000100060000000F0000000000000099
:1038E30000000000000003FFFF00000403FFFF00CF
:1038F30000FFFF0FF4010005C404032000010000D2
:103903000B000000000000000003010F00016E180F
:103913000698180892180BB01810EA1702741805C5
:103923008618077A180C56180D6218642216FF00C1
:10393300000000962313005A23010096230200245B
:103943002303002A23040030230500362306004204
:1039530023FFFF000007ECFDFDFDECDCDCCCBCAC81
:10396300AC9C9C8C7C7C6C6C5C5C5C4C4C3C3C2CC4
:103973002C1C1C1E1D4E1D241D2A1D481D3C1D36BE
:103983001D541D5A1D601D6C1D301D181D121D0375
:10399300EAF5E5D5D5C5B5A59595858575756565AF
:1039A300555545453535252515150500160F0000D8
:1039B3000B150B020002220F3300000E0103050753
:1039C300090B0D0F00020406080A0C0D5A69674221
:1039D3006565416C6C69616E636530390E1E201E2E
:1039E300261EE21C2C1EDC1CE81C6E1E8C1E921E66
:1039F300741E801E7A1E1C1C161C521C581C4C1C48
:103A0300041C00034D4C4651181A250502000119E8
:103A130016181616182303000C0E020B040B0A07C4
:103A230008000F303017181921301B1D1F3030309C
:103A330016181920231A1C1E30003C40423A3F3FFF
:103A4300392F4730621E321E381E441E3E1E421D51
:103A5300661D861E721D781D020402010101010903
:103A630002281C2E1C221C5E1C00000000000034D7
:103A73001C461CE803000000BE040AE80300000023
:103A8300003C003C007F000E00010A03030809000C
:103A9300100009FF1E1E08050C280C040404100561
:103AA30008150C03E0FAA3E0F9EA22E4F0A3F0A37B
:103AB300F022A3123AAEA3F022123AC022E0F50894
:103AC300E4F509F50AF50B22740912116E7F04025D
:103AD3000E487401F090083BE0640F227402121147
:103AE3006E7F06020E48A3A3E024F5C3941222902E
:103AF300085B126FA97A147B0022C082C0839005F1
:103B030023125A1F60061266C012207290052012FB
:103B1300530D7408F0A3E4F0A3F0900598F090051A
:103B230025F07C0BFDF97A267B05121FC47C0B7DE7
:103B33000079007A317B05121FC402520E74F7120A
:103B43000B3E74F71211CFEAFEEBFF1248A974057E
:103B5300123BF57403F0123CE2125527EE2430FCBD
:103B6300EF3400FD8C828D83123D19123BE0600B14
:103B7300EE242E1248AC74FFF0A3F0EE242EEF34A3
:103B8300001C1CFD8C828D83A3E0C0E08A828B83A2
:103B9300124F07D0E0123BE08882898312595324E5
:103BA3000312641212292A740812143B7403F0904E
:103BB3000850120F17740212143BAC82AD837903C1
:103BC300EEFAEFFB121DF0740212116EE9F50870A4
:103BD30007EEFAEFFB121CD6A90802494A12662225
:103BE3001255188A828B83E8F0A3E9F08C828D83C7
:103BF300E022F0A3E4F0EE240D1262972274F11296
:103C03000B3EEAFEEBFF8C088D09890A123CE21297
:103C1300550F740F12143B123D07E824FF18E934C3
:103C2300FFF988828983E50A123CF9900855123C12
:103C3300F6900854123CF6741112143B123D07EE31
:103C43002404FCEF3400FD880B8A828B83E0F50C9F
:103C53008C828D83E0250CC3950B12661EE8F0A3BE
:103C6300E91250E0A3A3A3A3A3A3A3A3E064037057
:103C730008123CEAF0A3E4800AEE240EF582EF1268
:103C83006839A3123BF87409F0750C26750D057598
:103C93000E00780C121122123CD5121FB8740312B5
:103CA300116E750CFF750DFF780C121126AC08AD63
:103CB300097903EEFAEFFB121DF0740212116EE99B
:103CC300F5087007EEFAEFFB121CD6A9087F07026E
:103CD3000E487C0B7D00EE241BFAEF3400FB22EE32
:103CE3002402FAEF340022EE240EF582EF12629AD8
:103CF300740122123D19123CFD22F0E824FF18E959
:103D030034FFF922E0F50CA3123D19123CFD888221
:103D13008983E50CF022E0888289832274F0120BF8
:103D23003EEAFEEBFF890B8C0E8D0F750A00A2AFE6
:103D3300E433F50CC2AF90053C803F123E0550378B
:103D4300123E1D64037030EE24F9FEEF34FFFF854D
:103D53000882850983A3A3E02405FCA3E03400FDC6
:103D6300EEFAEFFB12292AEE24FF1EEF34FFFF7455
:103D730010250AF50A150B125090127055E50B60C9
:103D830006E508450970B4E50CA2E092AFA2AFE4E2
:103D930033F50CC2AF90053C80252402FAE50934C3
:103DA30000FB8A828B83124C23123E2A8A828B83E6
:103DB300123E12A3A3123E2A050A150B12509012AB
:103DC30050A56027123E1D640270F1123E05E508FE
:103DD30040C812517FE5091246B5A2E550DE850EB3
:103DE30082850F837401F0E50B70D1E50CA2E0929C
:103DF300AF8E828F83E50AF0EE24FFFAEF34FFFBE8
:103E0300803CE508124F16E50912406FA2E6221224
:103E13003E1622126A06A3A3A3228508828509837C
:103E2300126A0012604322E08E828F83F0EE24FF39
:103E33001EEF34FFFF22121EC2740412116E7F089C
:103E4300020E4874EB120B3E74F61211CF89148ADA
:103E5300138B12851882851983E4F0900542E0C321
:103E630094084005750F078003E0F50FE50F333322
:103E73003354F8F890083AE0282437F50CFA7B001D
:103E8300121FD68A088B09EA45097003023FEBEA41
:103E93002402F50AEB3400F50BEA250CF8EB3400A9
:103EA300F9850A82850B83125534EA2404F510EB55
:103EB3003400F511851082F583E4F090083AE0FAB6
:103EC300F8C3E498F895E0F9850A82850B83E02826
:103ED300FEA3E039FF900838123FF9750E00780C05
:103EE3001211228A0CAC0C7D00EEFAEFFB121FB804
:103EF300740312116E851882851983AC82AD83A970
:103F03000FEE24FFFAEF34FFFB121BEC8A0C8B0D30
:103F1300AE0CAF0D8E828F83E4123E2FE512C45494
:103F2300F0F9900599E0C4333354C0F8900834E0B5
:103F3300A2E0E43313134849440F123E2BE513C4A4
:103F430054F045148E828F83F0EEF8850A82850B38
:103F530083E0FA851082851183E02AC398F0850AED
:103F630082850B83EEF0A3EFF0E508240E1268358B
:103F7300A3F0E508240D126835740912143BE4F02C
:103F8300750C31750D05780C1211227C0B7D00E543
:103F930008241BFAE5093400FB121FB8740312113D
:103FA3006E851882851983E0600EE508240EF5827C
:103FB300E5091246B54408F0E4F50AF50B780A1250
:103FC3001126740312143BAE82AF83121DD8EEFC8C
:103FD300EFFDAA08AB09121DF0740212116EE9AAD3
:103FE30008AB096007121FDC7A007B00740A121108
:103FF3006E7F0D020E48E0F50CA3E0F50D2274F37D
:10400300120B3E8A0A8B0BA2AFE433F50CC2AF75D9
:10401300080075090090053C802C12424A50248503
:104023000A82850B83A3A31274A08E828F83A3A31A
:104033001266C3121DDEE9600A124065C2E6F08E05
:10404300088F0912423F12450670CFE50845096003
:1040530006124129D2E6F0E50CA2E092AF7F0502F9
:104063000E4812406922EE2411F582EF1250CDE082
:104073002274F0120B3EEAFEEBFF8C0C8D0D750ED5
:1040830000A2AFE433F50FC2AF75080075090090C5
:10409300053C8025850A08850B09124129D2E4F0E5
:1040A300E50812517FE5091246B5D2E7F0E50A2487
:1040B300FBF582E50B34FFF583E0F50AA3E0F50B8E
:1040C300E50A450B6043E50A124F16E50B1241233F
:1040D30050DB850A82850B83A3A3120F17AC0CADAB
:1040E3000DEEFAEFFB121DE4740212116EE960BDCE
:1040F300E5084509609EE508240DF582E5091244AB
:10410300F87006124134D2E4F0E50FA2E092AFE575
:104113000845096006121CD0750E01A90E023E4126
:1041230012406FA2E722E508124F16E50912406F0D
:1041330022850882850983126A00E02274F2120B39
:104143003E74FE1211CF750C00750D008518828523
:104153001983E4F0A3F0A2AF33F50AC2AF90053C94
:10416300127269803BEE24FBF582EF34FF12705329
:10417300780C121126EEFCEFFD7A3C7B0512200C25
:10418300740212116EEEFCEFFD851882851983AA65
:1041930082AB83121FFAAE08AF09900542E014F018
:1041A300EE4F602C12424A501EEE240BF8EF3400FF
:1041B300F988828983E024FFF0A3E034FFF088824A
:1041C3008983125A1F609E8E0C8F0D12423F80907E
:1041D300E50AA2E092AF900542E0603190083BE02F
:1041E300640F6006900598E070237A1A7B05121E0F
:1041F300CE9082C6120F137A1A7B05121EC2740464
:1042030012116E800874F0125549121CC48518826D
:10421300851983AA82AB831220008A0A8B0BAE0A0C
:10422300AF0BEE4F6013121BF8124065A2E28E82B1
:104233008F83A350D074E980CE023ADFEE24FBF5DE
:1042430082EF34FFF58322124069A2E72274F7124A
:104253000B3EEAFEEBFF121BF8124F04123085E906
:104263006401900857700AE02401F8A3E034008049
:1042730003125F2DF9EE240B1248AC12553490054E
:1042830042E0702190083BE0640F70197A1A7B05B5
:10429300121ECE9082C6120F137A1A7B05121EC20B
:1042A300740412116EE5A8F8C2AF900542E004F061
:1042B300E8025EEC74F7120B3EEAFEEBFF1242EDEE
:1042C300F0121BF8EEFCEFFD7A3C7B05122006E5AD
:1042D300A8F8C2AF900542124C6A90083BE0640F05
:1042E30070057908121D900255FC124069C2E42240
:1042F30074F7120B3E74EA1211CFEAFEEBFF90083B
:1043030034E060468518828519837401F012143BEA
:10431300E41243D412143BAA82AB8312292A8E825D
:104323008F8312413AC0E0740A12143BD0E0125951
:1043330045740B12143BAA82AB83121E08851882A4
:10434300851983AA82AB83122E7C741602494C749E
:10435300F7120B3EEAFEEBFF121BE074DC69601EF2
:1043630074DD69601974E469601474F369600F742F
:10437300DE69600A74DF69600574DB697007EEFA51
:10438300EFFB121D960255FC74F7120B3E74EB12F1
:1043930011CFEAFEEBFF8518828519837406124359
:1043A300D412143BAA82AB8312292AEE2408FCEF11
:1043B3003400FD740A12143BAA82AB83121E0885D3
:1043C3001882851983AA82AB83122E7C7415024945
:1043D3004CF0EE2413FCEF3400FD74022274F71248
:1043E3000B3E74F71211CFEAFEEBFFEE24301246B8
:1043F300B26070124D0B851882851983AA82AB8334
:1044030012292A740812143B7403F0900850120FF7
:1044130017EE242E1248AC120F17900863E0F974BC
:104423000412143BAC82AD83EEFAEFFB121BE6746D
:104433000412116E74DC69602374DD69601E74E418
:1044430069601974F369601474DE69600F74DF695D
:10445300600A74E869600574DB697007EEFAEFFBC4
:10446300121D9602494A74F2120B3E8A088B097593
:104473000A00750B00750CE7A2AFE433F50DC2AF6C
:1044830090053C80078E0A8F0B12423F124506604F
:104493003512424A50EF1244F270EAEE24321244CB
:1044A300FE8A828B83A3A3E06870DA780A1211264E
:1044B300EEFCEFFD7A3C7B0512200C740212116EA8
:1044C300900542E014F0E50DA2E092AFEE4F6013C9
:1044D300EEFAEFFB121BF879F0EEFAEFFB121D96E2
:1044E300750C00A90CAA08AB09121D96023AE4EE5A
:1044F300240DF582EF12406F640122F582EF124022
:104503006FF822E0FEA3E0FFEE4F2274F4120B3E9D
:1045130074F71211CFEAFEEBFF8E828F83A3E06460
:10452300F370030245BC8E828F83A3E064DF7003C4
:104533000245BC8E828F83A3E064E8607C8E828F09
:1045430083A3E064DB6072121C3AE9F5087062EE43
:10455300240E1246B2605A1245C6121C82EA4B6000
:1045630050740812143B1245D1120F177508FF75CA
:1045730009FF78081211268E828F83A3A3A3A3A316
:10458300A3A3A3E0F9740412143BAC82AD83121B02
:10459300E6740412116EE9F50874F3650860127489
:1045A300DF6508600C74E86508600674DB650870F5
:1045B3000F8E828F83A3E508F0EEFAEFFB121C4601
:1045C300023ACBEE240FFAEF3400FB79092274028E
:1045D300126DF274FFF0A3126CA0A32274F1120BFC
:1045E3003EEAFEEBFF7508008E828F83A3A3A3A38D
:1045F300A3A3123AE940037508E88E828F83A3A32D
:10460300A3A3A3A3A3A3A3A3E0C394104005750886
:10461300E880138E828F83A3A3A3A3A3A3A3A3A33F
:10462300A3E0640F600B900575E0540870037508F0
:10463300E8EE240B1244FE8E828F83A3A3A3A3A3CD
:10464300A3A3A3A3A3E0C398500DEE240B1246B279
:10465300640F60037508E8900854E0F47003A3E066
:10466300F470037508EC7A237B0012206C90052309
:10467300125E75900523125A1F60278E828F83A3C3
:10468300A3A982AA83890C8A0D750E00780C1211D6
:10469300227C237D001266C0121FB8740312116EB0
:1046A300800375081A023CCE34FFF509EE240DF59C
:1046B30082EF12406F2274F5120B3EEAFEEBFF8E7F
:1046C300828F83A3A3A3A3A3A3A3A3E090083B1276
:1046D3006CBB900856126CB3900836126CD59005DB
:1046E30099F0F91227AA900599E0601AEE2404FACA
:1046F300EF3400FB7950122792EE2406FAEF3400D0
:10470300FB79E1122792900598123AD5600474015F
:104713008001E4900525126CC01211227C0B7D00F0
:104723007A267B05121FB8740312116EEE24181239
:1047330057BA1211227C0B7D007A317B0502554F4B
:1047430074F7120B3EEAFEEBFF8E828F83A3E070B9
:10475300061266C0121C408E828F83742C12554938
:10476300121DA80255FC74F7120B3EEAFEEBFF90F4
:104773000523125A1F600D1266C0900523E4F0A3AF
:10478300F01220728E828F837408125549122E7C88
:104793000255FC74F6120B3E900598E060139005E9
:1047A30025E0700D1247B6121BF2EA4B6003121C90
:1047B300D68015900836E0FB900856E0FA90083B47
:1047C300E0F922740912116E7F02020E4874F4128A
:1047D3000B3E74E71211CFEAFEEBFF750B018E82DD
:1047E3008F83A3A3A3A3A3A3A3E0A2E2507AEE24FF
:1047F3002BF582EF340012749E1248A0121BFEE9BF
:104803007066908204E06401700DEE241B1255095A
:104813007005750B0080511248B31211227C0B7D79
:1048230000741112143BAA82AB83121FB8740312D3
:10483300116E121DD8E9FA740E12143B8582088595
:104843008309780812112675083075090078081253
:104853001126EE242B1248AC120F171266037901AE
:10486300121DF6740612116E851882851983741051
:104873001243D412143BAA82AB8312291EEE242BBB
:10488300126F9E740B12143B125534740D12143BA9
:10489300E50B1248C4122E7C7419023ACDEE241390
:1048A300FAEF3400FB22EE240EF582EF12629A2215
:1048B300EE2408126CC822851882851983EAF0A3B6
:1048C300EB1248C822126DF2AA82AB8322C082C0C7
:1048D30083900599E06003121E4A02520EC082C003
:1048E300839005907472F0A3743AF0A374F9F0A363
:1048F3007439F0A37464F0A3743AF0900F6174B345
:10490300F0A37437F090057A74DAF0A3741BF09077
:104913000F4B740AF0A3741CF0900F4D7410F0A3A6
:10492300741CF0900575E04402F002520EC082C080
:1049330083EAFCEBFD79030259BFC082C083EAFC22
:10494300EBFD79050259BF740912116E0255FCC0C3
:1049530082C0837908026ADDC082C08374FE1211AB
:10496300CF800D7A3C7B051220001248BA121DCC71
:1049730090053C125A1F70EB90053E125A1F600FB0
:104983007A3E7B051220001248BA121DCC80E990B2
:10499300053CE4F0A3F0900542123AAF90054F7442
:1049A300FAF0A3741CF074028002741112116E02E7
:1049B300520E74F6120B3EE9FF8F08743C2508F57E
:1049C30082743A125C06FE8E08FA7B00121FD6EA46
:1049D3004B6015EA25081252DC1255348A828B8308
:1049E300A3A3A3A3E4F080297A027B00121FD6EAD3
:1049F3004B601A8F0874262508F582743A124DD13C
:104A0300F0A3741AF0900570E0F9121FE27A007BAC
:104A1300000247CBE9FD74062DFCEAA2E0501EEC30
:104A230075F00A84A8F0E86014740A2CC398FCE8B3
:104A3300C394054004740A2CFC740B2CFCEDC39442
:104A4300134004781480027806E82C2409F8E4342F
:104A530000F97A0A7B001208E6E8F9021106C0821F
:104A6300C083900575E05402600A122E82E9600447
:104A730079018002790002520EC082C083900575CD
:104A8300E054026016900542E0700C125A1C600B51
:104A9300124F0BA2E7500479018002790002520EF3
:104AA300C082C083908202E0F8900544E0C398502E
:104AB30005121FD680047A007B0002520EC082C00A
:104AC30083121DCC790002520E74F7120B3E74FE52
:104AD3001211CF851882851983EAF0A3EB124C4695
:104AE300A3A3A3A3A3E0600A14605D24FE6066028F
:104AF3004BB490083BE0640F6018121DA2E97012DA
:104B03008518828519831266C3900F4F124F0712BF
:104B13003085900863E0C0E08518828519831259B7
:104B230023D0E0124C467414126DEE1274A07A3E38
:104B33007B05121FFAE5A8F8C2AF900544124C6A30
:104B43007920121D90025392851882851983126A67
:104B530008741580D3851882851983124C1EA3A36C
:104B6300E0604E851882851983E02402F8A3E034BF
:104B730000F98882898312726FE0C0E0851882850C
:104B83001983E0FCA3E0CC2406F582EC1248AFD0F5
:104B9300E012664388828983125E758518828519BF
:104BA30083124F388518828519836014124C314063
:104BB3004B851882851983AA82AB83121DCC80850D
:104BC300124C315022124C3AFA851882851983A36C
:104BD300E0C82406F582E8124501745A28F5827468
:104BE3003A125C066A6015851882851983124C2374
:104BF300E0640870BC124C3A640870B5124C3A1465
:104C0300124C4E240AC0E0851882851983124F077F
:104C1300D0E0124C4E04024B2BE0F8A31259692248
:104C2300124C2722125102C824061250CA22124CD7
:104C330027E014C3940922851882851983123E162E
:104C4300A3E022124C5BF583888222124C5BC824BA
:104C530006F582E812406F22126DF212510222E52C
:104C6300A8F8C2AF900543E004F0E8A2E7A2E792F8
:104C7300AF22C082C083900547125A1F6008126A90
:104C8300091230858002790002520E74F7120B3E2E
:104C9300EAFEEBFFEE240D123CED1252A3F8A3E063
:104CA300F91248A9125534EE24351246B2C0E0EE8B
:104CB30024131248ACD0E0F0EE24361246B2C0E022
:104CC300EE24141248ACD0E0F0EE24381246B2C001
:104CD300E0EE24181248ACD0E0F0EE242F1248ACDA
:104CE300120F17124D0BEE2431F582EF1250A01262
:104CF3001DF0740212116EE9F5087007EEFAEFFB6E
:104D0300121CD6A9080255FCEE2426FCEF3400FD44
:104D130022C082C083121DA2E96004792080027937
:104D23000102520EC082C083EA124F16EB1246B53F
:104D3300D2E0F002520EC082C083124DCA1244F870
:104D43007011124DD9400C8A828B83A3E0F9121D96
:104D5300968071EA12517FEB1246B5A2E650128A91
:104D6300828B83A3E0F9900F51124F071230858095
:104D730053124DCA1244F8700D124DD950088A824D
:104D83008B83743080358A828B83A3E0641B8A8291
:104D93008B83700474228023A3E0700F124DCA1218
:104DA3004501743128F582743A800D124DCA1245BB
:104DB30001742628F582743A124DD1F0900570E003
:104DC300F9121FE202520EEA240DF582EB22125C65
:104DD3000A8A828B8322EA2410F582EB12406FA2A7
:104DE300E32274F7120B3EE9FE125A1C7003024FC2
:104DF30001EE6010741B6E701212660CE064057095
:104E030003024ECF1269F8E4024ED374E96E705B6D
:104E1300124F2D700B122E88E96005124F46605B0E
:104E2300900545124F2A9005456039124F49900568
:104E330045700B124F2A14F01228CA024F01124F69
:104E430038C2E71250E8240DF582E812704D700C59
:104E5300900545E0F8A3124F0BD2E2F0124F1B125C
:104E6300308580761269FB74E9806574E16E703F6A
:104E7300122E88E96056124F46705190085DE0C0CB
:104E8300E0125F2AC82412F582E81248AFD0E0F09E
:104E930090084CE0C0E0900545124C1C124C1CD00D
:104EA300E0F090084CE004F079011228B2804F74CE
:104EB3001C6E70189005451266C3900F57124F076A
:104EC300123085900545E4F0A3F080321269F8EEC4
:104ED300F09005451266C3121CC41250B9E0548009
:104EE3006010900863E0F91227CE900862E0F9128F
:104EF30027C2900545E4F0A3F07910121D900255E6
:104F0300FC900F55126A0222E0C8124F16E81240B5
:104F13006F22E82411F58222900545E0FAA3E0FB15
:104F2300900F4D126A0222E0F8A3E0C82412F58222
:104F3300E812406F22E0F8A3E0C82410F582E812DB
:104F4300406F229005451250C0E054042274F412BD
:104F53000B3E750A00750B00A2AFE433FFC2AF121C
:104F63005A1C6003025048124F04123085E9441062
:104F7300F890053C800985080A85090B12509012A8
:104F830050A57003025048124129586870E8780A06
:104F9300121126AC08AD097A3C7B0512200C740271
:104FA30012116E900545E508F0A3E5091250E812C9
:104FB3004F16E8124123500302504F900543E0146B
:104FC300F0EFA2E092AF900545E0240EF8A3E034A1
:104FD30000F9880889098882F5831266C39005451C
:104FE300124C40F9121C88E9900540F01250DEE0A3
:104FF30054806018125F2AC8241312509D1227CEC2
:10500300125F2AC8241412509D1227C21250B9A34A
:10501300E054016066900540125A1F60491250D255
:1050230060441250D2F879009005401266C312080A
:10503300EEE8C0E01250ADD0E01250EDC39413403F
:10504300117402800EEFA2E092AF803E90054202FF
:105053004FC1E4C0E0900546E0C8241AF582E81287
:1050630048AFD0E080101250AD74011250E8241AFA
:10507300F582E8123CF0F07903800C900545124F5D
:1050830038A2E1B3E433F91228B2023AD0E5082496
:10509300FBF582E50934FFF58322F582E812406FC0
:1050A300F922127059E5084509221266332419F5CD
:1050B30082E812629A229005451250C022125102D0
:1050C300C8240E1250CA22F582E83400F583221256
:1050D30066332418F582E812406F22A3E4F08508B2
:1050E30082850983221250FAC8221250FAF5838866
:1050F30082A3A3A3A3E022F090054512510222E06C
:10510300F8A3E02274F7120B3EEAFEEBFF121DC672
:10511300EE12517FEF124DDF400A1244F2700590F8
:1051230082008003908201E0F9EEFCEFFD7A3C7B84
:1051330005122012E96034EEFAEFFB900F53124F81
:1051430007123085EE240E1251847010124C62EE59
:10515300240E12529B7021121CD0801CEEFAEFFB1E
:10516300900F4B124F07123085800D8E828F83A3D1
:1051730074F1125549121CC40255FCE82410F5823F
:1051830022F582EF12406F540422807874F7120BD9
:105193003EEAFEEBFF7900900575E05402700AEEDB
:1051A3002433125184600279E8900575E0546070ED
:1051B3000CEE24331246B25402600279E88E828FD9
:1051C30083A3A3A3A3E0C39475400279E8EE24313B
:1051D3001246B2700CEE242E1246B2700479F5809A
:1051E30009E97003121CB2E96007EEFAEFFB121D26
:1051F300960255FCC082C0838A828B83740DF012A1
:105203002E7C8007C082C083121CD0D083D0820240
:10521300110674F4120B3EEAFEEBFF8E828F83E4D9
:10522300F0A31252A354049082007012E0F8900588
:1052330043E0C398401279F1121D96023AD0E0F888
:10524300900542E0C39850EEEE243312529B603631
:10525300EE24371246B2C394054039EE2433124686
:10526300B25405702F7A497B05121ECEEE243712F5
:1052730048AC123ABC780812111E7A497B05121EFB
:10528300C2740412116EEEFAEFFB900570E0F9128E
:105293001FE280A779E880A0126297A3E05401225D
:1052A300F0EE243312406C2274F6120B3EE9FE2416
:1052B30051FAE43400FB121FD6EA4B6015EE8A82E2
:1052C3008B83A3A3A3A3F0EA24511252DC12553417
:1052D30080047A007B000247CBF8EB3400F98A8222
:1052E3008B83A3A322025207C082C08390056CE480
:1052F300F090056FF090055812530D7402F090056D
:105303006112530D7401F002520E7490F0A3741DD8
:10531300F0A32274F5120B3E74F11211CF8518829B
:105323008519837402F0740112143BE9F060047A66
:10533300FF7BFF740212143B125E757508647509D6
:1053430005750A0078081211227C0B7D0074071280
:10535300143BAA82AB83121FB8740312116E851813
:1053630082851983AA82AB83122E7C740F02555453
:1053730074F7120B3E74FE1211CF851882851983C0
:10538300740AF0740112143BE91248C4122E7C749F
:105393000202494C74F0120B3E126E791213D97843
:1053A30008790C1209D6780812111E7A5B7B050264
:1053B3003E3974F4120B3E74C61211CF90083BE0D1
:1053C300640F6010851882851983742E125E7B1218
:1053D3001DA880277A527B05121ECE123AF21208BC
:1053E300EE88088909E4F50AF50B780812111E7A8C
:1053F300527B05121EC2740412116E743A023ACD26
:1054030074F5120B3E74F71211CFEAFEEBFF8E8296
:105413008F83A3E0F50860030254F3125506600876
:10542300E0640360037508E8EE24261248AC123AE0
:10543300EB5034E50860030254F3EE2426FAEF340C
:1054430000FB79E1122792EE2431FAEF3400FB7965
:10545300501227921255067014EE2428126F9E9054
:10546300084A12553480187508E80254F790084A20
:1054730074FEF0A30412551D7A417B0812292AEE0B
:10548300241B1248B61211227C0B7D007A647B0523
:10549300121FB8740312116E123CEA123BF5740228
:1054A30012551D851882851983AA82AB8312291E82
:1054B300EE24311263F012550F8A828B83E8F0A336
:1054C300E91252A3126406121126740212143BACA1
:1054D30082AD8379831A1AEFFB121DF07402121145
:1054E3006EE9F5097007EEFAEFFB121CD685090881
:1054F300E508600B1274107417125549121DA87435
:1055030009804EEE243012406C640222FB8A828BA7
:10551300831255182212553AF922F0EE2428FCEF93
:105523003400FD22FB8A828B8312553AF98A828BDF
:1055330083E8F0A3E9F022E024FFF8A3E034FF229C
:105543008E828F837429F0EEFAEFFB22121FB87458
:105553000312116E7F03020E4874F6120B3E74F7AA
:105563001211CF90056FE070457401F0F912287C99
:10557300851882851983AA82AB83121DD2750864AC
:105583007509057808121126750801750900780850
:10559300121126900850120F17740612143BAC8296
:1055A300AD837A037905121DF6740612116E024754
:1055B300C674F7120B3EEAFEEBFF79011228828EC6
:1055C300828F83E064207004A374EBF090056FE096
:1055D300A2E25003C2E2F0E0A2E150081257F8122F
:1055E3001D0C800C8E828F83742A125549121DA8BC
:1055F3008007EEFAEFFB121E3E7F01020E4874F4A1
:10560300120B3E74FE1211CFEAFEEBFF7901122852
:10561300827A527B05121ECE7A5B7B05121ECE1256
:10562300592F85188285198312595CE0F50B701583
:10563300851882851983AA82AB8379531227921224
:10564300703F1227921248B31211227C0B7D007A0D
:10565300647B05121FB8740312116E8518828519B5
:10566300831266C3A90B121D0690056FE0A2E150D9
:105673000A8E828F83A3E0F9121D0C90056FE4F06C
:105683007402023ACD74F7120B3EEAFEEBFF8E82F0
:105693008F83A374EBF090056FE0A2E1500579EBE3
:1056A300121D0CEEFAEFFB121D3C0255FC74F712AF
:1056B3000B3EEAFEEBFF79011228827A527B051238
:1056C3001ECE7A5B7B05121ECE90056CE4F090052E
:1056D3006FF07AFF7BFF8E828F83A3E0F9121D06A2
:1056E3000255FC74F7120B3EEAFEEBFF121D360265
:1056F30055F574F7120B3EEAFEEBFF79011228828F
:105703008E828F83A3A3A3A3E06003E4800274EBE0
:105713001257465003C2E2F0E0A2E150081257F8D4
:10572300121D0C8014A2E050108E828F83742AF015
:10573300A374EB125549121DA8EEFAEFFB121CE8F5
:105743000255FC8E828F83A3F090056FE0A2E222C4
:1057530074F6120B3EEAFEEBFF90056FE0D2E1F028
:10576300790112287C8E828F83A3E0703B121DD8AF
:10577300E9FAEE240D1257BA1211267508017509BC
:10578300007808121126EE240B1248AC120F17EE04
:105793002402FCEF3400FD7905121DF67406121184
:1057A3006EE98E828F83A3F08E828F83A3E06004E1
:1057B300F9121D0C0247CBF508EF3400F509780800
:1057C3002274F7120B3EEAFEEBFF79011228828E58
:1057D300828F83E064207004A374EBF090056FE084
:1057E300A2E25003C2E2F0E0A2E150061257F8121F
:1057F3001D0C0255FCC2E112741BA3E0F92274F7DD
:10580300120B3EEAFEEBFF79011228827A527B05E6
:10581300121ECE8E828F83A3A3A3A3E06003E48032
:105823000274EB1257465003C2E2F0E0A2E15006C5
:105833001257F8121D0C02573C74F7120B3EEAFE86
:10584300EBFF79011228828E828F83A374EB1257A8
:105853004B5003C2E2F0E0A2E150061257F8121DCA
:105863000C0255FC74F7120B3EEAFEEBFF7A527BF7
:1058730005121ECEEEFAEFFB121D600255F574F70A
:10588300120B3EEAFEEBFF7A527B05121ECEEEFAB6
:10589300EFFB121D600255FC74F7120B3E74EF12FE
:1058A30011CFEAFEEBFF1266037A417B0812291837
:1058B300E960688518828519837409F074011214EC
:1058C3003B74EFF012592FF8740212143BE812598B
:1058D3005CA3A3E0C0E0740412143BD0E01259535C
:1058E300640870158E828F83A3A3125923E0C0E04E
:1058F300740512143BD0E08006740512143BE412C5
:105903005945740612143BAA82AB83121E088518EC
:1059130082851983AA82AB83122E7C741102494CAF
:105923001266362407F582E812629A221263FAFBA2
:105933008A828B83126FA988828983E0FCA3E0F9B2
:10594300EC2212594922F0EE2408FCEF3400FD2228
:1059530012595722126CA9E022F0A3E9126622120F
:10596300596622E0F8A3126A09A3A322C082C08366
:10597300121E4A02520EC082C08390058C7476F0C8
:10598300A37439F0A37451F0A3743AF0900F5B74CD
:1059930015F0A37438F0A374EFF0A37436F09005F8
:1059A300787400F0A3741DF0900575E04401F002D3
:1059B300520EC082C083EAFCEBFD7902121DB402D1
:1059C300520E74F6120B3E74FE1211CF9005711233
:1059D3005A1F60077A717B05121DCC900577E4F09E
:1059E300900617125A1F602C800D85188285198323
:1059F300AA82AB83121DCC900570E0F9121FEE8AC8
:105A0300088B09A808A909851882851983125534BA
:105A1300E84970D674020247C8900545126FA9E899
:105A2300492274F6120B3EE9FA7B00900570E0F907
:105A33001220180247CB74F7120B3E74F01211CFE9
:105A4300EAFEEBFF89088E828F83E0F8741B28F54A
:105A530082743A125C06C0E0740112143BD0E0F089
:105A6300640B700D8E828F83A3E9F0121E2C025BF0
:105A73003EE07003025B3E640C6003025B2A741A0F
:105A83006508700B740412143BE4F0A3025B2974E1
:105A93000412143BEEF0A3EF12663BC0E074031252
:105AA300143BD0E0126C9C121410740612143B12B7
:105AB30014048E828F83A3A3A3A3A3A3A3A3A312DC
:105AC3006FA5740A12143BE8F0A3E91262B76009E8
:105AD300851882851983E48012EE24121244FE9005
:105AE300085DE0C398851882851983F0E0C0E074EF
:105AF3000C12143BD0E0F0EE24151246B2C0E07451
:105B03000D12143BD0E0F0EE24161246B2C0E0743E
:105B13000E12143BD0E0F0EE24171246B2C0E0742C
:105B23000F12143BD0E0F0740212143BE508F0743A
