:020000040000FA
:06000000020A8902020B56
:03002B0002078C3D
:030053000201584F
:03006B0002076326
:100083000201A70101FF0503010FF311F311F3119E
:10009300F311A3109D10F311FC2500000000D024E0
:1000A30000000000FF000000FF0001FFFF0101004E
:1000B300FD05000000540664006400B8010202005C
:1000C30008000005020704051E02051E0A03B80BFB
:1000D300020102E8030A050001FFFF020020FD0000
:1000E300020612FFFFFF0D5EC05EE1020196820170
:1000F30090820D430C000000FF95219B21A121A7B5
:100103002100000000AD21D121B321B921BF21C5B8
:1001130021CB21012B2231220000372200000000D5
:100123000000000000000000000000006722000043
:10013300000000000000000049224F2255226122E6
:100143005B220B04010501020220820705810B5E7D
:10015300C010080200C0E074F212048FA2AFE433AF
:10016300FED2AFE5A7FFE5A1F5085F5410600612C4
:100173001A0975A1EFE5085F54086008121A0F7594
:10018300A1F78013E508A2E092F0EFA2E082F0501D
:1001930006121ADB75A1FE751A00EEA2E092AF7F7C
:1001A300010204EEC0E074F212048FA2AFE433FE46
:1001B300D2AF9061A4E0F8759B00E59158540860B4
:1001C300087591F7121A6F8023E59158541060084F
:1001D3007591EF121A758014E591A2E092F0E8A2EE
:1001E300E082F05007E0C2E0F0121BD19061A3E07F
:1001F300F8E5E9585404600E121BA775E9FB9061FA
:1002030093E0A2E640F2808FC0E074F212048FA262
:10021300AFE433FED2AF9061A5E0F8E5BF585404D4
:10022300600675BFFB121BE902019AC3E498F8E468
:1002330099F912026F8026C3E49AFAE49BFBE92042
:10024300E7E912026FE498F8E499F922C3E498F815
:10025300E499F912026FE498F8E499F9C3E49AFA7D
:10026300E49BFB22EB20E7CFE920E7E0B90010BBDA
:100273000008E88AF084F8AAF022E4FBC8FA22EB2B
:1002830070227B10C833C8C933C9335007C39AC31C
:10029300DBF280069A50012ADBEAC833F4C8C9337B
:1002A300F4C9FA2275F008E4C833C8C933C933C99D
:1002B3009AC99B5004C92AC93BD5F0ECFBC833F457
:1002C300C8E4C9FA22080808EAC0E0EBC0E086F0F7
:1002D300E7A4FA180986F0E7A42AFA180986F0E7D2
:1002E300A42AFA180986F0E7A42AFA1986F0E7A4E3
:1002F300FBE5F02AFA190886F0E7A42BFBE5F03AB0
:10030300FA190886F0E7A42BFBE5F03AFA18180966
:1003130086F0E7A4C5F02BFBE43AFA1908E7C5F029
:10032300C6A426F6E5F03BFBE43AFA1886F0E7A408
:10033300F6E5F00826F6E43B08F6E43A08F6D0E0E2
:10034300FBD0E0FA22E4CFC0E0E4CEC0E0E4CDC0CD
:10035300E0E4CCC0E075F020C3E633F608E633F6FC
:1003630008E633F608E633F6181818EC33FCED33D9
:10037300FDEE33FEEF33FFC3EC9709ED9709EE97DC
:1003830009EF97191919400FFFEC97FC09ED97FD39
:1003930009EE97FE191906D5F0BEECF709EDF7093A
:1003A300EEF709EFF7191919D0E0FCD0E0FDD0E022
:1003B300FED0E0FF222518C582C0E0E51934FFC551
:1003C30083C0E0E518C3958224F810AF088583192C
:1003D3008582188008858319858218D2AFCEF0A351
:1003E300E520F0A37808E608F0A3DEFAEFF0A3E532
:1003F3008124FAF8E608F0A3E608F0A3E608F0A3E0
:100403000808E608F0A3E608F0A315811581D0E0FB
:10041300FED0E0F8158115811581E8C0E0EEC0E05B
:1004230022120AEBB90003020479E49004017875FF
:10043300790A8002F0A3D8FCD9FA781A9000867A58
:1004430001BA00028007E493A3F608DAF9900D7568
:10045300AA82AB8390008778D279018015E493A3B5
:10046300AC82AD838A828B83F0A3AA82AB838C8216
:100473008D83D8E9D9E77582D77583EC74041208A4
:100483005075823B7583247400120850C0D0251820
:10049300C582C0E0E51934FFC583C0E0E518C39504
:1004A3008224F310AF088583198582188008858319
:1004B30019858218D2AFC8F0A3E9F0A3EAF0A3EB41
:1004C300F0A37908E709F0A3D8FAECF0A3EDF0A3C1
:1004D300EEF0A3EFF0A3D0E0F0A3D0E0F0A3D0E0E0
:1004E300F0A3E520F0A3E5F0F0A322851983851896
:1004F30082E0C0E0A3E0F9A3E0FAA3E0FBA378085D
:10050300E0F608A3DFFAE0FCA3E0FDA3E0FEA3E02E
:10051300FFA3E0C0E0A3E0C0E0A3E0F5D0A3E0F5D3
:1005230020A3E0A3F5F010AF088583198582188016
:1005330008858319858218D2AFD082D083D0E0F8A2
:10054300D0E032E47375F0108E218F2285822685E8
:100553008325851882851983E0CEA3E0CF85268283
:10056300852583EBC9EAC8EDCBECCAC3E833C8E9F8
:1005730033C9EA33CAEB33CBC3EA9EF524EB9FF5C9
:1005830023B35004AB23AA24EC33CCED33CDD5F005
:10059300DAAE21AF2222D083D082ECC0E0EDC0E0FE
:1005A300E493A3FCE493A3FDED4C600D120671EC00
:1005B30024FFFCED34FFFD80EFE493A3FCE493A35D
:1005C300FDED4C600D12070EEC24FFFCED34FFFD36
:1005D30080EFD0E0FDD0E0FCE493A3C0E0E493C05F
:1005E300E022851983851882E0A3FEE0A3F5207835
:1005F30008E0A3F608DFFAE0A3FFE0A3C0E0E0A36E
:10060300C0E0E0A3C0E0E0A3C0E0E0A3C0E010AF1F
:10061300088582188583198008858218858319D2F5
:10062300AFD083D082020856D083D082E9C0E0E401
:1006330093A3C386F0C5F095F0F908E493A386F07D
:10064300C5F095F0700BE493A3C3994005E90480CA
:1006530002A3E475F002A42582F582E5F03583F563
:1006630083D0E0F9E493A3C0E0E493C0E022C0E0C8
:10067300C3E49396087401939618400FE49366704D
:100683000808740193661870007019A3A3C3E49358
:1006930096087401939618A3A3400DD0E0D0E0D040
:1006A300E00205D5A3A3A3A3A3A3D0E022740480EF
:1006B3000474028000CCC0E0EDC0E0E518C39CCC1C
:1006C300AD1950011D10AF068C188D1980068C18BA
:1006D3008D19D2AF1207D2D0E0FDD0E0FC22740214
:1006E3008000CCC0E0EDC0E0E518C39CCCAD195050
:1006F300011D10AF068C188D1980068C188D19D228
:10070300AF1207B0D0E0FDD0E0FC22C0E0C0F0881B
:10071300F0E4936670080874019366187000A8F0FB
:10072300A3A3700BD0F0D0E0D0E0D0E00205D5A3B6
:10073300A3D0F0D0E022D083D082CCC0E0E493A356
:1007430060061208121470FAE493A36006120909F2
:100753001470FAD0E0FCE493A3C0E0E493C0E02279
:10076300C0E074F212048FA2AFE433FED2AFE58986
:1007730054F8600312190D758900C2C5751A00EE8D
:10078300A2E092AF7F010204EEC0E0C0D0E8C0E077
:10079300E9C0E0E5A8D2AFC2C7751A00A2E7A2E795
:1007A30092AFD0E0F9D0E0F8D0D0D0E032CAC0E0C8
:1007B300E493A3C582CCC582C583CDC583F0A3C50D
:1007C30082CCC582C583CDC583DAE5D0E0CA22CA0F
:1007D300C0E0E0A3C582CCC582C583CDC583F0A3A9
:1007E300C582CCC582C583CDC583DAE6D0E0CA22F3
:1007F300C008C3E096F50808A3E096420808A3E002
:1008030096420808A3E09645087001D3D00822C099
:10081300E0E493A3D39C5010E493A3C39C400AD079
:10082300E0D0E0D0E0020756A3A3A3D0E0227009F2
:10083300080808226016181818C6C333C608C6333A
:10084300C608C633C608C633C6D5E0EA22C09FF53C
:100853009FE473D09F22D083D082C09FE493C0E0F3
:10086300740193C0E0740293F59F227404800A74A8
:10087300038006740280027401C0E0F40412088944
:10088300D0E0120AC6222518F58210AF08F51840E9
:100893000215198008F51840021519D2AF8519837E
:1008A30022C0D0251810AF08F5185002051980088A
:1008B300F51850020519D2AFD0D022BB0102E722AE
:1008C300C082C08389828A83BB0003E08002E493F1
:1008D300D083D082226016080808C6C313C618C680
:1008E30013C618C613C618C613C6D5E0EA22C3E05A
:1008F300C696F608A3E0C696F608A3E0C696F608E1
:10090300A3E0C696F622C0E0E493A36C7009D0E09E
:10091300D0E0D0E0020756A3A3D0E022251810AF01
:1009230008F518400215198008F51840021519D268
:10093300AF22C3E09608A3E09608A3E09608A3E0DD
:1009430096A2D265D03322E066701008A3E06670E9
:100953000A08A3E066700408A3E06622E766701045
:100963000809E766700A0809E76670040809E7667C
:1009730022C3E096F008A3E096F008A3E096F008FF
:10098300A3E096F022C3E697F60809E697F608096E
:10099300E697F60809E697F622C3E49396087401EE
:1009A30093960874029396087403939622E647F687
:1009B3000809E647F60809E647F60809E647F62276
:1009C300700422600D18C6C333C608C633C6D5E00B
:1009D300F41822E026F008A3E036F008A3E036F08E
:1009E30008A3E036F022E657F60809E657F60809A9
:1009F300E657F60809E657F622E056F608A3E0564E
:100A0300F608A3E056F608A3E056F622E627F60812
:100A130009E637F60809E637F60809E637F622E06D
:100A230056F008A3E056F008A3E056F008A3E056FA
:100A3300F022E026F608A3E036F608A3E036F6082F
:100A4300A3E036F622E4C396F608E496F608E496A5
:100A5300F608E496F622C6F4C608C6F4C608C6F439
:100A6300C608C6F4C622C3E7960809E7960809E74D
:100A7300960809E79622C3E09608A3E09608A3E048
:100A83009608A3E0962275D000758140751801750C
:100A9300190400020424E0F608A3E0F608A3E0F634
:100AA30008A3E0F622600C08C6C313C618C613C613
:100AB300D5E0F422E6F008A3E6F008A3E6F008A3E5
:100AC300E6F022CAC0E0E6F0A308DAFAD0E0FA22A0
:100AD300E0FAA3E0FBA3E0FCA3E0FD22EAF0A3EB32
:100AE300F0A3ECF0A3EDF022E5C754F84401F5C7F9
:100AF3007901222518F582E43519F58322C2AF75F1
:100B0300D69F020000221208597550001208599FFF
:100B13005000120859195100120859725100120855
:100B230059D051001208592D5400120859F7550095
:100B3300120859BB56001208590E5800120859DB07
:100B43005A00120859D75D00120859E65D001208D1
:100B530059775E00120859345F001208597C5F0010
:100B6300120859C55F001208590260001208597132
:100B73006000120859DD6000120859F9600012087C
:100B8300592D61001208597861001208597A6200E0
:100B9300120859316300120859C065001208590F31
:100BA3006700120859BC67001208594C6800120804
:100BB30059706800120859226900120859EF690038
:100BC300120859AE6B00120859EC6B0012085963F6
:100BD3006C00120859C26D001208596F6E0012089A
:100BE30059B06E00120859C86E001208597A6F0086
:100BF3001208593C7200120859DA7300120859FEA0
:100C030073001208591C7400120859057500120864
:100C130059BC7800120859DA7800120859CFCA0271
:100C2300120859E1CA0212085939CB021208599F16
:100C3300CB0212085929CC02120859E7CC02120838
:100C4300592FCD021208595BCD021208599BCD02D0
:100C530012085902CE0212085977CE02120859908F
:100C6300CE02120859B6CE02120859D5CE02120886
:100C73005913CF0212085968CF021208598FCF02B5
:100C8300120859ECCF02120859B3D0021208594C7A
:100C9300D102120859CFD102120859A3D202120865
:100CA3005985D30212085994D3021208599FD302CB
:100CB30012085975D40212085986D402120859F938
:100CC300D40212085991D502120859EAD502120822
:100CD30059CED602120859F3D60212085934D70254
:100CE30012085941D7021208594AD7021208595516
:100CF300D902120859A1DA0212085932DB0212088A
:100D030059A0DB02120859C2DC0212085945DF025E
:100D130012085959DF0212085963DF021208596D8C
:100D2300DF0212085977DF0212085981DF02120825
:100D3300598BDF0212085995DF02120859BDDF02F1
:100D4300120859C8DF02120859ECDF0212085910C1
:100D5300E00212085980E002120859CCE00212089E
:100D630059E8E0021208594EE10212085995E102CE
:100D7300120859E1E10212085960E20212085931DE
:100D8300E402120859B9E402120859B6E50212083E
:100D93005937E8021208598CE802120859B4E802DC
:100DA30012085919EA0212085955EA02120859A7FA
:100DB300EA0212085962EB021208590DEC021208FA
:100DC3005987EC0212085929ED02120859ADED02B8
:100DD3001208599E8201120859D08201120859D370
:100DE30084011208591985011208596585011208F1
:100DF30059F885011208595C86011208599C86012D
:100E0300120859F58701120859F88801120859DDAB
:100E13008C01120859828D011208598B8E01120818
:100E230059EE8E011208592E9001120859C49201ED
:100E33001208595C930112085966930112085994D8
:100E43009301120859729401120859499501120825
:100E530059D695011208591C960112085945960155
:100E63001208597296011208599C98011208596D7B
:100E73009901120859AC9901120859239A011208D1
:100E830059E59A01120859179B011208595E9B01F3
:100E93001208599A9B01120859EF9B0112085943F2
:100EA3009C01120859B69C011208591B9D01120896
:100EB30059779D01120859149F01120859FF9F0188
:100EC30012085914A1011208592AA40112085967DA
:100ED300A6011208590AA70112085948A7011208C6
:100EE3005922A90112085935A9011208593EA9012D
:100EF30012085947A9011208595CA9011208597B24
:100F0300A90112085927AA011208597CAA0112083B
:100F13005986AA0112085990AA01120859DCAA019C
:100F230012085928AB0112085935AC011208598B24
:100F3300AC011208593CAD01120859EAAD0112087F
:100F430059DDAE01120859FDAF01120859D8B0019D
:100F5300120859EFB0011208592CB1011208593681
:100F6300B10112085954B10112085996B10112087E
:100F730059CBB10112085961B20112085976B30174
:100F83001208590CB40112085987B40112085926E2
:100F9300B50112085960B6011208597CB70112084D
:100FA3005931B8011208599FB8011208596AB90199
:100FB3001208599FB90112085990BA01120859D45D
:100FC300BA011208592CBB011208598ABB01120835
:100FD30059AEBB01120859D9BB0112085920BC01F3
:100FE30012085945BC01120859C6BC011208592AF6
:100FF300BE0112085968BE0112085991BE011208B8
:101003005963BF011208599CBF01120859DC9F04A0
:1010130012085914A00412085935A004120859776C
:10102300A004120859D9A004120859E3A004120815
:1010330059F3A0041208592AA10412085966A104FD
:1010430012085928A504120859E9A6041208590BD5
:10105300A904120859CAA90412085997AA04120824
:1010630059ECC10112085946C201120859A8C2011C
:10107300120859F2C2011208590DC301120859345A
:10108300C30112085951C3011208595DC301120863
:101093005906C5011208591FC501120859A5C501F2
:1010A300120859B8C501120859CAC5011208597660
:1010B300C601120859E1C70112085998C90112085B
:1010C300591ECA0112085920CA0112085988CA01B7
:1010D300120859A6CA011208593CCB0112085979C2
:1010E300CB011208597CCB01120859A7CB01120876
:1010F3005904CC0112085928CC0112085946CC01D5
:1011030012085994CC01120859EDCD011208594522
:10111300CE0112085992CE0112085919CF011208B3
:101123005941CF0112085977CF0112085986CF01CF
:10113300120859E4CF0112085955D00112085992E7
:10114300D001120859CDD001120859F8D001120864
:101153005912D1011208592CD10112085900D20198
:101163001208590AD20112085946D20112085956D7
:10117300D2011208595FD201120859BFD2011208D5
:1011830059D3D201120859DDD301120859F0D30102
:1011930012085907D4011208591CD401120859C165
:1011A300D4011208593DD501120859E0D50112089E
:1011B30059ECD50112085932D7011208594ED701FB
:1011C300120859A2D701120859DED701120859F89B
:1011D300D7011208593AD80112085986DA011208C0
:1011E300592DDB01120859C9DB01120859EFDD0142
:1011F30012085907DE011208590ADE0112085916AE
:10120300DE011208592ADE0112085932DE011208E2
:10121300596FDE0112085968DF01120859E7DF012F
:1012230012085969E001120859E3E001120859B59F
:10123300E101120859D7E10112085973E2011208BA
:10124300597FE201120859AAE201120859ADE201DD
:10125300120859DAE201120859EFE2011208595E45
:10126300E301120859C1E401120859D8E501120833
:101273005963E601120859A0E70112085970E80101
:10128300120859A1E801120859CDE801120859D6EC
:10129300E80112085905E901120859B5E9011208D4
:1012A300596FEA01120859E3EA011208597FEB0169
:1012B30012085907EC011208593DEC011208598232
:1012C300EC01120859B7EC0112085945AB04120896
:1012D3005998AB04120859D5AB0412085925AC042C
:1012E300120859A9AC04120859CFAE04120859C9FF
:1012F300B0041208597CB404120859B3B404120898
:1013030059D1B40412085931B5041208595EB50411
:1013130012085986B504120859BBB504120859E7D7
:10132300B50412085947B60412085993B6041208B3
:10133300590FB7041208594AB70412085986B7045B
:10134300120859E0B804120859FCB80412085930BD
:10135300B904120859C9B9041208591ABA0412086F
:1013630059F1BA04120859D9BB0412085920BC0414
:1013730012085981BC04120859EDBC0412085943E0
:10138300BD041208598CBD041208592BBE0412085F
:101393005929BF041208596DBF04120859BBBF0471
:1013A300120859DDBF0412085984C00412085935C4
:1013B300C104120859F87800120859447900120838
:1013C30059B27900120859D37900120859897A0061
:1013D300120859927A00120859E57A001208590E38
:1013E3007B00120859237B001208598E7B001208D8
:1013F300591F7C001208595B7C00120859B67C0007
:101403001208590E7D001208593C7D00120859B488
:101413007D00120859F37D001208591D7E00120841
:1014230059567E00120859687E001208597A7E00C8
:10143300120859997E00120859A27E0012085955C4
:101443007F00120859957F00120859BE7F001208C9
:1014530059EC8205120859D383051208594C8405A7
:1014630012085993F704120859CBF70412085916B6
:10147300F8041208596CF904120859008004120880
:10148300593C81041208597881041208592F8304A6
:10149300120859588304120859EF85041208592F6A
:1014A3008604120859C8870412085962880412086E
:1014B30059F58804120859678904120859F48904F4
:1014C300120859048A04120859168A041208595634
:1014D3008A04120859BB8B04120859608D04120840
:1014E30059588F04120859868F04120859BB8F0468
:1014F300120859C48F041208593C90041208596108
:101503009304120859B58B05120859CB8B051208A1
:1015130059D58B05120859258C05120859358D05A7
:10152300120859C3DD04120859DCDD04120859817D
:10153300DE04120859C1DE04120859DADE04120867
:101543005913DF0412085960DF0412085992DF04AB
:10155300120859D4DF04120859D7E104120859417B
:10156300E204120859A58905120859CA8905120807
:1015730059E58905120859FD89051208593F8A055D
:10158300120859578A05120859A7B403120859FFBC
:10159300B40312085997B50312085967B603120822
:1015A30059B4B60312085998B703120859ADB703D3
:1015B300120859F7B7031208594BB8031208595EBA
:1015C300B803120859ADB803120859C5B803120875
:1015D300593DBB03120859CCBB0312085903BC0382
:1015E3001208593BBC0312085905BE03120859657A
:1015F300BE03120859B0BE0312085997BF0312085D
:1016030059D7BF03120859F6BF0312085941C00343
:1016130012085957C00312085964C0031208599D90
:10162300C003120859AFC00312085968C103120856
:1016330059C2C10312085912C2031208592AC3031B
:101643001208599BC50312085948C6031208598A40
:10165300C60312085945C70312085967C70312087E
:10166300596AC70312085974C70312085990C7036C
:101673001208590BC80312085944C80312085960C9
:10168300C8031208598CC803120859ABC8031208BF
:1016930059E6C80312085909C9031208591CC9039A
:1016A30012085937C90312085967C9031208598424
:1016B300C903120859B2C903120859FFC903120812
:1016C3005921CB03120859538C051208595F8C0515
:1016D3001208599B8C0512085920EE021208593C36
:1016E300EE0212085949EE021208591EEF021208BF
:1016F300597F4A00120859AEEF0212085913F0023B
:1017030012085964F002120859D1F00212085965FF
:10171300F102120859E2F10212085925F2021208E5
:1017230059D1F602120859FFF80212085937FA0282
:10173300120859C4FA02120859F29304120859BF45
:1017430094041208593F9504120859E095041208AD
:1017530059375000120859B0970412085965980474
:10176300120859D798041208597F9A041208593657
:101773009B04120859E29B04120859AC9C041208FA
:1017830059469D04120859549E0412085978CC03F3
:10179300120859E9CC0312085937CD031208597DB1
:1017A300CD03120859D4CD0312085931CE031208C0
:1017B3005972CE0312085929CF031208597ECF0359
:1017C30012085914D003120859B7D003120859ED5F
:1017D300D0031208590ED1031208591CD103120861
:1017E3005932D1031208599DD1031208593FD3032B
:1017F30012085956D303120859ADD4031208593F9E
:10180300D50312085992D503120859FCD5031208BF
:1018130059AED603120859A1D80312085984D90323
:101823001208598FDA03120859CCDB031208593511
:10183300DD03120859CADE03120859D8DE03120861
:1018430059E8DF0312085995E003120859E8E00349
:10185300120859FDE003120859FBE1031208591954
:10186300E3031208597EE30312085994F2041208A1
:1018730059F7F20412085932F3041208598FF3048A
:10188300120859F5F30412085996F4041208596E14
:10189300ED0412085986ED0412085912EF041208D8
:1018A30059B3EF04120859D1FF02120859C1880530
:1018B300120859CF880512085986FF04120859D017
:1018C300FF04120859EBFF02120859D787051208C3
:1018D30059E78705120859F98705120859BB880586
:1018E3001208599585051208591A8605120859AD2B
:1018F30086051208590080051208592F8005120821
:1019030059808005120859B180051208591B8105B9
:101913001208594281051208595D8105120859ECD4
:101923007F00120859EF7F00120859F27F00120856
:1019330059F57F0012085920E6041208592EE604CF
:10194300120859A8E6041208598CE70412085950E2
:10195300E90412085995E904120859C3E904120865
:1019630059F87F00120859CFF90412085907FA04ED
:1019730012085958FB04120859DCFB04120859DEFB
:10198300D20412085925D3041208596CD40412083E
:1019930059C1D404120859E4D404120859F9D404DF
:1019A30012085913D504120859E5D504120859DC55
:1019B300D604120859AED7041208598AD80412085B
:1019C30059C7D804120859E1D804120859FBD8049E
:1019D30012085915D9041208597781051208599B21
:1019E3008105120859B48105120859F381051208BB
:1019F3005926820512085956820512085960820534
:101A0300120859C88205120859CB8205120859D504
:101A13008205120859E28205120859E0E904120806
:101A23005916EA0412085960EA0412085988EA04AC
:101A3300120859E9EA0412085907EB04120859225B
:101A4300EB041208593CEB0412085948EB04120842
:101A530059A7EB04120859D3EB04120859E2EB041B
:101A630012085906EC041208598BEC041208599811
:101A7300EC04120859A9EC04120859B9FF0312081F
:101A830059D1FF03120859D9FA0312085946FC0326
:101A93001208594CFC0312085963FC0312085984B9
:101AA300FC031208599AFC03120859AEFC031208EE
:101AB300593AFD031208599EFD0312085926FE03E5
:101AC3001208593AFE0312085975FE031208594EBB
:101AD300FF031208595EFF031208596DFF03120832
:101AE3005988FF031208591C8B05120859408B05AE
:101AF300120859688B05120859908B051208592C46
:101B0300F50412085953F50412085974F504120820
:101B130059DAF504120859C7EF04120859E0EF0423
:101B2300120859F7EF0412085900F0041208591E5D
:101B3300F00412085928F00412085932F00412086C
:101B43005945F004120859D3F00412085942F1041C
:101B530012085970F104120859C1F1041208590D01
:101B6300F20412085928F20412085932F204120836
:101B73005943F20412085989F204120859D88C0502
:101B8300120859298D0512085982C104120859AE49
:101B9300C104120859CCC104120859DFC104120848
:101BA30059FAC1041208595DC2041208598BC204C0
:101BB30012085995C604120859B2C704120859E409
:101BC300C7041208593BC804120859B3C9041208C0
:101BD30059DBC904120859F0C90412085900CA0490
:101BE30012085940CA041208598CCA041208599C95
:101BF300CA041208595D84051208596D8405120838
:101C0300598B8405120859A68405120859CD8405F9
:101C1300120859EE8405120859088505120859401F
:101C23008505120859638505120859618A0512084A
:101C330059A78A051208594EE2041208595EE204B4
:101C43001208597FE304120859AFE304120859ED4F
:101C5300E3041208591DE40412085945E404120868
:101C63005957E40412085993E404120859F9E40497
:101C730012085935E5041208597CE504120859A9DC
:101C8300E504120859D5E504120859DFFB041208CC
:101C930059F1FB041208590CFD0412085999FD046B
:101CA3001208599CFD04120859C6860512085938B2
:101CB3008705120859748705120859B58705120854
:101CC30059CACA04120859E0CA041208597ACB0443
:101CD300120859ECCB04120859F4CC04120859EE3B
:101CE300CD0412085915CE04120859B2CE041208B5
:101CF30059F1CE0412085918CF0412085928CF04F9
:101D03001208594FCF04120859A1CF0412085935AC
:101D1300D1041208593AD1041208595CD1041208AB
:101D2300592AA70212085936A70212085993A70283
:101D3300120859ABA7021208596BA8021208597866
:101D4300A802120859F4A80212085987A902120816
:101D5300590FAA0212085919AC0212085912AE02FD
:101D630012085929AF02120859CEAF02120859833B
:101D7300B40212085972B502120859FBB5021208CF
:101D8300590EB6021208594DB6021208597CB60212
:101D930012085948B70212085966B7021208598443
:101DA300B70212085900B8021208591FB8021208E4
:101DB3005943B802120859B1B90212085957BA0265
:101DC3001208599EBA0212085917BB02120859A4E5
:101DD300BB021208590DBC0212085977BC02120843
:101DE30059B5BC021208596ABD02120859E9BD026D
:101DF30012085925BE0212085981BE02120859D68B
:101E0300BF0212085949C10212085907C202120837
:101E13005939C202120859E5C30212085928C602E9
:101E230012085936C7021208590080021208599441
:101E33008002120859F680021208595581021208CD
:101E430059CB8102120859BA8202120859D083026F
:101E5300120859578402120859868502120859201C
:101E63008602120859CF86021208599D8802120869
:101E730059B38902120859608A02120859F88A0272
:101E8300120859288B02120859748B021208591B25
:101E93008C02120859548C02120859CB8D02120875
:101EA30059668E021208590F9202120859D69302EC
:101EB3001208596D9402120859BF9402120859343A
:101EC3009502120859B195021208592A960212086E
:101ED300594A9602120859C59F02120859EFA102E6
:101EE30012085983A30212085901A5021208592A9C
:101EF300A5021208595EA50212085947A602120844
:101F03005913A70212085920A702120859C7FD0442
:101F13001208593DFE041208599AFE04120859008A
:101F230080031208598C8003120859CB80031208CE
:101F3300593D8103120859C981031208596082036C
:101F4300120859C882031208597B8303120859C324
:101F530084031208596D8503120859D486031208A5
:101F630059318803120859B78803120859B18903F4
:101F7300120859D18A03120859348C03120859A93B
:101F83008C03120859D18C031208592B8D031208A4
:101F9300596D8D03120859BC8D03120859E88D033E
:101FA3001208594B8E03120859678F03120859659B
:101FB3009003120859AE9103120859D791031208DE
:101FC30059579203120859DA92031208594B930393
:101FD300120859DF93031208593594031208591450
:101FE30095031208590996031208595396031208C8
:101FF300599D9603120859409703120859B3980341
:102003001208596E9A03120859629B03120859CA9F
:102013009B0312085933E4031208596EE4031208B0
:102023005908E50312085953E503120859B4E503A7
:1020330012085913E60312085964E603120859CC2F
:10204300E603120859D5E70312085956E8031208A4
:10205300598BE803120859B7E803120859F2E80349
:102063001208594BE90312085966EA03120859305A
:10207300EB0312085992EC03120859B7EC03120848
:1020830059BEEC031208590EED031208593BED0338
:10209300120859E4ED0312085929EE0312085950A6
:1020A300EF03120859F5EF0312085935F00312082C
:1020B3005980F003120859B6F0031208591DF303AF
:1020C30012085920F4031208594EF4031208599EBA
:1020D300F403120859C3F40312085902F503120852
:1020E300591DF50312085941F50312085971F503F7
:1020F3001208598FF603120859F6F60312085917F6
:10210300F90312085963F9031208598DF9031208E8
:102113005932FA031208593A9C03120859589C037E
:10212300120859729C031208597C9C0312085986A1
:102133009C03120859909C03120859909D0312089E
:1021430059EF9D03120859499E03120859BA9E0379
:10215300120859CF9E03120859E69E03120859F735
:10216300A30312085917A40312085930A403120831
:102173005984A40312085911A50312085955A6033B
:102183001208593CA80312085957AA0312085921E7
:10219300AB031208598EAB031208595EAC03120845
:1021A30059A6AC0312085947AD0312085973AD037E
:1021B30012085952AE0312085990AF03120859C2BC
:1021C300B00312085919B1031208596DB10312086B
:1021D30059CAB1031208593FB20312085966B20330
:1021E3001208591AB30312085949B3031208590DB7
:1021F300B4031208593AB4031208591FED01120827
:102203005997ED01120859ACEE0112085965EF0117
:10221300120859BBF001120859A5F1011208599E81
:10222300F70112085992F801120859E9F801120846
:102233005960F90112085983F90112085986F90105
:10224300120859CAF901120859CFF901120859376E
:10225300FB01120859EDFC0112085929FE0112086D
:1022630059BBFE0112085909FF0112085976FF01F3
:10227300120859AFFC02120859CAFC021208590E7F
:10228300FD0212085934FD021208595BFD021208BF
:102293005973FD021208591DFE0212085927FE0246
:1022A30012085940FE021208594EFF0212085969DA
:1022B300FF0212085972FF021208597BFF0212082B
:1022C3005984FF0212085993FF021208592FD904A7
:1022D30012085952DD0412085957DD0412085959DE
:1022E300DD04120859CFFF01120859054A001208EC
:1022F30059C449001208596649001208591A48007E
:102303001208599C4700120859764700120859B21F
:102313004600120859F34400120859934400120866
:1023230059644400120859614400120859324300A9
:102333001208591B4200120859D04000120859F7DD
:102343003F00120859733F001208597A3E001208E1
:1023530059D73D001208591B3D00120859D93C00BA
:10236300120859413C00120859003C00120859A3B5
:102373003B00120859873B00120859434F001208CB
:1023830059994D00120859694D001208593D4D00E5
:10239300120859294D00120859303B00120859FB05
:1023A3003A001208599C3A00120859154D001208B8
:1023B300596B3A001208591F370012085954360056
:1023C300120859303500120859734C001208596E1F
:1023D3009604120859B134001208597634001208D1
:1023E300592B34001208591F34001208597E330048
:1023F300120859443200120859D72F001208594ABB
:102403002D00120859082D00120859D22B0012086A
:1024130059682B00120859982A00120859062900F6
:10242300120859D22800120859184C00120859A052
:10243300280012085967EF0200000080FB000136F4
:10244300360101000102010001030100010401063C
:102453000605020000070100340801000F0904010A
:10246300010D0100FF0E0800001702000019010012
:10247300FF1A0100011B0100FE1C0100081D0200E0
:10248300001F0100012001000121020000230100BF
:102493000F24020000260100012701000828020082
:1024A300FF2A0100072B0102402C0100002D01002F
:1024B300012E0100012F0100FF30010B1C31080028
:1024C300003A0100083B01000F3C010001010371C8
:1024D30003010301030103010301032203020301B7
:1024E30003100300030003000300030003000300C1
:1024F300034203000324030603000300030403123F
:102503000325032303250323030403040300030018
:1025130003000344030003000323030003650321B3
:1025230000350381030003050300030003000300D8
:1025330003250323030302710230016002110270B9
:10254300020102020202028002100261023A004109
:102553000063027302720262024302000213023832
:102563000000020002040212020002000200020044
:102573000204020402370037003C0244020002391D
:10258300000002000265020002350281020002051A
:1025930002820283020002010171010101010111A2
:1025A3000101013101010101018001100161013BC0
:1025B30000140063017301720162014301000113FE
:1025C3000106013D01350004011201000100010073
:1025D30001000104010401330133013C01440132D0
:1025E3000136000001000165010001350081010091
:1025F30001050182018301000103007100300160C4
:1026030000110070003102200350048000100061AB
:1026130000000014006300730072006200430000B6
:102623000013000600000000000400120000000078
:10263300000000000004000400370037003C02449F
:10264300000000000000000000650000003500816C
:102653000000000500000083000000F31D111EF9B7
:102663001D331DFF1D171EFF1D231E051E331DFFDA
:102673001D171E0000000000000000000000000005
:10268300000000000000000B1E331D0000000000CE
:102693000000000000000000000000000000000037
:1026A3000000000000000000000000000000000027
:1026B300000000000000000000030020019D8200D4
:1026C300000000200198820000010020019982008F
:1026D30000020020019A82000000404201D58100DF
:1026E30000040042014580000005004201678000AC
:1026F300000600420195810000070030019B820320
:1027030000000021036A0D36000100060000000FDF
:102713000000000000000000000000000003FFFFB5
:1027230000000403FFFF0000FFFF0FF4010005C4D6
:10273300040320000100000B000000000000000063
:1027430003010F0007ECFDFDFDECDCDCCCBCACAC05
:102753009C9C8C7C7C6C6C5C5C5C4C4C3C3C2C2C66
:102763001C1C0100CF230200FD1603000317040005
:10277300091705000F1706001B17FFFF000003EAE8
:10278300F5E5D5D5C5B5A595958585757565655566
:102793005545453535252515150503113311091102
:1027A3000F112D1121111B1139113F114511511118
:1027B3001511FD10F7100A4B0E02150E05270E0713
:1027C3001B0E0CFD0D0D090EFF000000160F00007F
:1027D3000B150B020002220F3300000E5A696742E9
:1027E3006565416C6C69616E63653039010305078A
:1027F300090B0D0F00020406080A0C0DF311051254
:102803000B12C7101112C110CD105F127D1283126B
:10281300651271126B120C0E020B040B0A070800EF
:102823000F000119161816161823030000034D4C48
:102833004651181A250502003C40423A3F3F392FC2
:102843004730303017181921301B1D1F3030301618
:10285300181920231A1C1E3027114B1177125711F8
:102863005D11471217121D122912231202040201CD
:102873000101010902000000000000E8030000005C
:10288300BE040A3C003C000E00E803090408031ED2
:102893001E0C040804042810FF0C150A05C082C08E
:1028A3008312132B90040E7411F0A37424F090047C
:1028B30010740BF0A37424F09004127405F0A37445
:1028C30024F090041474FFF0A37423F00249E0741D
:1028D300F71203B8E9FE900402E4F0EE900401F06D
:1028E3007CEC7D067A037B04121CBB900DC2E09046
:1028F300040BF090040C74D7F0A37406F01223DBDE
:102903000247E974F21203B88A088B09EB5480700A
:10291300030229E1900401E0F91213EB8A0A8B0BFD
:10292300AE0AAF0BEE4F70030229D7125404E0F93D
:10293300124CA0EAFCEBFD90041C1267B6A3A3A300
:10294300A3A3A3E06402703B8C828D83126B9780F8
:10295300078A828B83124F00EA4B60208A828B8323
:10296300E06C7003A3E06D70E88A828B83A3A3E01D
:102973006970DE900DC6123CD0F08051ECFAEDFB8D
:102983001223BD8E828F83E064017035EE2413120F
:1029930073D31206B0EE24121267A2F50A780A1254
:1029A300087A125E56120876EE240B1273D31206BF
:1029B300B4EE2417125E631212E374091208A480A2
:1029C3000CE064027007EEFAEFFB1222EBEEFAEF73
:1029D300FB1213D9AA08E5096480FB022A95EA547D
:1029E30002600D900D757401F0EA6402FA022A95F3
:1029F300EA5404600A1223D5E5086404022A8CEA27
:102A030054087003022A91750C00750D0090041C84
:102A1300124F04750A00750B008010126069900450
:102A23001C124CCA121475EEFAEFFBEA4B6044EA2F
:102A33002403F582EB1267A514F0701A8A828B8344
:102A4300126552E50A450B8A828B83A3A3A3A36075
:102A5300CA12321180CBE50C2401F50CE50D3400CC
:102A6300F50D8A0A8B0B8A828B83A3A3A3A312502F
:102A7300FF80B7E50C450D700C7A087B00900401CC
:102A8300E0F9121547E5086408FAAB0980047A00F7
:102A93007B00022BCD74F41203B88A088B098A8257
:102AA3008B831266C9124EF3E81267A52409FA7BD9
:102AB300001213D38A0A8B0BAE0AAF0BEE4F7003CF
:102AC300022B588E828F837402F0A3E412501DA34D
:102AD300A3A3A3E8F0A3E9124CCEA3A3A3A3A3A3A8
:102AE300A3F0E5082403F8E5091243F7124EF3EACD
:102AF3001273D612540EF0EE2409FAEF124BC412DD
:102B03004929F5838882E0A2E58E828F83A3A3A35C
:102B1300A3A3500474018001E4F0E5082403F888BA
:102B2300828983124F04126528EB1273D6122B5B32
:102B3300120872124EF2EB1249A78E828F83124F44
:102B4300021213B574031208A4EEFAEFFB9004010A
:102B5300E0F91213DF02445CE0F508A3E0F5097520
:102B63000A0078082274F21203B88A088B09ECFA77
:102B7300EDFB740E120AF6E0FC12135B8A0C8B0D4C
:102B8300AE0CAF0DEE4F6031AC08AD09121349E93D
:102B93006027AC08AD09EEFAEFFB12134FE970158D
:102BA3008E828F83122BC0EEFAEFFB121343AA0817
:102BB300AB091213737900800279B4800DA3A3E0EB
:102BC300F508A3E0F509221208A47F060205E574BF
:102BD300EF1203B874F712091F8A0A8B0BECFEED90
:102BE300FF750DB3750C0075100080020510902859
:102BF30097E493F8E510C3984003022CF38510087B
:102C0300AA087B001213AF8A088B09EA450960DC26
:102C13008A828B83A3A3A3A3A3E0250CF50CF50E53
:102C2300C3E50A950EE50B940050C17C157D007930
:102C330000EEFAEFFB1213C1850882850983A3A373
:102C4300A3A3A3E0F8E50AC3950C28C333F8E43340
:102C5300F9E50828F582E50939F583124CB8120E17
:102C6300E1EAFCEBFDEEFAEFFB121CBB8508828563
:102C73000983A3E06401700BEE2413122CFF124F9F
:102C8300DB8046851882851983AC82AD83850882F3
:102C9300850983124F02121397E960387408120AE8
:102CA300F6E0C0E0EE24131273D3D0E0F074081200
:102CB3000AF6E06403851882851983700CAC82AD33
:102CC300831253E4121CBB800B123DD2240B1273EC
:102CD300D3124CCA850882850983124317A3A31212
:102CE3004FE3C0E0EE24141273D3D0E0F0750D006F
:102CF300A90D74091208A47F090205E5F582EF12F4
:102D030041D474012274F71203B8E9FE8A828B83DB
:102D1300A3A3A3A3A3A3E0540860298A828B83A35C
:102D2300A3A3A3A3A3E0540260178A828B83A3A364
:102D3300A3A3A3A3A3A3A3E06406600574E96E7031
:102D4300031223F30247E974E81203B874F7120974
:102D53001F7407120AF6126701E985188285198321
:102D6300F0ECFEEDFF7423120AF6E0F5177515007B
:102D7300122FB11213678A0A8B0BEA450B700302F9
:102D83002F6BEE24101255ACA90A120D4F8A128B29
:102D930013EA45137003022F6BEE2403F50CEF3493
:102DA30000F50DEE2406F508EF125A647C00850841
:102DB30082125D9512136D8A108B11850C82850D1D
:102DC30083E0851282851383A3A3A312420985128C
:102DD30082851383A3A3A3A3E8F0A3E912364F8547
:102DE3001282851383A3A3A3A3A3A3A312580985C4
:102DF3001282851383A3A3A3A3A3A3F0EE126529D1
:102E0300EF122FC6120872EE124EF3EF1249A78586
:102E13001282851383A3124EFC1213B57403120896
:102E2300A47514007421120AF61260697421120A3F
:102E3300F6124CCA7424120AF6E0F5167425120A27
:102E4300F6780C120A99022EF585108285118312E9
:102E53004F0212139D850882850983A3EAF0A3EB31
:102E6300122FD2A3A3124CE212322CA2E6500F85EA
:102E73000882850983A3A3A3A3A3E0D2E1F0E51508
:102E8300705F850882850983A3126069900460E0FE
:102E9300687003A3E0697049850882850983A3A349
:102EA300A31255BB780C12086EE516F510781012B4
:102EB300087A7426120AF61206B490046D1206B448
:102EC30079007410120AF6124CB01223817409129D
:102ED30008A4850882850983A3A3A3A3A3E04405CB
:102EE300F074012514FC122FB112136D8A108B118B
:102EF3000514E5104511604B851408C3E508950AD0
:102F0300E4950B503EE51475F006A4F8A9F0E5121C
:102F130028F8E51339F9E8240CF508E91240B2E47E
:102F2300125A9564016003022E4C751501850882BF
:102F33008509837401122FD212440DA3E8F0A3E98B
:102F4300022E63AA12AB13120D557812120876AD36
:102F530016AC177402120AF6E0F9EEFAEFFB12232D
:102F6300F974021208A480418E828F83A3A3A3E085
:102F7300C0E07404120AF6D0E012364FC0E07405C4
:102F8300120AF6D0E0F0E50A450B70097406120A3E
:102F9300F674B980077406120AF67410F0740112FD
:102FA3000AF6AA82AB8312238774090273C88E823E
:102FB3008F83A3A3A3A31250F88E828F83A3A3A30B
:102FC300E0F9221241D4123A33750E00780C221222
:102FD3005A9AA32274E91203B874F312091F8A0AD6
:102FE3008B0B89168C148D157424120AF6123A2F42
:102FF300AA0CFB120D43E9F513AA0CAB0D120D49F4
:10300300E51370030231EA750E00800F8E828F8301
:10301300A3A3A3A3A3E0D2E3F0050EE50C124CDDBA
:10302300E50D12341AE50EC39840030231E1E513AE
:1030330070030231E1E50E75F006A4F8A9F0E50C82
:1030430028F8E50D39F9E8240CFEE9127212A3A35E
:10305300A3A3E0A2E040C2750F007508087509003C
:10306300E5156003750F207C087D007900851882C3
:10307300851983AA82AB831213C18E828F83E0608A
:10308300339004B0E064017017E50FD2E3F50F75D8
:1030930009108E828F831231FD12480F74FF802432
:1030A300430F0C75080C8E828F83A3123211126B9F
:1030B30082A38010E5166009E50FD2E6F50F7508C7
:1030C3000A12321FF07402120AF6E50F125ABAC03E
:1030D300E07404120AF6D0E0F07405120AF6124CFA
:1030E300ED1216F1740C120AF6E060030231C47497
:1030F30008120AF61241E68E828F83A3A3A3A3F0DC
:103103007408120AF61232311269DEE91273D6E537
:103113001412322C60119004B0E0C0E07408120A5B
:10312300F6123A3BD0E0F0850C82850D83A3A3A36E
:10313300E0C0E07408120AF6125DBBD0E0124D0540
:10314300C0E07408120AF6123A44D0E0F074081290
:103153000AF61232111266EC125AC7E01266D5EA69
:10316300F0A3EB125AB0C0E0E8242EF582E9127303
:10317300D6D0E0F07408120AF612336A1231F4243E
:1031830024F582EB125AA7126529E50B1267A5F500
:1031930010A3E0F511751200781012087212499FFE
:1031A300EA242BF582EB1273D6124F041213B57473
:1031B300031208A4851882851983AA82AB8312247B
:1031C300298E828F83A3A3A3A3A3E0D2E0F0740C80
:1031D300120AF6E0600302300F151302301C790067
:1031E300AA0CAB0D1223ED740D1208A47F0F020578
:1031F300E5A3A3A3A312606DEA22A3123202221253
:10320300320622124A00F985188285198322126038
:103213006D850A82850B83A3A3A3A322A312322461
:1032230022123206E8F0A3E922125F2EE0221246B0
:103233006A1278B7E93400F583E508F0A3E509F0ED
:103243002274F01203B874E912091FEAFEEBFF8936
:10325300088E828F83A3A3A3A3A3A3A3A3E0F9123E
:103263000D6D8A0C8B0DEA450D7003023365E5087D
:1032730070157C048E828F83A3A3A3A3A3A3A3A30C
:10328300E0F9120D73804F7C088E828F83A3A3A372
:10329300A3A3A3A3A3E0F9120D738A0A8B0BEA4538
:1032A3000B6033E508F509780912087A850C8285E5
:1032B3000D83A3A3A3A3A3A3A3E0FD8A828B83A36C
:1032C300A3A3E0FC8A828B83A312336AE0F9121270
:1032D300DD74011208A412720CEF1255D7700302A9
:1032E300336588828983124F007406120AF61233FB
:1032F30074124F047408120AF6123374A3A3E0C0C5
:10330300E07410120AF6D0E0F0850C82850D83A3D9
:10331300124EFC740E120AF61267017411120AF6A9
:10332300E412322CFAA3E0CA241FF582EA1273D600
:10333300124405E0C413135403FC70027C04888216
:103343008983E0F9780C120876742059FD7440598A
:10335300F97402120AF6AA82AB831223F9740212D9
:1033630008A474170253DC1250FA850A82850B8372
:1033730022EAF0A3EB1247DFA3A32274F71203B8E8
:1033830074FA12091FE9FE7F018F087D008004751E
:1033930008000D124CDCEB12341AEDC3985025EDE6
:1033A30075F006A4F8A9F0EA28F8EB39F9E81269F0
:1033B300D0E91253FE50D8540C60D4E0A2E250D2AC
:1033C3007F0080CE8A828B83A3A3A3A3A3A3E070F1
:1033D3003EE508A2E0400574016E70338A828B8358
:1033E300A3A3A3A3A3A37401126580E0C0E07403A5
:1033F300120AF6D0E0126578E0C0E07404120AF60F
:10340300D0E0F07405120AF6EF124CEF1223877422
:10341300060247E6F582EF1257DAF822C082C0832C
:1034230079011223ED0249E074F41203B8EA4B6008
:103433002D9004ACE064027025900D75E4F08A08C9
:103443008B09F50AF50B780812086E7A027B009057
:103453000401E0F912153B74041208A48012900DC4
:10346300757401F07A027B00900401E0F9121547AC
:1034730002445CC082C083900DD3E075F005A4FCC8
:10348300ADF079007AA87B0B1213C17B008012EB9D
:1034930075F005A4F8A9F012364474FEF0A304F005
:1034A3000B900DD3E0F8EBC39840E40249E0C082EF
:1034B300C0837C007B0080037C010B900DD3E0F87C
:1034C300EBC3985049EB75F005A4F8AAF0EAF9129A
:1034D300363D7003A3E0F460E1123634E82403F8C8
:1034E300E912491924FFF0A3E034FF124452F9E82A
:1034F3004970C5EB75F005A4F8EAF91236348882F1
:10350300898374FEF0A30412362FE4F080ACECA29E
:10351300E050179082581206B07A047B00900401A1
:10352300E0F912153B74041208A40249E074F7127F
:1035330003B8EAFEEBFF900DD3E07003023626EEEC
:1035430024111267A270030236268E828F83A31280
:103553004EFC120F65E96402600F8E828F83A3A372
:10356300A3A3A3E070030236267C008041EE124C35
:10357300DDEF126066EC75F005A4FAABF074A82ACF
:10358300F582740B3BF583E0687003A3E069701D5B
:10359300EE24121267A2FBEC75F005A4F8A9F074EF
:1035A300AA28F582740B39F583E06B607B0C900DD0
:1035B300D3E0F8ECC39840B57C0080010C900DD3A8
:1035C300E0F8ECC3985061EC75F005A4F8A9F0128B
:1035D300363D7003A3E0F470E3123634EE240B128D
:1035E30073D3124BCEEAF0A3EB12364F8882898352
:1035F300A3A312362FA3740C1258097A04FB900468
:1036030001E0F912154DEA4B4C4D70179082581298
:1036130006B07A047B00900401E0F912153B7404B0
:103623001208A479010247E9790080F9126595A38C
:103633002274A828F8740B39F922123644E064FE88
:103643002274A828F582740B39F58322124F20E0E7
:103653002274F21203B88A0A8B0BE9FE7A007B000C
:1036630090041C122BC290041C1255DA60210A85A7
:103673000882850983A3A3A3A31255DA6011EA2460
:10368300010AEB3400FB88088909E8450970E090DA
:103693000DC7126069C3EA98EB99507D7A067B00E7
:1036A30012146F8A0C8B0DA80CA90DE849606A8867
:1036B300828983E50AF0A3E50BF0EE88828983A370
:1036C300A3F0900DC6124684A3A31247DAE4F0A335
:1036D300F090041C1250F2600C850882850983A3C4
:1036E300A3A3A3800390041C124CCA7A087B009006
:1036F3000401E0F912154DEA4B4C4D701C900DC4BA
:1037030012722F780812086E7A087B00900401E089
:10371300F912154174041208A4022BCD74F212039A
:10372300B874F312091FEAFEEBFF8E828F83A3A303
:10373300A3A3A3A3A3A3A3A3E0F50A900D75E0702D
:103743000579BA023A22750801750900750C0075EE
:103753000D007C087D007900851882851983AA8273
:10376300AB831213C17405120AF67401123A63543F
:103773000460127402120AF6E0D2E6123A635408A5
:103783007003750803E05410600674404508F5089B
:10379300E0540860227402120AF6E044C0123A634D
:1037A3005420600A7403120AF6E0D2E0800874031E
:1037B300120AF6E0D2E1F08E828F83A3A3A3A3A320
:1037C300A3A3A3E07016120EE7851882851983124E
:1037D30067017402120AF6E0D2E2802D640F7011C1
:1037E3007402120AF6123A4D74044508F5080238B9
:1037F300758E828F83A3A3A3A3A3A3A3A3E06402D1
:103803008E828F837006123220F08066A3A3A3A357
:10381300A3A3A3A3E064037013851882851983AC63
:1038230082AD83EEFAEFFB12236980468E828F838B
:10383300A3A3A3A3A3A3A3A3E0640170359004B03F
:10384300E060107402120AF6123A4D750910750AF7
:10385300FF80187402120AF6E0440C12616C74FDC6
:10386300F0A374FFF074044508F5088E828F831269
:103873003A2F1253F8503A7402120AF6E0540C70BD
:103883001B8E828F83124F041217F9E9700579BBDF
:10389300023A227402120AF6E0D2E5F01253F8500B
:1038A300107402120AF6E0540C64047004E0D2E5CA
:1038B300F0EE24111267A2C0E07404120AF6D0E0FD
:1038C300124CEF1216F1740C120AF6E06003023A7E
:1038D3001B7408120AF6123231EE24181267A2C0C2
:1038E300E01269DEE91273D6D0E0F0EE2419126714
:1038F300A2C0E07408120AF61266CC125D53E812F5
:1039030073D6D0E0124809640170119004B0E0C08E
:10391300E07408120AF6123A3BD0E0F07408120A77
:10392300F6123DD22417FAEF3400FB8A828B83E030
:10393300FCE8241C123A27F0A3E412510FE0C0E084
:10394300E82422F582E91273D6D0E0F07408120A53
:10395300F6123A44E50AF07408120AF6124666248F
:1039630024F582E9125D65A3E50D125DCFFCA3E0AA
:10397300FDE82426123A27F0A3ED123E71126B974D
:10398300E82428F582E91260CFC0E0E8242FF5820D
:10399300E91273D6D0E0F0EE241B1267A2C0E074E4
:1039A30008120AF61266E3D0E0F0EE241A1267A2B8
:1039B300C0E07408120AF61266CC242EF582E812CF
:1039C30073D6D0E0126707122B5C120872EE241133
:1039D3001273D3126B97740B120AF61247EE12137B
:1039E300B574031208A4EE24151267A25440601B99
:1039F3009004281255DA6013851882851983AA82E8
:103A0300AB839004291273FA12054685188285192F
:103A130083AA82AB83122429740C120AF6E0F97488
:103A23000D022BCAF582E91241D4EC22123A332259
:103A3300E0F50CA3E0F50D221266D024151241D156
:103A4300221266D024231241D122E0D2E312626E05
:103A5300123A5722851882851983E8F0A3E9F022E8
:103A6300F0EE24151257D72274F71203B87E638A37
:103A7300828B83E0600C7905120BFFE9F87456C35F
:103A830098FE900458E0600CF9120BFFE9F8EEC3BE
:103A93009824F2FEEEF90247E974F61203B874FEB5
:103AA30012091F851882851983126701E9FEECFA52
:103AB300EDFB740C120AF6E0FC9005821255DA60F5
:103AC30032851882851983858208858309780812CF
:103AD30008767D01EEF9900582124A661205467456
:103AE300021208A48B09EA4509600479008006796B
:103AF300B2800279B602421174F71203B8E9FE7478
:103B030009120AF6E0FF90040E1255DA601AEFF577
:103B130008780812087AEEF990040E124A66120524
:103B23004674011208A4800279B60247E974F712B9
:103B330003B88908ECFEEDFF79B5E508245E601F44
:103B430014600624F8602F80389005841250F260C8
:103B530030900584124A661205461266FD80209055
:103B63000410125F76601AEEFCEFFD900410124A07
:103B730066120546800B90040C124CB0121CBB79E4
:103B8300000247E974F71203B8E9FE79B574AB6E26
:103B9300700B90040C124F04121CBB79000247E90E
:103BA30074F21203B88A088B09ECFEEDFF750A0163
:103BB300900460E065087004A3E065097010120EBC
:103BC300E1EAFCEBFDEEFAEFFB121CBB802A120EBE
:103BD300ED8A0C8B0DE508650C7004E509650D7025
:103BE30009EEFAEFFB120EF3800EEEFCEFFDAA08CE
:103BF300AB09120C6BE9F50AA90A022BCD74F51275
:103C030003B8EAFEEBFF8C088D09750A01120EE179
:103C1300EAFCEBFDEEFAEFFB121CB5E96401700B55
:103C230090046012440D124CCA800EAC08AD09EE2C
:103C3300FAEFFB120C71E9F50AA90A026F7574F623
:103C43001203B8EAFEEBFF7A0C7B0012146FEA4B07
:103C5300606CEE2420123CC4F0EE2421123CC4A379
:103C6300F0EE2422123CC4A3A3F0EE24231273D358
:103C7300123CD0124F38125A80124CC6EE2428122E
:103C830073D3125A80A3A3A3A3A3A3E8F0A3E912B7
:103C930055DF8A828B83A3A3A3A3A3A3A3A3F0EEDD
:103CA300242F1267A2C0E0124CDCEB1273D6D0E0D3
:103CB300124D0FF8A3E0F98A828B83124CC10242A2
:103CC30016F582EF1241D4E08A828B8322E08A8246
:103CD3008B83A3A3A32274F61203B8ECFEEDFF7942
:103CE300B3900457E0702E900489E064017026EECF
:103CF3001269D0EF125D77120BE78A088B09A808C7
:103D0300A909EE240F1273D3124CCAE8496004794F
:103D130000800279A102421674F41203B874FE12F1
:103D2300091FECFEEDFFEE24161267A26405700E68
:103D3300EE2406FCEF3400FD12236FE9607F851843
:103D430082851983AC82AD831269141217FF85181B
:103D5300828519831255DA6060E875F009A4F8AA20
:103D6300F075F009E9A42AF974A328F874F439F971
:103D7300E8FAE9FB8A828B837808120A99EE241207
:103D83001273D37808120A79402B85188285198318
:103D9300123DD2240F123DC7124F1C7808120A9904
:103DA3009082187808120A358A828B837808120A5F
:103DB300B77900800A79A2800679A1800279C87454
:103DC30002024459F582EF1241D4E8F0A3E922122A
:103DD300606DEE2274F41203B874FF12091FEAFE39
:103DE300EBFF900457E07075900489E06401706DF7
:103DF30075083A75090078081208767402120AF6F3
:103E030085820885830978081208767C017D007A0B
:103E1300007B0012100774041208A4E9703CEE241E
:103E23000E122CFF123F6EC0E0EE24111273D3D09A
:103E3300E0123E71743A125809900430120AD3EE1C
:103E430024121273D3120ADF9082187808120A9987
:103E530090043078081209D68003123E657401027B
:103E630044591278B6EF1241D4E4F0A3F022F012D1
:103E730078B6EF1241D42274F01203B874F6120923
:103E83001FECFEEDFF7402120AF6AC82AD8312231F
:103E93006FE97003023F69851882851983AC82AD8F
:103EA300837402120AF6AA82AB831217FF85188263
:103EB3008519831255DA7003023F69E875F009A486
:103EC300F8AAF075F009E9A42AF9749F28F874F4A4
:103ED30039F988088909EE240E1273D3E4123F6E70
:103EE300F8A3E0F9EE240F1273D3124CCA850882AB
:103EF300850983120AD3EE24121273D3120ADF90B8
:103F03008218780C120A99850882850983780C1225
:103F130009D68508828509837808120A9990827CDC
:103F2300780C120A997808790C120348E50C450DB0
:103F3300450E450F703085188285198312466675C4
:103F4300F009A4F8AAF075F009E9A42AF974A728DE
:103F5300F58274F439F5837401F07A007B089005D7
:103F6300FDE0F9121415740A0253DC126170E022A9
:103F730074F01203B88A088B09ECFEEDFF123E655C
:103F83009081F8780C120A99EE2412123FE212097A
:103F93004A6047123FEB700512235D803FE07015C6
:103FA300122357E960368E828F83A3A31249C0542C
:103FB30003700C802764027013122357E9601DEE0F
:103FC300FCEFFDAA08AB091218298010E064037006
:103FD30005122357800679A1800279A30253DFF5E6
:103FE30082EF1241D4780C22EE240EF582EF1257A1
:103FF300DA64012274F61203B8EAFEEBFFEE240A38
:10400300F508EF1240B2126B97EC240F1240BC126A
:104013004CFD12234B850882850983E02406FCA30B
:10402300E03400FD8E828F83124F0412236F8508C4
:10403300828509831255CF70541241EB121CB5E9E6
:10404300701D120EE18A088B09AC08AD0990040CAF
:10405300124F04121CB5E97006122393E9602E8EE9
:10406300828F83126B8D8E828F83124F0412182FCF
:10407300E960158E828F83A3A3A3A3A3A3A31266D0
:10408300C91278B7E8123E6912442EE4F01255C102
:10409300701A1240C5124F041223518508828509F4
:1040A300831255CF70061273D074A1F002421634F6
:1040B30000F509850882F58322F582ED1241D4E4E7
:1040C300F022EE240A1241998882F5832274F612B3
:1040D30003B8EAFEEBFFEE240A1241997A187B003B
:1040E30012146F850882850983EAF0A3EB12420953
:1040F300E8497003024190EEFAEFFB12233F125599
:10410300C160731241D864018E828F83A3A3A3A3DA
:10411300A3A370071241C4740E80201255DA700FE6
:104123001241EB121CB5E97006122393E9600712E2
:1041330041BA740D80051241BA7405124D0F540330
:10414300640170071241A37405800B900458E0C00A
:10415300E01241A3D0E01249AF1273F8A3E0F912C1
:104163000BFF8508828509831266CC2417F582E844
:104173001273D6E9801C850882850983124F0412C5
:104183001475850882850983E4F0A380051273D032
:104193007410F0024216F8EF3400F98808890922F6
:1041A3008E828F83A3A3A3A3A3A3A3A31241B322AA
:1041B300A3A31249F8A3228E828F83A3A3A3A3A34D
:1041C300A3A3A3A3A31266D024161241D122F5827E
:1041D300E812444D228E828F83A3A3A3A3A3A3A398
:1041E300A3A3A3124440E02290040C126B9B8E8283
:1041F3008F83A3A3A3A3A3A3A3A3A3A3E02406FA48
:10420300A3E03400FB221249B3F8A3E0F9227402BD
:104213001208A47F020205E574F11203B88A0A8B1F
:104223000B8C088D097A187B0012146F8A0C8B0D86
:10423300AE0CAF0DEE4F70030243108E828F83746A
:1042430001F0E508240DF8E50912691DC3E49AFAA3
:1042530095E0FB1269D512431BFB8E828F83A3A3C8
:10426300A3A312491D8E828F83A3A3F0EEFAEFFB63
:10427300120BB185088285098312652E70098E821F
:104283008F83A374058006900458124317F0EE241D
:1042930017F8EF3400F9880C890D8E828F83A3E021
:1042A300F9120BFFE9850C82850D83F0EE2416F8D5
:1042B300EF3400F9E508240EFAE5093400FB88829F
:1042C3008983124BD6E5082410FAE5093400FB85EF
:1042D3000C82850D83E0FC88828983E0F88A828BD7
:1042E30083E0C398C39C12625FF0EEFCEFFDAA0A61
:1042F300AB0B122345E9F508700AEEFAEFFB120B3C
:10430300BDE9F508EEFAEFFB12147580037508108A
:10431300A9088011124CD5221241D4E02AFAA3E055
:104323003B221208A47F070205E5790102085674AF
:10433300F41203B8EAFEEBFF8E828F83A3A3A3A339
:10434300A3A3A3A3125D8C1273D612652E702A1237
:1043530041D8702512441BE06405701D12441BA351
:10436300E0F87401686005740668700712442E74DF
:1043730002800512442E7403F01240C5124A66E40B
:10438300F0EE2408F8EF1243F7242DF582EA1267C2
:10439300A5C0E01243FFA3A3D0E01257FEFAA3E0A7
:1043A300CA242AF582EA1267A5C0E01243FFA3A339
:1043B300A3D0E0124452C8124CDDE81273D6124463
:1043C3000D124405124CC6120EE18A0A8B0BAC0A7D
:1043D300AD0B850882850983E02406124932121C3D
:1043E300BB850882850983124F04120BBD1273D05B
:1043F300E9F080651249551250FFCA22850882856B
:1044030009831250FFF5838A822212441122126219
:1044130075850882850983228E828F83A3A3A3A334
:10442300A3A3A3A31247F6124A6B228E828F83A300
:10443300A3A3A3A3A3A3A3A3A312444022124A00AA
:10444300C8240EF582E812444D223400F58322126B
:104453005802F8A3E0221208A47F040205E50243F0
:104463002DC082C08390041E7439F0A37423F0908E
:104473000420742DF0A37423F09004227427F0A376
:104483007423F09004247433F0A37423F00249E0FE
:1044930074F41203B8EAFEEBFF1244E9F508120EB6
:1044A300E78A0A8B0BA80AA90B8E828F8312440515
:1044B300E0687003A3E069602AE508A2E550248E52
:1044C300828F83A3E0FB90041E124A661205468E78
:1044D300828F831266CC240A1255D470061244E9E3
:1044E300C2E5F002445C8E828F831241B5A3E022C1
:1044F30074F41203B8EA2408FCEB3400FD8C828DBB
:10450300831246662420F582E91267A5FE74035ED2
:10451300F509124BBD1273D6123DD288828983F0FE
:10452300A3A882A983E509600974026509600302EF
:1045330045CB740C5EF50860177408650860117448
:104543000465087013740265097005EEA2E4402C3B
:10455300124654242312468A740C650870181246B6
:1045630046242412466FFCA3E0CC2424F582EC12EB
:1045730073D6A3124690740265097005EEA2E44057
:1045830047124646242612466FFFA3E0CF24261285
:1045930073D3A312469012464A242812469F242816
:1045A300F582EC1273D6A3124690E50860127408E4
:1045B3006508600C740C650860067404650870086F
:1045C300124654242212468A124654124633700568
:1045D300EEA2E1500D124654242EF582EC12463E13
:1045E3008010900402124641900402E004F0888295
:1045F3008983A3A882A983EEA2E7503112464624F9
:104603002112469F12463360241246542430124628
:104613008AEEA2E150178A828B83A3A3A3A3A3A349
:10462300A3A31243FA2431F582EA12463E02445C04
:104633002421F582EC1257DA5403221241D4124694
:1046430084F022EA2408FC8C828D83E0FFA3E0CF70
:10465300228A828B83A3A3A3A3A3A3A3A3E0FCA384
:10466300E0CC2212466A22126275E822F582EF122A
:1046730041D4124684F0A3A882A9838C828D83E05F
:1046830022E08882898322F582EC1241D412469477
:1046930022E088828983F0A308A98322F582EF129E
:1046A30041D41246948C828D83E0FCA3E0CC22C0DB
:1046B30082C0838A828B831244EDF8740358F98A8B
:1046C300828B83A3A37401F0E960057402697061AE
:1046D300740C58FC601474086C600F74046C7013D1
:1046E3007402697005E8A2E4401D8A828B83A3A348
:1046F3007402F0740C6C700A8A828B83A3A3E02487
:1047030002F07402697005E8A2E440258A828B8373
:10471300A3A3E02404F0EC600F74086C600A740C2B
:104723006C600574046C70098A828B83A3A3E00414
:10473300F0E8A2E750318A828B83A3A3E0041260DE
:10474300D6F9A3E0F5838982A3A3A3E054036017FA
:104753008A828B83A3A3E004F0E8A2E150098A8252
:104763008B83A3A3E004F08A828B83A3A3E004F0EA
:104773000249E0C082C0838A828B83A3A3A3A3A33D
:10478300A3A3A3A3A31255DA600C8A828B83A3A3EA
:10479300124EFC1214750249E074F71203B8EAFED4
:1047A300EBFF8E828F8312606988828983A3A3A320
:1047B300A3A3A3A3A3E4F01247DAA3A3A3A3A3A3EE
:1047C300F0A3F0E8126847E91240BF12230FEEFA94
:1047D300EFFB12231B800FA31247DF22126595A361
:1047E300A3A3221208A47F010205E51247F6FAA348
:1047F300E0FB221247FA22124A00C8242BF582E872
:104803003400F583E0221255ECA3E022123A5D8EC8
:10481300828F83A3A3A32274F61203B874F412093C
:104823001F124939FCA3E0F5838C82A3E0FC7402D8
:10483300120AF6EC1257FE12495D7404120AF612BC
:104843004CF76C7015EA24021249171249307406AA
:10485300120AF612491D241A80397402120AF6E06C
:1048630064016005E06406703BEA2402F8EB12433E
:10487300F71269DFEA1267A5C0E07403120AF6D0E3
:10488300E01257FE24131249327406120AF6124933
:104893001D241BF8A3E03400F97408120AF6E8F0AB
:1048A300A3E980287406120AF6E4F0A3124946121B
:1048B30049307408120AF6124929C8241AF582E805
:1048C3001267A5C0E0740A120AF6D0E0F07406126B
:1048D3000AF61255DA602B7406120AF6124F041206
:1048E3000C5FE96401701B120EE18A088B09AC08A6
:1048F300AD097406120AF6124F04121CB5E96401DD
:10490300700D851882851983AA82AB8312237B7469
:104913000C024213F8EB1249502212492122EAF009
:10492300A3EB12580222124921F8A3E0222412FA1F
:10493300A3E03400FB228A828B83A3A3A3A3A3A3B4
:10494300123224F0EA2402F8EB124950221249559C
:10495300E0223400F988828983222402F8A3E03418
:1049630000F922C082C08374FD12091F124986C058
:10497300E07402120AF6D0E0124CEF1217517403DE
:104983000249DD8A828B83A3A3A3A3A3A312606D31
:10499300123A578A828B831241B3E022E50A24102C
:1049A300F582E50B1241D4E0FC7D00221249B322CB
:1049B3001249B722F0850882850983E0221249F162
:1049C30022C082C0831249E7600624FC6007800886
:1049D3001222FD80031222F780031208A4D083D091
:1049E300820208561249ED24FB228A828B83A3A3F9
:1049F3001249F8E022124A00F583888222E0F8A3E4
:104A0300E022C082C083900DC9E070259006F6E0D5
:104A1300701F8A828B83A3A3A3A3A3E07013124AFC
:104A23007360368A828B83A3A31273F9E0640760F1
:104A3300288A828B83A3A3A3A3A3A3A3A3E07010B9
:104A43008A828B83124A7960077904121C9D80093C
:104A5300900426124A661205460249E0EEFAEFFB7D
:104A6300900420124A6A22E0F8A3E0F583888222A8
:104A73001249ED6406221249F164052274F6120309
:104A8300B874FA12091FEAFEEBFF7403120AF6EE7A
:104A9300F0A3EFF07403120AF6AA82AB8312230386
:104AA30012679F6003024BB885188285198374329D
:104AB300F07405120AF6126B70C0E07401120AF664
:104AC300D0E0124BF5C0E07402120AF6D0E0124BAC
:104AD300FBF8A3E0F9E849601CE82417F582E91222
:104AE30055AFE82416F582E91267A52AF874011276
:104AF3000AF6E028F0851882851983AA82AB83120F
:104B03000CBF8A088B09A808A909E8497003024B5E
:104B1300AB8E828F83124BCEA3A3124BEE1269DFAF
:104B2300E9124D0AC0E0E82420F582E91273D6D0D9
:104B3300E0124D05C0E0E82421F582E91273D6D0D6
:104B4300E0124C01C0E0E8242AF582E91273D6D0C2
:104B5300E0F07405120AF6E0FCFA124BBD1267A5E9
:104B63002A124932E8242BF582E91273D6124BEE4E
:104B7300242D123A27124BFBFAA3E0FBEA4B6016F3
:104B8300E8242BFAE9124BC41246582416F582EC9A
:104B93001273D6124BD68E828F83A3A3A3A3A3A390
:104BA300A3A3E8F0A3E9800CEEFAEFFB12230912AA
:104BB30073D07410F07406024213E8240BF582E9F3
:104BC300223400FB8E828F83A3A3221250FA8882A1
:104BD300898322E0FC8A828B83E02CFCA3E03400EF
:104BE300FD8A828B83ECF0A3EDF022EAF0A3EBF0D5
:104BF300E822124C06A3E022125113A3E022124C26
:104C030006E022124C0A22124C0E22F08E828F836F
:104C1300A3A3A3A32274F61203B8EAFEEBFF126761
:104C23009F70431223158E828F83A3A3A3A3A3A3F1
:104C3300A3A3A3A31255DA6006124A5F1205461214
:104C4300679F700C124EF8120CB91273D0E98015DD
:104C5300EE24081240C8124F041214758508828589
:104C63000983E4F0A3F0EEFAEFFB122309024216E4
:104C730074F61203B8EAFEEBFF8C088D091217F9DC
:104C8300E9700479018011AC08AD09EEFAEFFB90ED
:104C93000424124A661205460242167D00EE2402DF
:104CA300FAEF3400FB22A3E08E828F8322126B9BE8
:104CB300EEFAEFFB22A3A3A3A3A3A3125419A3A366
:104CC300A3A3A3A3A3A3A3123A5D22124FDF124C03
:104CD300D522E08E828F83A322EA240BF58222E081
:104CE300850882850983A3A3A3227401126170AA94
:104CF30082AB8322123A5D740422A3125F2E1250F8
:104D0300FA22126263E0221241D47401125F29A3D2
:104D1300E022C082C08312232190042674F1F0A301
:104D23007422F00249E0C082C0837C0879FF9004BA
:104D33000C124F0412144B0249E074F71203B8E942
:104D4300FE1265211255D7601A88828983A3E05425
:104D5300037010EEFB124BBD1273D6124D90E0F9A7
:104D63001212D70247E9C082C083EAF8EBF98882BE
:104D73008983A3A3A3A3A3E0FB88828983A3A3A31B
:104D8300A3124D90A3E0F91212D70249E0E0FA888A
:104D9300828983A3A32274E81203B88A088B098C3F
:104DA300148D15890B7418120AF6E0F516A3E0F5B5
:104DB30017741C120AF6E0F50A741D120AF6780C31
:104DC300120A99124EF2EB1267A5242FFA7B0012F6
:104DD30013D38A108B11AE10AF11EE4F7003024E36
:104DE300EF8E828F837401F0850810850911751287
:104DF3000078101208727C177D00EE2418FAEF3445
:104E030000FB1213B574031208A485141085151141
:104E130078101208727C09124C9E1213B574031297
:104E230008A4EE240B1273D3E516F0A3E517F07470
:104E33001A120AF6125A71C0E0EE240F1273D3D07D
:104E4300E0125A90C0E0EE24111273D3D0E0124F57
:104E530017C0E0EE24101273D3D0E0124F1CE50A02
:104E6300124F38E4F0A3F0EE2413123FE2120AB714
:104E7300EE24171273D3E50B124F2BF8A3E0F9EED0
:104E8300240D123DC7126BA1E0602DEE24261253B0
:104E9300ED242F124F081269D7122FC6120872E59C
:104EA30008124EF3E5091249A78A828B83124F0435
:104EB3001213B574031208A4EE2419F582EF1246F7
:104EC30038601D90041A1255DA600CEEFAEFFB12EB
:104ED30073FA1205468015EEFAEFFB1213D9800C14
:104EE300EEFAEFFB900401E0F91213DF0273CBEA51
:104EF3002410F582228E828F83A3A3A3A3A3A3A34B
:104F0300A31250FA22F8EF3400F98A828B83123A03
:104F13005DE50822126591E022124F2022F0EE2473
:104F230012F582EF12444D22124FDFA3A3A3A3A3D2
:104F3300A3A3A3E022F0EE2426F582EF1241D422AC
:104F430074F11203B88A088B097A207B001213D3F9
:104F53008A0A8B0BAE0AAF0BEE4F60798E828F837A
:104F6300740412502F8E828F83A3A3A3A3124FDB4B
:104F7300124CA9124FE3F50CA3E0F50D750E007862
:104F83000C1208727C107D001269141213B574039D
:104F93001208A4850882850983126B8FEE2416FA02
:104FA300EF3400FB120C59850882850983A3A3A360
:104FB300A3A3A3A3A3A3A3E0C0E0EE241E1273D371
:104FC300D0E0124FF3C0E0EE241F1273D3D0E012EF
:104FD30050001213DF024328124FDF221250132214
:104FE300A3A3A3A3A3124FEC22125013A3A3E02263
:104FF300F0E508240BF582E5091257DA22F0EEFA00
:10500300EFFB9005FDE0F922E8F0A3E9125013222B
:10501300F0850882850983A3A32212502122124915
:10502300B7F8A3E0F98E828F83A3A3221250211233
:10503300500BE02274F61203B8EAFEEBFF7A057B0D
:10504300001213D3EA4B60278A828B83740812629F
:105053006A8A828B83A3A3E8F0A3E9124D0F8A82A5
:105063008B83A3A3A3A3F09005FDE0F91213DF0242
:105073004216C082C083E9900D76F0900416742125
:10508300F0A3740BF09004187433F0A3740BF09036
:10509300041A7445F0A3740BF00249E074F7120389
:1050A300B8EAFEEBFF8908EE4F70031218AD9004C7
:1050B3002A1255DA700890042A80221260698882C5
:1050C3008983A3A3A3A3A3A3A3A3A31250F28882B8
:1050D3008983A3A3A3A3A3A3A3A3A370DEEEF0A337
:1050E300EF12510FE4F0125104E508F00247E91200
:1050F30050FAEA4B22A3A31250FFFB22E0FAA3E0EB
:1051030022A312510922124C0AA3A32212511322E1
:105113001255F0A3A32274F71203B890042A800D4A
:105123008E828F83A3A3A3A3A3A3A3A3A3126556D2
:10513300EE4F60348E828F83A3A3A3A3A3A3A3E024
:105143006970DD8E828F83A3A3A3A3E06A7003A398
:10515300E06B70CC8E828F83A3A3A3A3A3A3E06C85
:1051630070BEEEFAEFFB80047A007B000247E9741D
:10517300F71203B890042A12655690042A1231F8E4
:10518300687002EB69701BE0C82409F582E81260BD
:105193006690042A124CCA90042A1265568024127F
:1051A3006549EE4F601D8E828F83A3A3A3A3A31231
:1051B30031F4687002EB6970E68A828B83A3A3A340
:1051C300124CB8121475EEFAEFFB0247E974F012B1
:1051D30003B874FA12091F8A088B098A828B83A386
:1051E300A3A3A3A3A3A3A3E06037640160338A82CC
:1051F3008B83124F04120F65E97026850882850997
:1052030083A3A3A3A3A3A3A3A3E0640370187404B9
:10521300120AF6AC82AD83AA08AB09122369E970BE
:105223001679020253DA850882850983126069744C
:1052330004120AF6124CCA1269C61267A524321266
:10524300493212146F8A0A8B0BAE0AAF0BEE4F7002
:10525300030253D87C327D0079001213C174021209
:105263000AF6AA82AB83850882850983A3A3A3A335
:10527300A3A3A3A3A3E0F91213257402120AF6E071
:10528300C0E0EE242D1273D3D0E0F0EE242CF50A07
:10529300EF3400F50B7403120AF6E0850A82850BDE
:1052A30083F07901EEFAEFFB120B0F85080C8509E9
:1052B3000D750E00780C1208727C1C7D001253E4ED
:1052C3001213B574031208A4EE24301253ED2432E2
:1052D300124F082411F8E5091257C68C828D8312E8
:1052E3003DD2242E1273D3124F11125D53E50912CE
:1052F30073D61274FF1208728C828D83126B978A95
:10530300828B83124F041213B574031208A474041E
:10531300120AF6125415124CC690040212540EA32C
:10532300A3A3F0900402E004F012155F1266FDEEF1
:10533300242A125D58750D00850A82850B83E07857
:105343000C1209C38A828B83E50CF0125404E50C1A
:1053530012616CE4F0E5082415F582E5091253FEA9
:1053630074015007120AF674018004120AF6E4F07D
:10537300EE2427124199851882851983AA82AB836B
:1053830012130DE924FE850882850983F0EE242E8D
:105393001257C412542112026FE88E828F83A3A383
:1053A300A3A3A3A3A3A3F012542112026F8B09EAB0
:1053B3004509600F8E828F83A3A3A3A3A3A3A3A3F3
:1053C300E004F0EE24201267A24408125DC4121414
:1053D3001579008002791074061208A47F0802056B
:1053E300E5EE240BFAEF3400FB22F8EF3400F9E882
:1053F300FAE9FBEE22EE2415F582EF1257DAA2E06A
:1054030022EE2429F582EF1241D422124CD5A3A314
:10541300A322125419221262758E828F83228C82E8
:105423008D83124411E0FA7B002274F41203B8EA6C
:10543300FEEBFF12155F1266FD900DBEE0F8EE2441
:105443002B1267A2C398400302559A1255B37012E8
:10545300EE242B1267A2041255DFC0E0125404D0CD
:10546300E0F0EE24281267A2FC7900800109EE2403
:105473002C123417E9C3985026750801750900E901
:1054830078081209C31255B3550860E1E92CFC757D
:105493000801750900E978081209C3E04508F0EE30
:1054A30024271255ACEE242EF582EF123A2A8A08ED
:1054B3008AF0A4F8ABF0E42BF9E098F8A3E099F9AB
:1054C300C3E89508E99400EE4039242712341712F3
:1054D30055B36035EE242D1273D31255BBA3E4F0FC
:1054E300EC7052EE24201267A24420124809C0E057
:1054F300EE24261273D3D0E0F0EE24301255ACA381
:10550300E0805612540574FFF0900450E0FA900DB9
:10551300C1E0F508EA8508F0A4ABF075F064A4FADD
:10552300ADF075F064EBA42DFB8E828F83A3A3EA09
:10553300F0A3EB80AAEE24201267A254DF124F38A7
:10554300ECF08C08EE2427F582EF125A69FAABF0DF
:10555300EE2430F582EF12431BFBEE241E1273D3AD
:10556300EAF0A3EB1255E7C0E0EE24251273D3D083
:10557300E0F0EE241C1273D3E812580990042C12A5
:1055830055DA600BECF91273FA120546E97017123B
:1055930053E41223B7800F7BE91257DF1212D7EEC1
:1055A300FAEFFB120B1B02445CF582EF1257F82251
:1055B300EE24291257D7F422124CD5A3F0228E825F
:1055C3008F83A3A3A3A3A3A3A3A3A3A31266D024FC
:1055D3000FF582E81241D412466A4922F0EE242ADA
:1055E3001257D7221255ECE0221255F022124C0E1C
:1055F300A3A3A32274F41203B890042A12655612CB
:10560300155F8A0A8B0B78FF79FF8020E0C39AFC31
:10561300A3E09BFDC3EC98ED99500E8E828F83A37C
:10562300A3E0C39AF8A3E09BF9126549EE4F605CCF
:105633008E828F83124F04E50AC39AFAE50B9BFB14
:105643008E828F83126B95C3EA9CEB9D8E828F8330
:10565300A3A340B8A3A3A3A3E06402701A125D6CD2
:10566300600CEE24101273D3124F041213D9EEFA06
:10567300EFFB120B1B8007EEFAEFFB120B277A01ED
:105683007B00900D76E0F9121415802974FF687081
:105693000374FF69601F88088909E4F50AF50B782C
:1056A3000812086E7A017B00900D76E0F912153B23
:1056B30074041208A402445C74F01203B88A088BC1
:1056C30009ECFAEDFB890A7C011269C6125D7712B7
:1056D3000B158A0C8B0DAE0CAF0DEE4F70030257FA
:1056E300C1E50A60030257C1E508125D53E50912DB
:1056F30073D61257CE6860030257C1EE242C12559D
:10570300ACE82AF8E43400F98E828F83A3A3A3A321
:10571300A3A3A3A3E0FAE89AE99400C365D03340B6
:105723001A125A50125D7270127B001257DF121256
:10573300D7EEFAEFFB120B1B0257C1125A50125D40
:1057430072703DEE24291253ED242C1257C47508B0
:10575300FF7509008C828D83E078081209C38A8261
:105763008B83E508F0EE242A1273D3E508F08C82CC
:105773008D831257CE28F0EE242B1273D3E4801FAF
:10578300E5082414F8E5093400F9E0C0E0EE242A22
:105793001273D3D0E01257FEC0E0125404D0E0F0ED
:1057A30012155F1266FDEE242D1273D3124317A355
:1057B3001258097A01FB900D76E0F9121415025381
:1057C300DFF8EF3400F9E8FCE9FD22E0F8EE2428E5
:1057D3001257D722F582EF12444DE022EE24221213
:1057E30057F5EE24141257EC22F582EF12444DE0E4
:1057F300F922F582EF12444DE0FA2212580222F008
:1058030088828983E022F0A3E4F02274E91203B8CA
:1058130074FE12091F8A0A8B0B8C128D138916745E
:105823001B120AF6780C120A998A828B83A3A3E0CF
:10583300F91212FB8A108B11EA451170077A007B6B
:1058430000025A4B7A127B0012146F8A088B09AE3E
:1058530008AF09EE4F7003025A477C127D007900AE
:105863001213C1851882851983AA82AB83850A82A4
:10587300850B83A3A3E0F9121325EE240FF508EF9C
:10588300125A647401120AF6E0850882850983F0CE
:105893007902EEFAEFFB120B0F8512828513831246
:1058A3005A88E8F0A3E9125AB08E828F83A3A3A388
:1058B300A3A3A3A3F07514FF7515008508828509BA
:1058C30083E078141209C31273D0E514125A9512A7
:1058D30073F8E0C0E0EE240B1273D3D0E0125ABA8F
:1058E300F508EE240D1273D3E508F0125D51E50BB4
:1058F300125A692426FAE5F03400FB1213D38A08FE
:105903008B09EE24101273D3126701EA4509700361
:10591300025A3C8A828B83741A1258098A828B83B7
:10592300A3A3F0A3125ACD125A80124CC6AC12ADE7
:1059330013EA2406FAEB3400FB12131F850A82854F
:105943000B83A3A3A3E0C0E0E5081278B7E509122F
:1059530073D6D0E0F090046D125A7A2410125AA331
:105963002415F582E50B1273D6125A7A2424F58294
:10597300E509123DCA125AC7A3A3125A7A1269DF64
:10598300E5091273D6124CCA850A82850B83A3A339
:10599300E0C0E0125A501273D6D0E0F0E50A126864
:1059A30047E50B1267A5C0E0E5082415F582E50974
:1059B3001273D6D0E0F07419120AF6125A71C0E0CD
:1059C300E5082416F582E5091273D6D0E0124F17C5
:1059D300C0E0E5082417F582E5091273D6D0E0127A
:1059E3005A90C0E0E5082418F582E5091273D6D071
:1059F300E0F0E5082419F582E5091273D6E516F0FF
:105A0300E508241AF582E509123FE5120AB7E5080D
:105A13002426F8E5093400F9E5082422125AA312D2
:105A230069DFE50B1267A5C0E0E508241FF582E5F1
:105A3300091273D6D0E0F0800BEEFAEFFB120B1BCA
:105A43007E007F00EEFAEFFB74020231ECE50824DE
:105A530014F582E50922850F0CE508250CF508E508
:105A6300093400F509221257DA8508F0A4221260DE
:105A73006D88828983E02212606DE5082212606DD1
:105A83008A828B8322125419A3A3A3A32212362F33
:105A9300E022125A9AE022F0851082851183A32214
:105AA300F582E5091241D4123A5DE50A22F0126942
:105AB300CEE50B1257DA22F0E50A2410F582E50B46
:105AC3001257DA22125ACDA3A322F0850A82850B3C
:105AD30083A3A3A3A3A3A32274E81203B88A0A8B04
:105AE3000B8C108D1189147418120AF6E0F516A3A5
:105AF300E0F517741A120AF6780C120A9975090060
:105B0300EA125D53EB1267A5F50890042C1255DADF
:105B13006011A90890042C124A66120546E9600335
:105B2300025D4E7C02851082851183124F04126937
:105B3300CEE50B125D77120B158A128B13AE12AFE3
